:02000004085F93
:10A0000000A05F08FCFF5F080000060020000501BB
:08A010000401B514000000007A
:10A018000E480F4908B5884205D00E4A824202D040
:10A028000D4B121A98470D480D4A00210D4B121A74
:10A0380098470D480D49884205D00D4A824202D002
:10A04800054B121A9847014808BD00BF34A90710EC
:10A058005CF05F08ACA907102D0D1110ACA9071012
:10A06800E8AF0710A10E111028B03F0288A05F08C2
:0CA07800FCFF3F0219A05F080000000080
:08A088007CA05F0830FA3F02E2
:10A0900081F0004102E000BF83F0004330B54FEA99
:10A0A00041044FEA430594EA050F08BF90EA020F06
:10A0B0001FBF54EA000C55EA020C7FEA645C7FEA99
:10A0C000655C00F0E2804FEA5454D4EB5555B8BFBC
:10A0D0006D420CDD2C4480EA020281EA030382EA2D
:10A0E000000083EA010180EA020281EA0303362DBF
:10A0F00088BF30BD11F0004F4FEA01314FF4801C92
:10A100004CEA113102D0404261EB410113F0004FA3
:10A110004FEA03334CEA133302D0524263EB43035A
:10A1200094EA050F00F0A780A4F10104D5F1200EF8
:10A130000DDB02FA0EFC22FA05F2801841F1000153
:10A1400003FA0EF2801843FA05F359410EE0A5F127
:10A1500020050EF1200E012A03FA0EFC28BF4CF058
:10A16000020C43FA05F3C01851EBE37101F000450E
:10A1700007D54FF0000EDCF1000C7EEB00006EEB1B
:10A180000101B1F5801F1BD3B1F5001F0CD34908A5
:10A190005FEA30004FEA3C0C04F101044FEA4452FC
:10A1A00012F5800F80F09A80BCF1004F08BF5FEA83
:10A1B000500C50F1000041EB045141EA050130BD63
:10A1C0005FEA4C0C404141EB0101013C28BFB1F575
:10A1D000801FE9D291F0000F04BF01460020B1FAC0
:10A1E00081F308BF2033A3F10B03B3F120020CDA93
:10A1F0000C3208DD02F1140CC2F10C0201FA0CF071
:10A2000021FA02F10CE002F11402D8BFC2F1200CD5
:10A2100001FA02F120FA0CFCDCBF41EA0C0190408B
:10A22000E41AA2BF01EB0451294330BD6FEA0404D4
:10A230001F3C1CDA0C340EDC04F11404C4F12002BF
:10A2400020FA04F001FA02F340EA030021FA04F3D1
:10A2500045EA030130BDC4F10C04C4F1200220FA28
:10A2600002F001FA04F340EA0300294630BD21FA66
:10A2700004F0294630BD94F0000F83F4801306BF2C
:10A2800081F480110134013D4EE77FEA645C18BF20
:10A290007FEA655C29D094EA050F08BF90EA020FB7
:10A2A00005D054EA000C04BF1946104630BD91EAAF
:10A2B000030F1EBF0021002030BD5FEA545C05D1B2
:10A2C0004000494128BF41F0004130BD14F58004F1
:10A2D0003CBF01F5801130BD01F0004545F0FE4165
:10A2E00041F470014FF0000030BD7FEA645C1ABF9A
:10A2F000194610467FEA655C1CBF0B46024650EAD1
:10A30000013406BF52EA033591EA030F41F40021FC
:10A3100030BD00BF90F0000F04BF0021704730B582
:10A320004FF4806404F132044FF000054FF0000157
:10A3300050E700BF90F0000F04BF0021704730B518
:10A340004FF4806404F1320410F0004548BF4042ED
:10A350004FF000013EE700BF42004FEAE2014FEA42
:10A3600031014FEA02701FBF12F07F4393F07F4F1D
:10A3700081F06051704732F07F4208BF704793F020
:10A380007F4F04BF41F40021704730B54FF4607433
:10A3900001F0004521F000411CE700BF50EA010236
:10A3A00008BF704730B54FF000050AE050EA0102DF
:10A3B00008BF704730B511F0004502D5404261EB4F
:10A3C00041014FF4806404F132045FEA915C3FF490
:10A3D000D8AE4FF003025FEADC0C18BF03325FEA2D
:10A3E000DC0C18BF033202EBDC02C2F1200300FADE
:10A3F00003FC20FA02F001FA03FE40EA0E0021FA03
:10A4000002F11444BDE600BF70B54FF0FF0C4CF4F0
:10A41000E06C1CEA11541DBF1CEA135594EA0C0FA2
:10A4200095EA0C0F00F0DEF82C4481EA030621EADD
:10A430004C5123EA4C5350EA013518BF52EA033518
:10A4400041F4801143F4801338D0A0FB02CE4FF0CA
:10A450000005E1FB02E506F00042E0FB03E54FF0FA
:10A460000006E1FB03569CF0000F18BF4EF0010EF2
:10A47000A4F1FF04B6F5007F64F5407404D25FEAEE
:10A480004E0E6D4146EB060642EAC62141EA5551A1
:10A490004FEAC52040EA5E504FEACE2EB4F1FD0CE3
:10A4A00088BFBCF5E06F1ED8BEF1004F08BF5FEA61
:10A4B000500E50F1000041EB045170BD06F0004613
:10A4C00046EA010140EA020081EA0301B4EB5C04C0
:10A4D000C2BFD4EB0C0541EA045170BD41F48011B8
:10A4E0004FF0000E013C00F3AB8014F1360FDEBFDD
:10A4F000002001F0004170BDC4F10004203C35DAB9
:10A500000C341BDC04F11404C4F1200500FA05F33B
:10A5100020FA04F001FA05F240EA020001F00042DC
:10A5200021F0004110EBD37021FA04F642EB060152
:10A530005EEA430E08BF20EAD37070BDC4F10C047C
:10A54000C4F1200500FA04F320FA05F001FA04F240
:10A5500040EA020001F0004110EBD37041F100012C
:10A560005EEA430E08BF20EAD37070BDC4F1200537
:10A5700000FA05F24EEA020E20FA04F301FA05F29F
:10A5800043EA020321FA04F001F0004121FA04F247
:10A5900020EA020000EBD3705EEA430E08BF20EA17
:10A5A000D37070BD94F0000F0FD101F00046400051
:10A5B00041EB010111F4801F08BF013CF7D041EAD3
:10A5C000060195F0000F18BF704703F000465200D7
:10A5D00043EB030313F4801F08BF013DF7D043EAA8
:10A5E0000603704794EA0C0F0CEA135518BF95EA5E
:10A5F0000C0F0CD050EA410618BF52EA4306D1D1E5
:10A6000081EA030101F000414FF0000070BD50EA03
:10A61000410606BF1046194652EA430619D094EA8D
:10A620000C0F02D150EA013613D195EA0C0F05D177
:10A6300052EA03361CBF104619460AD181EA0301CB
:10A6400001F0004141F0FE4141F470014FF0000083
:10A6500070BD41F0FE4141F4780170BD70B54FF01E
:10A66000FF0C4CF4E06C1CEA11541DBF1CEA13559E
:10A6700094EA0C0F95EA0C0F00F0A7F8A4EB050480
:10A6800081EA030E52EA03354FEA013100F0888077
:10A690004FEA03334FF0805545EA131343EA126340
:10A6A0004FEA022245EA111545EA10654FEA0026F5
:10A6B0000EF000419D4208BF964244F1FD0404F5AE
:10A6C000407402D25B084FEA3202B61A65EB03050A
:10A6D0005B084FEA32024FF480104FF4002CB6EBC7
:10A6E000020E75EB030E22BFB61A754640EA0C0047
:10A6F0005B084FEA3202B6EB020E75EB030E22BF87
:10A70000B61A754640EA5C005B084FEA3202B6EBC7
:10A71000020E75EB030E22BFB61A754640EA9C0086
:10A720005B084FEA3202B6EB020E75EB030E22BF56
:10A73000B61A754640EADC0055EA060E18D04FEA14
:10A74000051545EA16754FEA06164FEAC30343EAB4
:10A7500052734FEAC2025FEA1C1CC0D111F4801F81
:10A760000BD141EA00014FF000004FF0004CB6E77A
:10A7700011F4801F04BF01430020B4F1FD0C88BF19
:10A78000BCF5E06F3FF6AFAEB5EB030C04BFB6EB24
:10A79000020C5FEA500C50F1000041EB045170BD17
:10A7A0000EF0004E4EEA113114EB5C04C2BFD4EB44
:10A7B0000C0541EA045170BD41F480114FF0000EC8
:10A7C000013C90E645EA060E8DE60CEA135594EA44
:10A7D0000C0F08BF95EA0C0F3FF43BAF94EA0C0F47
:10A7E0000AD150EA01347FF434AF95EA0C0F7FF4BC
:10A7F00025AF104619462CE795EA0C0F06D152EA10
:10A8000003353FF4FDAE1046194622E750EA4106F3
:10A8100018BF52EA43067FF4C5AE50EA41047FF404
:10A820000DAF52EA43057FF4EBAE12E74FEA410267
:10A83000B2F1E04324BFB3F5001CDCF1FE5C0DD99E
:10A8400001F0004C4FEAC0024CEA5070B2F1004FE8
:10A8500040EB830008BF20F00100704711F0804FEB
:10A8600021D113F13872BCBF01F00040704741F4B0
:10A8700080114FEA5252C2F11802C2F1200C10FAB4
:10A880000CF320FA02F018BF40F001004FEAC12398
:10A890004FEAD32303FA0CFC40EA0C0023FA02F33C
:10A8A0004FEA4303CCE77FEA625307D150EA013312
:10A8B0001EBF4FF0FE4040F44000704701F00040E2
:10A8C00040F0FE4040F40000704700BF10F8012B3C
:10A8D00011F8013B012A28BF9A42F7D0D01A7047DD
:10A8E000034613F8012B002AFBD1181A01387047D0
:10A8F00070B503F063FD0025054E064CA41BA408AB
:10A90000AC4200D170BD56F8043B98470135F7E7DB
:10A91000D8FF3F02FCFF3F0200F094BA08B500F0F8
:10A920002BF9BDE8084003F001BD01F021BB01F0A7
:10A930001FBB01F02BBB00000C2008B5024A0349E5
:10A9400001F080F9FEE700BF31C73F0240FA3F0245
:10A950000078B0FA80F04009704701230370704717
:10A96000704700000122024B00201A70704700BFA0
:10A9700034AE071008B503F064FB0122024B1880C7
:10A98000024B00201A7008BD3CAE0710D4AD071072
:10A9900010B50446094B036002F072FB214602F039
:10A9A000A9FD03F033FC03F023FC2046044B40F8E0
:10A9B000043B02F03BFC204610BD00BFC0FB3F0241
:10A9C000A8FB3F0210B50446FFF7E2FF2046242112
:10A9D000FFF7AFFF204610BD0EB44FF0200C002350
:10A9E00000B58CB00DAA52F8041BCDE904C3CDE923
:10A9F00000120392016804AA1E2001F031F90CB084
:10AA00005DF804EB03B0704730B585B001A800F0E5
:10AA10004EFB0123ADF8043013231B4C1B4D01A941
:10AA200020468DF8063000F04BFB642001F01EFB41
:10AA300017492846FFF7D0FF204600F08DFB642021
:10AA400001F014FB13492846FFF7C6FF204600F02B
:10AA5000A9FB642001F00AFB0F492846FFF7BCFF61
:10AA6000204600F076FC642001F000FB0B492846EC
:10AA7000FFF7B2FF204600F080FC4FF47A7001F03F
:10AA8000F5FA05B030BD00BFBCA9071068AE0710CD
:10AA900055FA3F0269FA3F0272FA3F0285FA3F0215
:10AAA00030B52D4B8BB000214FF48062184603F077
:10AAB0005EFE002440F2FF33284A079005A8CDE946
:10AAC00008348DF81840059202F08FF806222449C8
:10AAD00005A802F02DF9234B05461868FFF73CFC4A
:10AAE00041EC100B284602F0B1F80B221E4905A8D4
:10AAF00002F01EF91D4B05461868FFF72DFC41ECCE
:10AB0000100B284602F0A2F805A802F058F8DDE97B
:10AB10000823934228BF1346079A1549D454154B6E
:10AB2000079A1B7803A88DF800303C2301F058FCED
:10AB3000049C7CB16368013B63605BB92368204679
:10AB40009B689847A368013BA3601BB92368204614
:10AB5000DB6898470BB030BDD4A907107CFC3F02DE
:10AB600093FA3F02D0A907109AFA3F0238AE0710B5
:10AB7000A6FA3F02B8A9071010B500F017FE4D4C19
:10AB80002368C01A41F28733984216D900F00EFEAE
:10AB900049492060494800F0BFFC494B10EE100ABB
:10ABA00083ED000AFFF7D8FB02460B4645484649AD
:10ABB000FFF712FF454B464A1A6000F0F7FD454C7F
:10ABC0002368C01A444B984207D900F0EFFD20607B
:10ABD00001F0FCF808B1FFF763FF404B1A78C2B1EF
:10ABE00000243F4937481C70FFF7F6FE32493348CE
:10ABF00000F0EEFB4FF4FA7001F038FA39493148B1
:10AC0000FFF7EAFE03F05CFC042220462A4900F02C
:10AC1000F7FD354B1A78002A4AD00022334C3449CC
:10AC200028481A70FFF7D8FE234A2188234800F0ED
:10AC3000FDFB012838D12F492248FFF7CDFE03F054
:10AC40003FFC022221460A2000F0DAFD2388642B13
:10AC500008D103F035FC042227491420BDE8104038
:10AC600000F0CEBDB3F5FA7F04D103F029FC042235
:10AC70002249F2E7B3F57A7F04D103F021FC0422E4
:10AC80001F49EAE741F28832934204D103F018FCED
:10AC900004221C49E1E742F21072934208D103F00A
:10ACA0000FFC04221849D8E718490648FFF794FE1C
:10ACB00010BD00BF0CAE0710D8AD0710BCA907101F
:10ACC000D0A9071068AE0710B4FA3F0238AE0710DB
:10ACD0006666864008AE07103F7E050034AE07105A
:10ACE000C1FA3F02D3FA3F02D4AD07103CAE0710C1
:10ACF000E4FA3F02F6FA3F02E0AD0710E8AD0710B4
:10AD0000F0AD0710F8AD071000AE07100BFB3F02C7
:10AD100000B52DED028B85B003F0D2FB042200209C
:10AD200002A900F05FFD9FED3E8ADDED027AF4EEB0
:10AD3000487AF1EE10FA36D13A493B48FFF74CFE1B
:10AD400001223A4B1A7003F0BBFB02220A200DF1DC
:10AD5000060100F047FD4FF6FF73BDF806209A424A
:10AD600007D133493048FFF737FE4FF47A72314B41
:10AD70001A8003F0A5FB0422142003A900F032FD81
:10AD8000DDED037AF4EE487AF1EE10FA11D12A499A
:10AD90002548FFF721FE0122284B1A7005B0BDECB3
:10ADA000028B5DF804FB0122254BC3ED007A1A717A
:10ADB000C9E7BDF80620224BB2F57A7F24D00BD824
:10ADC000642A17D0B2F5FA7F19D000221A731A75C7
:10ADD0001A7783F824200AE041F288318A4218D099
:10ADE00042F210718A42F0D1C3ED0A7A012283F84F
:10ADF0002C20D3E70122C3ED027A1A73CEE7012299
:10AE0000C3ED047A1A75C9E70122C3ED067A1A77F1
:10AE1000C4E70122C3ED087A83F82420BEE700BF0F
:10AE20000000804F1DFB3F0268AE071034AE0710D4
:10AE300041FB3F023CAE071056FB3F02D4AD07106A
:10AE4000D8AD071038B5002000F0E8FC42F21075CC
:10AE50000446002000F0E2FC001B61F10001A84262
:10AE600071F1000307D203F0D1F903F0C4F910B96E
:10AE700000F090FFEDE703F0C9F903F0BCF94FF4DF
:10AE80007A7001F0F3F8FFF7BFFDFFF741FF074AC3
:10AE90000749084801F0B1F9074A0849054801F097
:10AEA000ACF9BDE8384000F083BF00BF8CFB3F0227
:10AEB00005B93F026FD13F0291FB3F0215B93F0236
:10AEC00070B51426D0E90053044606FB0356AE4283
:10AED00004D0284603F014F81435F8E7206801F090
:10AEE00055F8204670BD2DE9F843B1F1000807463A
:10AEF00038DD4FF0140909FB08F001F039F8054678
:10AF0000C0B3D7E90046844209FB064615D2864203
:10AF100014D9143EA4F11409341B0444B14522D0C1
:10AF20002CB13146204603F067F8337C2374304659
:10AF300002F0E6FF143E143CF0E714D0A946A64206
:10AF400011D0B9F1000F06D02146484603F054F85D
:10AF5000237C89F81030204602F0D2FF143409F126
:10AF60001409ECE70025386801F010F801203D6075
:10AF7000C7F80880BDE8F88300232DE9F041C0E957
:10AF8000003383600D4649680446994217DDFFF798
:10AF9000AAFFA0B1D5E900634FF0140808FB0368CD
:10AFA0002768B04509D02FB13146384603F03EF846
:10AFB000337C3B7414361437F3E76B6863602046C8
:10AFC000BDE8F08130B500242F4B93B0214601201D
:10AFD0001C7000F08BFE2D4B2D4A0220C3E900446B
:10AFE0009A6000F067FE2B490DA802F0D4FF012102
:10AFF00001A8CDE901448DF844100394FFF773FFD5
:10B0000050B1019C34B120460DA903F00FF89DF812
:10B01000443023740123029303F0F8F8054601A994
:10B0200004A8FFF7A9FF04A907A8FFF7A5FF1A4C7A
:10B030001A4B07A923600AA8FFF79EFF0AAA282136
:10B04000201D02F039FB0AA8FFF73AFF07A8FFF717
:10B0500037FF134B2562236004A8FFF731FF114B24
:10B06000236003F0D3F84FF4165103F0BDF802F05B
:10B0700007F8214602F0F8F901A8FFF721FF0DA813
:10B0800002F03EFF13B030BDB8A90710ACA90710FD
:10B090000000FFFF9BFB3F0210AE0710A8FB3F0222
:10B0A00018FD3F02C0FB3F02012000F0DFBF4FF65A
:10B0B000FF7303808370002343602A230372704769
:10B0C0007FB50C46054601A800F090FA63682E1D76
:10B0D0000293237830468DF80630637801A98DF805
:10B0E0000530237A2B7400F093FA01300ED0297CBE
:10B0F000304600F0ABFA6168304600F099FA284615
:10B10000A17800F067FA002004B070BDFF20FBE7D3
:10B1100010B5C0B08DF800100121994207D854181D
:10B1200014F8014C0DF801400131C9B2F5E7694648
:10B130005A1C043000F090FA40B010BD1FB5043026
:10B140008DF80F1000930DF10F011346012200F04E
:10B15000A1FA05B05DF804FB13B504460DF1070232
:10B1600001230021FFF7EAFF9DF80730204643F056
:10B1700001030DF1070200218DF807300123FFF7CD
:10B18000C7FFFFF791FF9DF80730002123F001036F
:10B190008DF80730204601230DF10702FFF7B8FFB5
:10B1A00002B010BD13B504460DF1070201230021C2
:10B1B000FFF7C4FF9DF80730204643F006030DF16A
:10B1C000070200218DF807300123FFF7A1FFFFF7E9
:10B1D0006BFF2046012300210DF10702FFF7AEFFB0
:10B1E0009DF80700C0F3C00002B010BD012313B5E5
:10B1F00019460DF107020446FFF7A0FF9DF807303E
:10B20000204623F0380343F020038DF80730012354
:10B210000DF107021946FFF77BFF20460DF10702EB
:10B2200001230021FFF78AFF9DF80730002163F01A
:10B230007F038DF80730204601230DF10702FFF749
:10B2400067FF02B010BD012337B50D460DF10702AF
:10B2500019460446FFF772FF9DF80730102D03F0E2
:10B26000F80323D010D8042D1AD0082D1BD0022D9E
:10B2700013D08DF807300123204619460DF107023F
:10B28000FFF746FF03B030BD402D12D0802D13D004
:10B29000202DEED143F00503EBE743F00103E8E78F
:10B2A00043F00203E5E743F00303E2E743F004035E
:10B2B000DFE743F00603DCE743F00703D9E737B5E0
:10B2C0000C46012302210DF107020546FFF736FF68
:10B2D0009DF80730282C03F08F0310D0502C11D08C
:10B2E000142C08BF43F010038DF80730022101230E
:10B2F00028460DF10702FFF70BFF03B030BD43F006
:10B300002003F1E743F03003EEE7302307B51521C2
:10B310008DF807300DF107020123FFF7F9FE03B0A6
:10B320005DF804FB13B504460DF1070201231C214F
:10B33000FFF704FF9DF807301C2163F07F038DF8B1
:10B340000730204601230DF10702FFF7E1FE02B0AE
:10B3500010BD10B50446FFF749FF20468021FFF7D6
:10B3600072FF20465021FFF7AAFF2046FFF7CDFFCE
:10B370002046BDE81040FFF7D5BF13B504460DF1D8
:10B38000070201230221FFF7D9FE9DF807300221B1
:10B3900023F0040343F004038DF807302046012313
:10B3A0000DF10702FFF7B4FE02B010BD07B503238D
:10B3B000122101AAFFF7C2FEBDF804309DF8060075
:10B3C0005BBA9BB240EA032003B05DF804FB0000C7
:10B3D000F8B507460E4605243846013CFFF7E6FF60
:10B3E000FFF762FE14F0FF04F6D164253846FFF73C
:10B3F000DDFF013D0444FFF757FE15F0FF05F5D1D1
:10B4000007EE904ADFED086AF8EE677A012387EECF
:10B41000A67A337186ED007A35733575357786F8FF
:10B42000245086F82C50F8BD0000C8422DE9F041A8
:10B4300080462DED028B0E46154692ED008A1424AF
:10B4400000274046FFF7B2FF013C0744FFF72CFE00
:10B4500014F0FF04F5D107EE907AF3EE046AB8EE2B
:10B46000677AC7EE267AB6F57A7F77EEC87A36D055
:10B470000DD8642E1DD0B6F5FA7F27D000232B738C
:10B480002B752B7785F8243085F82C3019E041F2A4
:10B4900088339E422CD042F210739E42EED1DFEDF3
:10B4A000196A012486EEA77A85F82C4085ED0A7A80
:10B4B00007E0DFED156A86EEA77A012485ED027AB2
:10B4C0002C732046BDEC028BBDE8F081DFED0F6AE6
:10B4D000012486EEA77A2C7585ED047AF1E7DFED7D
:10B4E0000C6A012486EEA77A2C7785ED067AE8E7C8
:10B4F000DFED086A012486EEA77A85F8244085ED01
:10B50000087ADEE700401C460000C8420000FA430B
:10B5100000007A4400409C45F8B52DED028B0746AB
:10B520000C4691ED008A142600253846FFF73EFFB1
:10B53000013E0544FFF7B8FD16F0FF06F5D107EE12
:10B54000905AB3EE047AF8EE677A87EE870A237B87
:10B5500030EE480A012B0DD1D4ED027A20EE270AF5
:10B56000BDEC028BB5EEC00AF1EE10FA48BF9FEDBC
:10B57000180AF8BD237D012B02D1D4ED047AEDE742
:10B58000237F012B02D1D4ED067AE7E794F824302B
:10B59000012B02D1D4ED087AE0E794F82C30012B8E
:10B5A00002D1D4ED0A7AD9E710EE100AFEF7D4FEE4
:10B5B00005A3D3E90023FEF727FFFFF737F900EED5
:10B5C000100ACDE7AFF3008015376A61A5A7B63F33
:10B5D0000000000010B50C4621B9007802F05EFFB3
:10B5E000204610BD4FF0FF30FBE7000010B50024EF
:10B5F000054B1C70054B1C6002F094FF2146BDE812
:10B60000104001F0DFB800BF3EAE071040AE07109B
:10B6100008B502F087FF054B196801F0D3F802F076
:10B6200081FF01F0D3F8002008BD00BF40AE071035
:10B6300010B50C46044B196002F074FF214601F06E
:10B64000C1F8002010BD00BF40AE0710014B002024
:10B65000197070473EAE071013B50C46019202F008
:10B6600061FF0B4B197801F0E0F802F05BFF036813
:10B670002146DB68019A984702F054FF012101F04E
:10B68000D8F8013818BF4FF0FF3002B010BD00BF2E
:10B690003EAE07102DE9F341194E0C461D460192AE
:10B6A000DDF8208002F03EFF317801F0BEF802F0B4
:10B6B00039FF0368019ADB682146984702F032FFA0
:10B6C000002101F0B6F802F02DFF31780123424647
:10B6D00001F099F80026C4B2F7B2B84506F10106A8
:10B6E00006D902F01FFF03685B699847E855F3E746
:10B6F000B4FA84F04009404202B0BDE8F08100BFD6
:10B700003EAE071009B504480068044B03441B68AB
:10B710005B6C029309BD000034A9071030000000E3
:10B7200009B504480068044B03441B689B6C0293F2
:10B7300009BD000034A907103000000009B5044815
:10B740000068044B03441B68DB6C029309BD0000D6
:10B7500034A907103000000009B504480068044B04
:10B7600003441B685B6D029309BD000034A90710F8
:10B770003000000009B504480068044B03441B680E
:10B780005B68029309BD000034A9071000000000A7
:10B7900009B504480068044B03441B68DB68029346
:10B7A00009BD000034A907100000000009B50448D5
:10B7B0000068044B03441B685B69029309BD0000E9
:10B7C00034A907100000000009B504480068044BC4
:10B7D00003441B689B6A029309BD000034A907104B
:10B7E0000000000009B504480068044B03441B68CE
:10B7F0005B6C029309BD000034A907100000000033
:10B8000009B504480068044B03441B689B6C029311
:10B8100009BD000034A907100000000009B5044864
:10B820000068044B03441B68DB6D029309BD0000F4
:10B8300034A907100000000009B504480068044B53
:10B8400003441B689B68029309BD000034A90710DC
:10B850001400000009B504480068044B03441B6849
:10B860001B68029309BD000034A9071010000000F6
:10B8700009B504480068044B03441B68DB68029365
:10B8800009BD000034A907101000000009B50448E4
:10B890000068044B03441B689B69029309BD0000C8
:10B8A00034A907101000000009B504480068044BD3
:10B8B00003441B68DB69029309BD000034A907102B
:10B8C0001000000009B504480068044B03441B68DD
:10B8D0001B6A029309BD000034A907101000000084
:10B8E00009B504480068044B03441B685B6A029373
:10B8F00009BD000034A907101000000009B5044874
:10B900000068044B03441B689B6A029309BD000056
:10B9100034A907101000000009B504480068044B62
:10B9200003441B68DB6A029309BD000034A90710B9
:10B930001000000009B504480068044B03441B686C
:10B940001B6B029309BD000034A907101000000012
:10B9500009B504480068044B03441B685B6B029301
:10B9600009BD000034A907101000000009B5044803
:10B970000068044B03441B681B6C029309BD000064
:10B9800034A907101000000009B504480068044BF2
:10B9900003441B681B6D029309BD000034A9071006
:10B9A0001000000009B504480068044B03441B68FC
:10B9B0005B69029309BD000034A907104C00000028
:10B9C00009B504480068044B03441B689B68029354
:10B9D00009BD000034A907105000000009B5044853
:10B9E0000068044B03441B68DB68029309BD000038
:10B9F00034A907105000000009B504480068044B42
:10BA000003441B68DB69029309BD000034A90710D9
:10BA10001800000009B504480068044B03441B6883
:10BA20001B6A029309BD000034A90710180000002A
:10BA300009B504480068044B03441B689B680293E3
:10BA400009BD000034A907102400000009B504480E
:10BA50000068044B03441B68DB68029309BD0000C7
:10BA600034A907102400000009B504480068044BFD
:10BA700003441B681B69029309BD000034A9071029
:10BA80002400000009B504480068044B03441B6807
:10BA90005B69029309BD000034A90710240000006F
:10BAA00009B504480068044B03441B689B69029372
:10BAB00009BD000034A907102400000009B504489E
:10BAC0000068044B03441B68DB69029309BD000056
:10BAD00034A907102400000009B504480068044B8D
:10BAE00003441B681B6A029309BD000034A90710B8
:10BAF0002400000009B504480068044B03441B6897
:10BB00009B6A029309BD000034A9071024000000BD
:10BB100009B504480068044B03441B68DB6A0293C0
:10BB200009BD000034A907102400000009B504482D
:10BB30000068044B03441B681B6C029309BD0000A2
:10BB400034A907102400000009B504480068044B1C
:10BB500003441B681B68029309BD000034A9071049
:10BB60003400000009B504480068044B03441B6816
:10BB70005B68029309BD000034A90710340000007F
:10BB800009B504480068044B03441B689B68029392
:10BB900009BD000034A907103400000009B50448AD
:10BBA0000068044B03441B681B69029309BD000035
:10BBB00034A907103400000009B504480068044B9C
:10BBC00003441B685B69029309BD000034A9071098
:10BBD0003400000009B504480068044B03441B68A6
:10BBE0009B69029309BD000034A9071034000000CE
:10BBF00009B504480068044B03441B68DB690293E1
:10BC000009BD000034A907103400000009B504483C
:10BC10000068044B03441B681B6A029309BD0000C3
:10BC200034A907103400000009B504480068044B2B
:10BC300003441B689B6A029309BD000034A90710E6
:10BC40003400000009B504480068044B03441B6835
:10BC50005B6B029309BD000034A907104800000087
:10BC600009B504480068044B03441B685B6D0293EC
:10BC700009BD000034A907104800000009B50448B8
:10BC80000068044B03441B68DB6E029309BD00008F
:10BC900034A907104800000009B504480068044BA7
:10BCA00003441B681B6F029309BD000034A90710F1
:10BCB0004800000009B504480068044B03441B68B1
:10BCC0005B68029309BD000034A90710080000005A
:10BCD00009B504480068044B03441B685B69029380
:10BCE00009BD000034A907100800000009B5044888
:10BCF0000068044B03441B68DB6A029309BD000023
:10BD000034A907100800000009B504480068044B76
:10BD100003441B68DB6C029309BD000034A90710C3
:10BD20000800000009B504480068044B03441B6880
:10BD30005B6D029309BD000034A9071008000000E4
:10BD400009B504480068044B03441B68D3F88830E5
:10BD5000029309BD34A907100800000009B5044882
:10BD60000068044B03441B68D3F89430029309BD68
:10BD700034A907100800000009B504480068044B06
:10BD800003441B685B68029309BD000034A90710D7
:10BD90002C00000009B504480068044B03441B68EC
:10BDA0009B68029309BD000034A907102C00000015
:10BDB00009B504480068044B03441B68DB68029320
:10BDC00009BD000034A907102C00000009B5044883
:10BDD0000068044B03441B685B69029309BD0000C3
:10BDE00034A907102C00000009B504480068044B72
:10BDF00003441B681B6A029309BD000034A90710A5
:10BE00002C00000009B504480068044B03441B687B
:10BE1000DB6B029309BD000034A907102C00000061
:10BE200009B504480068044B03441B685B6802932F
:10BE300009BD000034A907102800000009B5044816
:10BE40000068044B03441B689B68029309BD000013
:10BE500034A907102800000009B504480068044B05
:10BE600003441B68DB68029309BD000034A9071076
:10BE70002800000009B504480068044B03441B680F
:10BE80001B69029309BD000034A9071028000000B7
:10BE900009B504480068044B03441B685B690293BE
:10BEA00009BD000034A907102800000009B50448A6
:10BEB0000068044B03441B689B69029309BD0000A2
:10BEC00034A907102800000009B504480068044B95
:10BED00003441B68DB69029309BD000034A9071005
:10BEE0002800000009B504480068044B03441B689F
:10BEF0001B6A029309BD000034A907102800000046
:10BF000009B504480068044B03441B681B6B02938B
:10BF100009BD000034A907102800000009B5044835
:10BF20000068044B03441B685B6B029309BD00006F
:10BF300034A907102800000009B504480068044B24
:10BF400003441B681B6C029309BD000034A9071051
:10BF50002800000009B504480068044B03441B682E
:10BF60005B6C029309BD000034A907102800000093
:10BF700009B504480068044B03441B681B6802931E
:10BF800009BD000034A907100400000009B50448E9
:10BF90000068044B03441B685B68029309BD000002
:10BFA00034A907100400000009B504480068044BD8
:10BFB00003441B689B68029309BD000034A9071065
:10BFC0000400000009B504480068044B03441B68E2
:10BFD0005B6A029309BD000034A907100400000049
:10BFE00009B504480068044B03441B68DB6A0293EC
:10BFF00009BD000034A907100400000009B5044879
:10C000000068044B03441B681B6B029309BD0000CE
:10C0100034A907100400000009B504480068044B67
:10C0200003441B68DB6B029309BD000034A90710B1
:10C030000400000009B504480068044B03441B6871
:10C040001B6C029309BD000034A907100400000016
:10C0500009B504480068044B03441B685B6C0293F9
:10C0600009BD000034A90710040000000021FFF7FB
:10C070002FBE10B5836804460BB902F03BFBC368C2
:10C080009847A3681BB103222146204698472046C3
:10C09000BDE810401021FEF74CBC10B58368044683
:10C0A00013B1032201469847204610BD10B54368DE
:10C0B0000446013B436063B903689B689847A368E3
:10C0C000013BA3602BB923682046BDE81040DB6824
:10C0D000184710BD70B50446D0E9005305EB0316B0
:10C0E000AE4204D0284601F00BFF1035F8E7206877
:10C0F000FFF74CFF204670BD10B50446006808B13C
:10C10000FFF7D4FF204610BD13B56C460B46024620
:10C11000D0E9000184E8030093E8030082E803000B
:10C1200094E8030083E8030002B010BD0023024836
:10C130000360FFF7E7BA00BF50AE0710704700205A
:10C14000704710B504461021FEF7F3FB204610BDE2
:10C1500008B5FFF7F6FF08BD002230B54FF69C7416
:10C16000026084808D888C800C68858004600A6001
:10C1700030BD10B504460068FFF708FF204610BD2B
:10C1800038B5C46814B32378DBB2022B03D104F1B1
:10C190000C00FFF7EEFF231D1D6835B12846FFF7A1
:10C1A0007CFF10212846FEF7C4FB04F108031D683C
:10C1B00035B12846FFF771FF10212846FEF7B9FB7D
:10C1C0002046BDE838401421FEF7B3BB38BD10B59A
:10C1D00088B00446684601F0DEFE694604A801F016
:10C1E00025FF04A8A047044604A801F089FE68467C
:10C1F00001F086FE204608B010BD1FB500231024B4
:10C20000CDE90201019269461A461846ADF802309E
:10C21000ADF80040FFF7B0FD04B010BD0B6803603F
:10C220004B68436013B15A6801325A60704737B5A2
:10C23000044668460D46FFF7F1FF009B019A236014
:10C240000023626001A801930093FFF755FF35B109
:10C25000281DFFF751FF08212846FEF76AFB2046FC
:10C2600003B030BD826810B50AB902F043FAC36862
:10C27000BDE81040184708B5006800F11001FFF74D
:10C28000F1FF08BD826810B50AB902F033FAC3683D
:10C29000BDE81040184708B5006800F11001FFF72D
:10C2A000F1FF08BD38B500230446036010200D4699
:10C2B000FEF73BFB28B10123C0E90133024BC56007
:10C2C00003602060204638BDD8FB3F0238B500230C
:10C2D00083608B6804460D462BB102229847EB68B9
:10C2E000E360AB68A360204638BD0000F0B589B0BC
:10C2F00004686846FFF730FF4FF00203D4E84F2F81
:10C30000002A03D1C4E8413F0029F7D121D104F12B
:10C310000C0569462846FFF71FFF0122631CC3E88E
:10C320008F2F002004F10803D3E8EF6FC3E8E20F7A
:10C33000002AF9D16EB1FFF7E7FC78B12946304603
:10C34000FFF790FF3046FFF7A8FE10213046FEF7BA
:10C35000F0FA6846FFF70DFF09B0F0BD314602A8BC
:10C36000FFF7B4FFE068B4F9105008B102F056FAD4
:10C3700006901020ADF81C50FEF7D7FA0546E8B13C
:10C38000002787601820FEF7D0FA044688B10146DE
:10C39000876002A8FFF7B8FE049BA268A360059B14
:10C3A0000492E26806A9E36004F110000592FFF729
:10C3B000D3FE084B2C60EB60074BAB6006A8FFF781
:10C3C000D8FE02A8FFF769FE002229460348FFF7BE
:10C3D000A9FCB7E717D23F0291D43F0213D03F0226
:10C3E0002DE9F04F8BB005460F46904699469DF8D3
:10C3F00050A0FFF7EBFC07AE834638BB4FF62E7319
:10C40000059005A93046ADF81830FFF7A5FE1420B9
:10C41000FEF78BFA044648B1022303700123C0E9FA
:10C4200001BB437031460C30FFF796FE284621468B
:10C4300040F8044BFFF736FF3046FFF79AFE05A899
:10C44000FFF797FE28460BB0BDE8F08F0C230024C1
:10C450001420CDE908440793FEF767FA014618B1A6
:10C46000C0E901440470447004A80391FFF71AFF67
:10C470001E4B08200893FEF758FA044610B103A992
:10C48000FFF7CCFE4A464146384600965FFA8AF3EB
:10C490000994FFF7A9FCB8B9039B01331B78DBB201
:10C4A00093B905934FF69C7305A903A8ADF818300E
:10C4B000FFF71CFF05A8FFF75CFE05A80999FFF729
:10C4C000B6FE06A8FFF718FE03A905A8FFF7A6FE0B
:10C4D000059B069A2B6000236A6006A806930593C5
:10C4E000FFF70AFE04A8FFF707FEABE70DD53F02F2
:10C4F000012AF8B5054603D10B6803600020F8BD9A
:10C50000022A10D0032AF9D10468002CF6D004F1D5
:10C510001000FFF72EFE2046FFF7BFFD1821204632
:10C52000FEF707FAEAE718200E68FEF7FEF9044660
:10C5300050B13146FFF7CAFE3069B6F9147008B140
:10C5400002F06CF92061A7822C60D7E738B5002390
:10C5500083608B6804460D462BB102229847EB6836
:10C56000E360AB68A360204638BD0000F0B5044628
:10C5700089B00D4601A81146FFF759FEA4B124B2B7
:10C580001DB1284602F04AF9054601A803A9039502
:10C59000ADF81040FFF7AAFE03A8FFF7EAFD02A8D6
:10C5A000FFF7AAFD09B0F0BD0123019DD5E84F2F8B
:10C5B000002A03D1C5E8413F0029F7D1EFD12B7301
:10C5C0000122EB18C3E88F2F2B1DD3E8EF6FC3E8D0
:10C5D000E24F002AF9D1002EE1D02046FFF794FB6C
:10C5E000074660B1304605F10C01FFF74BFE3046BF
:10C5F000FFF753FD10213046FEF79BF9CFE7314698
:10C6000003A8FFF7A3FF2B7B10208DF81C30FEF74B
:10C610008CF90546D0B187601420FEF786F90446F0
:10C6200078B10146876003A8FFF76EFD059BA268FD
:10C63000A360069B0592E268E3609DF81C300692B9
:10C640002374074B2C60EB60064BAB6003A8FFF72D
:10C6500024FD002229460448FFF764FBC7E700BF1A
:10C6600037D23F020DD63F0213D03F02012A70B5E8
:10C67000044603D10B680360002070BD022A0CD071
:10C68000032AF9D10468002CF6D02046FFF705FDF7
:10C6900014212046FEF74DF9EEE714200E68FEF750
:10C6A00044F9054620B13146FFF750FF337C2B7427
:10C6B0002560E1E7002240681146FFF713BC002225
:10C6C00040681146FFF72ABC00224068FFF718BCFB
:10C6D0000022406881F00101FFF7F6BB00234068AB
:10C6E0001A461946FFF7E2BB002340681A4619466E
:10C6F000FFF7CEBB002240681146FFF7BBBB00220C
:10C7000040681146FFF79ABB002202214068FFF7FC
:10C71000A3BB002340681A46FFF782BB0322024BEB
:10C720005A60024A1A60704754AE0710F4FB3F0289
:10C730007047F8B5064615460C468F18BC4206D021
:10C74000336830469B6814F8011B9847F6E7284683
:10C75000F8BD0022007CFFF7B5B80021007CFFF790
:10C76000BFB80021007CFFF7C9B80021007CFFF7AB
:10C77000D3B80021007CFFF7DDB810B504461421C2
:10C78000FEF7D7F8204610BD38B5044615464FF4DD
:10C790007A730022C4E90123094B084621742360FF
:10C7A0002946FFF7E3F8BF3008D16B69DB0705D5F1
:10C7B0006868FFF7EBFBE868FFF7E8FB204638BD49
:10C7C00030FC3F020022007CFFF744B80023007CCD
:10C7D0001A461946FFF74CB87FB500221423CDE95D
:10C7E0000122ADF804300B78007C8DF808304B68DE
:10C7F0000393CB6804930B7A01A90593FFF7C4F860
:10C8000007B05DF804FB1FB5003B8DF800104FF03A
:10C81000640118BF01230391694601928DF8083025
:10C82000FFF7DAFF05B05DF804FB0022007CFFF79C
:10C830002DB80022007CFFF737B8704710B50446CA
:10C840001821FEF776F8204610BDF0B5037D0E46A0
:10C85000062B4FF000048DB000F1040712D000F158
:10C86000080515F8011D0A22304601F01AFBAF42F7
:10C87000044419D0002CF4D02E21304601F00EFBD8
:10C880000444EEE72F236A4639460A208DF800401B
:10C89000FFF788F86846FEF723F8336802466946D2
:10C8A0003046DB689847044620460DB0F0BD0000D6
:10C8B00010B50446044B1122002140F8043B01F05E
:10C8C00056FF204610BD00BF58FC3F020346074AF2
:10C8D00010B543F8042B01F1100251F8044B9142BA
:10C8E00043F8044BF9D10A781A7010BD58FC3F0286
:10C8F00010B59DF8084044EA032343EA02420423AA
:10C9000042EA01614160037510BD000007B5064BA6
:10C910000360CB7800938B784A780978FFF7E8FFBB
:10C9200003B05DF804FB00BF58FC3F02012200F198
:10C93000100313F8101C1846012908D153F8041CE1
:10C9400002EB4102013A03F11003F2D170470229D0
:10C9500004BF53F8041C5218F4E7704710B504469E
:10C960001421FDF7E6FF204610BD38B51546D0E985
:10C9700003239342044607D2D21A8068AA4228BFF2
:10C980002A46184401F0CCFE22692A44226138BDAF
:10C990000EB417B5044605AB53F8042BE1680193B8
:10C9A000036980688B4234BFC91A00211844019B77
:10C9B000FFF708FB23691844206103B0BDE810406D
:10C9C00003B070470EB4F0B588B0102100AF07F186
:10C9D000340555F8042B04462B4678187A60FD6020
:10C9E000FFF7F0FA0F287A681AD900F1080323F04C
:10C9F00007036E46ADEB030D411C2B466846FD60F8
:10CA0000FFF7E0FA021E04DD2368694620469B68B2
:10CA10009847B5462037BD46BDE8F04003B07047A3
:10CA20000028F7D0236802469B68204607F11001D2
:10CA30009847EFE738B50B68044603604D684368D4
:10CA40009D4208D015B16B6801336B60606808B116
:10CA5000FFF72CFB656038BD07B503688DF807103C
:10CA600001229B680DF10701984703B05DF804FBB4
:10CA70000B461146002210B50446C0E9002283602F
:10CA80000BB9204610BDFFF7D5FFFAE78368EBB17D
:10CA90001A78032A1AD8DFE802F00417021B0520CF
:10CAA000704702685B685268D05C2D2812D0A0F1F4
:10CAB0003003092B0ED974280ED066280CD0A0F1B3
:10CAC0006E03584258417047062070470020704757
:10CAD00004207047032070470220704710B50446B9
:10CAE000FFF7D4FF02280ED0C31EDBB2012B14D8EF
:10CAF0002268A36850685B680A22BDE810400021E4
:10CB0000184401F053BF2268A36852685B68D05C88
:10CB1000A0F174035842584110BD0020FCE700000A
:10CB200038B500230446C0E900330E48C4E90203C7
:10CB3000A9B10B78032B06D08BB9136858684B68E2
:10CB4000C35C6E2B07D013684D6858688B68284407
:10CB50005B1BA060E36011462046FFF76BFF204699
:10CB600038BD00BFE2FC3F0238B500250B46044645
:10CB70001146C0E90055C0E90255C0E904554BB162
:10CB80001A78012A06D103F11002DB688260436142
:10CB9000FFF750FF204638BD10B54369044663B126
:10CBA0008068013BE0601030A0602061636113B1D8
:10CBB000FFF7BCFEA060012000E0184610BD10B5D4
:10CBC0007D210446FFF748FF01232046237110BD55
:10CBD00008B50379012B02D0022B04D008BD2C210B
:10CBE000FFF73AFFFAE73A21FAE710B50446FFF7F4
:10CBF000EFFF20467B21FFF72FFF00232046237104
:10CC000010BD000013B504460191FFF7E1FF236852
:10CC10002046DB68019A0349984701232046237187
:10CC200002B010BD64FC3F0213B504460191FFF74A
:10CC3000CFFF23682046DB68019A03499847012308
:10CC40002046237102B010BD67FC3F02F8B50446D0
:10CC500057EC106BFFF7BCFF23682046DD683246B7
:10CC60003B460349A847012320462371F8BD00BF76
:10CC70006AFC3F022DE9F0470D469046222104460A
:10CC80002F46FFF7E9FEDFF8A490A8444745BA46CF
:10CC90003DD017F8016B222E06D05C2E04D0304612
:10CCA00001F036FD0028F1D12368294620469B6813
:10CCB000AAEB050298475C212046FFF7CDFE0D2E1A
:10CCC0000AD8072E1CD9A6F10803052B18D8DFE8CF
:10CCD00003F00D0F11171315222E01D05C2E0FD16A
:10CCE00031462046FFF7B8FE3D46CFE76221F8E720
:10CCF0007421F6E76E21F4E76621F2E77221F0E78E
:10CD00002368324649462046DB689847ECE7BD4237
:10CD100005D02368294620469B687A1B9847222124
:10CD20002046FFF799FEBDE8F08700BF6DFC3F028B
:10CD300013B50446CDE90021FFF74AFFDDE90021E4
:10CD40002046FFF797FF02232046237102B010BD53
:10CD500013B50446CDE90021FFF73AFFDDE90021D4
:10CD60002046FFF787FF01232046237102B010BD44
:10CD700080680368DB6818477047084611B10B6884
:10CD80005B6818477047704770477047704738B501
:10CD900004460D4600682E2101F02DFD2368C31ABC
:10CDA0002B6023B1037803B101302368206018465B
:10CDB00038BD10B504460C21FDF7BBFD204610BD63
:10CDC00010B504460421FDF7B4FD204610BD10B592
:10CDD00004460421FDF7ADFD204610BDFEF7AEBCB4
:10CDE00008B5FDF773FDB0FA80F0400908BD704743
:10CDF00010B50C4601F00AFA844205D101F006FA9A
:10CE0000BDE8104001F0F4B901F0E0FB844205D127
:10CE100001F0DCFBBDE8104001F08DB92CB12368B6
:10CE20002046BDE810405B68184710BD0B680360E2
:10CE30004B68436013B15A6801325A60704713B5AA
:10CE4000044608460191FDF74BFD02462046019934
:10CE500002B0BDE81040FFF77BBF13B5044608469B
:10CE60000191FDF73DFD0246204623680199DB68EC
:10CE700002B0BDE81040184707B503688DF80710E9
:10CE80000122DB680DF10701984703B05DF804FB50
:10CE90000A6810B502604A6842600022C0E90222B6
:10CEA00002618C688A608460CC68CA60C4600C6966
:10CEB0000A61046110BD00002DE9F74F4FF0140A1C
:10CEC000D0E90084174645460AFB04F40093174B4B
:10CED000A4105C43002C21DD66100AFB06F005EB74
:10CEE0000009B9F804B03A465F4528BF5A462858A9
:10CEF000019101F0B0FC00284FF0010301990BD122
:10CF00005F4503D1009A13703446E3E7FCD9A61BB2
:10CF100009F11405013EF7E7F9DBF5E7A5EB080594
:10CF20000248AD10684303B0BDE8F08FCDCCCCCC47
:10CF30007FB50369057E019103B3F9B1002600F1C5
:10CF40000C04039603A901A8FFF721FF0146A8B12D
:10CF50000DF10B032046039A8DF80B60FFF7ACFF31
:10CF60009DF80B3053B12368142404FB0034B4F94A
:10CF700006300834002BA8BFDDB2E3E7284604B032
:10CF800070BD0EB4F0B58CB000AF07F1440555F894
:10CF9000042B04462B46202107F110007A60FD6027
:10CFA000FFF710F81F287A681AD900F1080323F058
:10CFB00007036E46ADEB030D411C2B466846FD6032
:10CFC000FFF700F8021E04DD236869462046DB688F
:10CFD0009847B5463037BD46BDE8F04003B07047CE
:10CFE0000028F7D023680246DB68204607F11001CD
:10CFF0009847EFE710B5084CD4E88F3FDB0709D41A
:10D000002046FDF7A5FC28B12046FDF7A6FC034805
:10D0100001F073FB024810BD60AE071027DD3F0230
:10D0200038A9071010B5084CD4E88F3FDB0709D4A6
:10D030002046FDF78DFC28B12046FDF78EFC034805
:10D0400001F05BFB024810BD64AE07108FDD3F02AC
:10D050003CA9071038B500250446C0E90055C0E9D1
:10D0600004558560856140F8245FFEF74BFBFFF7B0
:10D07000C1FFE061FFF7D6FF25732062204638BD6F
:10D0800010B50A4CD4E88F3FDB070CD42046FDF7DF
:10D090005FFC40B10648FFF7DDFF2046FDF75DFC71
:10D0A000044801F02AFB024810BD00BF5CAE071027
:10D0B0006CAE071071E53F020023024A02490348A3
:10D0C000FEF7EABD59E33F02E5E23F0265E23F02B7
:10D0D00000231A4619461846FEF7DEBD37B504464A
:10D0E0008D686846FFF7A2FE6A4629462046FFF78C
:10D0F0003BFD01A8FFF700F8204603B030BD37B56F
:10D100000446CD686846FFF791FE6A4629462046E8
:10D11000FFF706FD01A8FEF7EFFF204603B030BD84
:10D1200037B504460D696846FFF780FE6A46294612
:10D130002046FFF79DFC01A8FEF7DEFF204603B066
:10D1400030BD000070B58AB00D46014604A8FFF757
:10D15000C5FF144E04A8FFF71FFDE8B1684604A9F7
:10D16000FFF7CDFF31460298FFF73AFE044610B1B3
:10D170002C1E18BF012401A8FEF7BEFF002CE9D029
:10D18000684604A9FFF7CCFF6846FFF7A7FC2860B4
:10D1900001A8FEF7B1FFDDE705A8FEF7ADFF0AB075
:10D1A00070BD00BF8CFC3F0237B50C4613492046CA
:10D1B0001546FDF78BFB50B901F028F84FF41651D6
:10D1C00001F012F803B0BDE8304001F01FB820466E
:10D1D0000B49FDF77BFB78B94FF4165301A928469C
:10D1E0000193FFF7AFFF01F0F1F9019900F0A0FF03
:10D1F00001F0ECF903B030BD0020FBE791FC3F02E9
:10D2000098FC3F0270B51426D0E90053044606FB93
:10D210000356AE4205D005F10800FFF7F3FF1435C1
:10D22000F7E72068FEF7B2FE204670BD10B5044651
:10D230000C30FFF7E7FF2046FEF74CFF204610BDFD
:10D2400010B50446034B40F8043BFFF7EFFF2046C0
:10D2500010BD00BFA8FB3F0210B50446FFF7F0FF6A
:10D2600020462421FDF765FB204610BD10B504467D
:10D27000024B0360FFF7E4FF204610BD30FD3F0284
:10D2800010B50446FFF7F2FF20462421FDF751FBBD
:10D29000204610BD0022C0E90022826010B50C6853
:10D2A0000A6004604C684A6044608C688A608460EC
:10D2B00010BD10B5044603681868FEF74DFA204605
:10D2C00010BD00002DE9F04F87B003931C4B804642
:10D2D0005B688946C3F3080316466BB9FFF7D0FEB7
:10D2E000044600F12403406A0593FFF777FD237B92
:10D2F0002BB105A8FFF7DDFF07B0BDE8F08F0123D4
:10D300005FFA89F92373D4E9005305EB830AAA4530
:10D3100012D055F8047B3146381DFFF709FE8145D0
:10D32000F5D3039A3B680092D3F808B04A463346D7
:10D3300041463846D847EAE700232373D9E700BFC0
:10D3400000ED00E02DE9F74F9B461A4B80465B68E5
:10D350008946C3F3080316466BB9FFF791FE0446EE
:10D3600000F12403406A0193FFF738FD237B2BB1C2
:10D3700001A8FFF79EFF03B0BDE8F08F0123F6B2CE
:10D380002373D4E9005305EB830A55450ED055F8B5
:10D39000047B5946381DFFF7CBFD8642F5D33B6829
:10D3A0004A4641463846DB689847EEE70023237338
:10D3B000DEE700BF00ED00E02DE9F341164B054626
:10D3C0005B680F46C3F308031BBBFFF759FE044617
:10D3D00000F12403406A0193FFF700FDD4E90063E4
:10D3E000462406EB8308B04509D101A8FFF761FF89
:10D3F000A542B4BF0020012002B0BDE8F08156F87C
:10D40000040B39460430FFF793FD8442A8BF04465D
:10D41000E9E70020F0E700BF00ED00E0F8B5D0E953
:10D4200001539D4204460E460DDB6F1C002F006821
:10D4300004DDB900FEF7B8FD18B9F8BDFEF7A6FD8A
:10D4400000202060A7602768626807EB85019200D2
:10D45000A2EB8502081D01F070F947F825606368AA
:10D46000012001336360E8E737B5044600F1240387
:10D47000406A01930D46FFF7B1FCD4E9003203EB9B
:10D480008202934219460AD009680433A942F8D1AE
:10D4900001A8FFF70EFF0025284603B030BD29463E
:10D4A0002046FFF7BBFF05460028F1D06368012B3B
:10D4B00001D1FFF701FE01A8FFF7FBFEECE70B46E9
:10D4C00070B50446D0E9000200EB820282420FD020
:10D4D00001461D6851F8046BAE4207D1521A01F0A3
:10D4E0002CF901206368013B636070BD0846EDE7DD
:10D4F0000020FAE71FB5044600F12403406A0191B9
:10D500000393FFF76BFC204601A9FFF7D8FF18B182
:10D5100063680BB9FFF7DCFD03A8FFF7CAFE04B090
:10D5200010BD182370B50446D0E9045603FB065617
:10D53000AE4215D0204605F11001FFF7C0FF636829
:10D540000BB9FFF7C5FDE06929690368DB689847F7
:10D55000696919B1206A0368DB6898471835E7E7FD
:10D560001826D4E9045306FB0356AE4204D02846DD
:10D5700000F0C6FC1835F8E70023636170BD73B591
:10D580000446FFF7A5FD04F12403606A0193FFF749
:10D5900025FC2046FFF7C5FF01A8FFF78AFE606A59
:10D5A00008B1FEF7BDF8D4E90453182606FB03566C
:10D5B000AE4204D0284600F0A3FC1835F8E72069F5
:10D5C000FEF7E4FC2068FEF7E1FC204602B070BDE7
:10D5D0000148FFF7D4BF00BF6CAE07108842F8B512
:10D5E00004460D46164615D9904214D2A2F11406EF
:10D5F000751AA1F114072C44B7421AD01CB1314658
:10D600002046FFF745FC06F10800FFF7FBFD143E3E
:10D61000143CF1E70DD0B5420BD01CB12946204691
:10D62000FFF736FC05F10800FFF7ECFD1435143464
:10D63000F1E7F8BD8842F8B504460D46164614D900
:10D64000904213D2A2F11006751AA1F110072C44D2
:10D65000B74218D01CB13146204600F0CDFC304610
:10D6600000F04EFC103E103CF2E70CD0B5420AD060
:10D670001CB12946204600F0BFFC284600F040FCC3
:10D6800010351034F2E7F8BD70B50E1E054611DDF9
:10D690003001FEF76DFC044658B1D5E9001201EBEC
:10D6A0000212FFF7C7FF2868FEF770FC01202C600C
:10D6B000AE6070BD0024F6E72DE9F04F90460023E0
:10D6C000462295B00391D8F8041004469942C0E967
:10D6D0000033C0E90233C0E90433CDE908330276F0
:10D6E0000A9323DCD8E90057142303FB0757AF4202
:10D6F0003BD029460BA800F07FFC0BA90FA8099E80
:10D7000000F07AFCDDE9091399421BDA089B099ABB
:10D7100003EB0616314603EB021206F11000FFF789
:10D7200089FFEEB9099B0133099311E008A8FFF7BF
:10D73000ABFF0028D6D108A8FEF7CCFC204615B0D8
:10D74000BDE8F08F013108A8FFF79EFF0028DDD16A
:10D750000FA800F0D5FB0BA800F0D2FB1435C6E7EC
:10D7600030460FA900F048FCDCE700264FF0140912
:10D77000CDE90B660D96DDE908239E427CDA330184
:10D78000D35806930BB90136F5E70023079309FB3D
:10D7900006F30BAD029307A906A8FFF7F8FA824635
:10D7A0000028F0D04FF0000301468DF817302846CE
:10D7B000079A0DF11703FFF77FFB9DF81770019093
:10D7C000002F4AD1BDF81C30CDE91177ADF84030BB
:10D7D0004FF6FF73CDF83CA0ADF842301397D5E972
:10D7E0000132934217DB03F1010ABAF1000F30DD79
:10D7F00009FB0AF0FEF7BCFB834660B3D5E90012D3
:10D8000009FB0212FFF7EAFE2868FEF7BFFBC5F826
:10D8100000B0C5F808A02B68019A09FB023A6A68B3
:10D82000514609FB02320AF11400FFF7D7FEBAF1A4
:10D83000000F03D050460FA9FFF72AFB6B68013396
:10D840006B6011A8FFF7DEFC3FB10BA8FFF7DAFC15
:10D8500071E7BB46D8E70127F3E7019B2D6809FB79
:10D860000355069B1B782BB9D8F80030029A134455
:10D870001B7CEB8008358EE721682260626863605C
:10D88000A36809920A9A0A93E368A2600B9A0B9321
:10D890002369E2600C9A0C93636922610D9A0D93DF
:10D8A000039B089162612376CFE70000F0B5044640
:10D8B0002646174687B00D4668461946FDF75CFBBD
:10D8C0000B4B694646F8043B03A8FDF755FB394668
:10D8D00003AA3046FFF7F0FE03A8FDF7F1FA684609
:10D8E000FDF7EEFA2046034B2562236007B0F0BD3A
:10D8F000A8FB3F0218FD3F02F0B50F4685B0384641
:10D900001C4916461D460A9CFCF7E0FFC0B9A4B1AD
:10D91000294601A8FFF7BEFC2420174900F0E6FEC7
:10D92000054630B101AB32462146FFF7BFFF134B2E
:10D930002B6001A8FDF7C4FA2C46204605B0F0BDC7
:10D9400038460F49FCF7C2FF90B9002CF5D02946A4
:10D9500001A8FFF79FFC2420074900F0C7FE0546F9
:10D960000028E6D03246214601ABFFF79FFFE0E7F3
:10D970000024E2E7A0FC3F0264FE3F0230FD3F02CC
:10D98000A4FC3F02014B024A1A60704768AE0710C0
:10D990009BFB3F022DE9F047089DD0F820900446FC
:10D9A0000E461746984600F031FC81454DD02B7944
:10D9B000190704D520466A695449FFF7E2FAB8F11D
:10D9C000000F0DD05B212046FFF756FA4146204656
:10D9D000FFF743FA236802222046DB684C49984748
:10D9E0002B79DA0724D5D5F808802F21404600F09E
:10D9F00046FF08B100F1010841462046FFF72DFA25
:10DA00002B799B0708D53A212046FFF735FA2046A7
:10DA1000EA684049FFF7B5FA2A79236812F0040F43
:10DA200020464FF00202DB6814BF3B493B49984750
:10DA30002B7958071DD529690B461A4613F8010B97
:10DA400060B1202808D11946F7E7354800F083F97E
:10DA50000028ACD0BDE8F0872828EED12368521A00
:10DA60002046DB689847236804222046DB682D495E
:10DA7000984700213846FEF701F901462046FFF796
:10DA8000ECF9236802222046DB68244998471EB13E
:10DA900031462046FFF7E1F92B7913F0300F2CD0F7
:10DAA00023682149DB680222204698472B79D90652
:10DAB0000AD52368072220461C49DB689847204680
:10DAC000AA691B49FFF75DFA2B799A0611D5DB0687
:10DAD00005D5236802222046DB680F499847236852
:10DAE000204614490A22DB6898472046E969FFF777
:10DAF000B4F95D212046FFF7BFF923682046BDE851
:10DB0000F0470222DB680C49184700BFB5FC3F0212
:10DB1000BCFC3F0264FC3F02BFFC3F02C4FC3F026E
:10DB200094AE0710C2FC3F02C7FC3F02CAFC3F0292
:10DB3000D2FC3F02D5FC3F02E0FC3F022DE9F04160
:10DB40000446076A0D46164600F060FB874207D080
:10DB5000206A324603682946BDE8F041DB68184771
:10DB6000034800F0F8F80028F2D0BDE8F08100BFCB
:10DB700094AE07102DE9F04385B0D0F8209005460B
:10DB80000F4690461E460C9C00F040FB814505D197
:10DB9000494800F0E0F8002840F08A804FF0000982
:10DBA0002B6A464A01A8019203938DF80890FFF76B
:10DBB0001CF849464046FEF761F88046404901227C
:10DBC00001A8FFF7B5F84146FFF739F93FB13D49E4
:10DBD000012201A8FFF7ACF83946FFF730F93EB152
:10DBE0003949012201A8FFF7A3F83146FFF727F9C9
:10DBF0002379DF070ED5A6682F21304600F03FFEBF
:10DC000000B1461C3149012201A8FFF791F83146C5
:10DC1000FFF715F923799E0707D52D49022201A8A0
:10DC2000FFF786F8E168FEF7EDFF2379580714D572
:10DC3000266933461F4613F8012B2AB1202A01D149
:10DC40001E46F7E7282AF5D10222224901A8FFF74C
:10DC50006FF83146BA1BFFF77BF82379190707D510
:10DC60001D49012201A8FFF763F86169FEF7DCFF97
:10DC70002379DA0608D5042218490DEB0200FFF7D4
:10DC800057F8A169FEF7BEFF23799B0607D5144913
:10DC9000062201A8FFF74CF8E169FFF7D0F801A8C8
:10DCA000FEF78DFF286A022203680E49DB68984759
:10DCB00005B0BDE8F08300BF94AE071000FD3F0241
:10DCC00096FC3F02E3FC3F02D3FE3F02BFFA3F0255
:10DCD000E5FC3F02E8FC3F0298FA3F02EBFC3F0202
:10DCE000F0FC3F02E0FC3F02002340681A46FEF7CA
:10DCF00097B8002202214068FEF7AEB800224068C3
:10DD00001146FEF79BB8002240681146FEF7B2B8F4
:10DD1000002340681A461946FEF7BAB80023406847
:10DD20001A461946FEF7C2B800214068FEF704B94A
:10DD300000214068FEF70EB90022406881F0010121
:10DD4000FEF7C2B800224068FEF7DAB80022406849
:10DD50001146FEF7E3B8002240681146FEF7C2B84C
:10DD60002DE9F04395B014460D460746FEF7A0FD99
:10DD700000211C220DA8009100F0F9FC4023204650
:10DD80000C9300216B460CAAFDF728FE04460028E0
:10DD90004BD1024601216868FEF76CF802218046EB
:10DDA00022466868FEF766F821468146009E002EEE
:10DDB0003BD0002939D17368022B03D00A2B11D034
:10DDC000F669F4E7B8F1000FFAD0716906A80431DA
:10DDD0003C1D07ADFEF79AFD0FCD0FC42B684146E1
:10DDE0002370EDE7B9F1000FEAD0102201A87469A1
:10DDF00000F0BDFC062301AD8DF8143004F10803DA
:10DE000018342A4618685968083303C2A3421546D5
:10DE1000F7D101A906A83C1D07ADFEF757FD0FCDB0
:10DE20000FC42B6849462370CAE70098FDF7C8FD68
:10DE3000384615B0BDE8F083024B034A1A60002251
:10DE40005A60704794AE071078FD3F02F8B5064659
:10DE50000D4600248F18BD420CD0336830469B68B5
:10DE600015F8011B9847031E01DB1C44F3E7002C47
:10DE700008BF1C462046F8BD13B50446084659B1F4
:10DE80000191FCF72DFD0246204623680199DB68CD
:10DE900002B0BDE81040184702B010BD03689B688F
:10DEA00018470023012A98BF0A2230B58BB08DF89D
:10DEB000243009AC0D46B1FBF2F101FB125303F023
:10DEC000FF03092B94BF30333733DBB2AA4204F887
:10DED000013DEFD92146FFF7CFFF0BB030BD000069
:10DEE0000022014B9A6070479CAE071010B50446A3
:10DEF00008462170FDF780FD00232046636010BDB9
:10DF000010B504460068FEF741F8204610BD10B574
:10DF10000446006808B1FEF739F80023C4E901336C
:10DF2000236010BD38B504460D4600680131FEF788
:10DF30003BF810B1C4E90005012038BD10B50368F5
:10DF4000044623B143688B4201D3012010BD204613
:10DF5000FFF7E8FF0028F9D0A368002BF5D122686D
:10DF60001370F2E737B50D46114601920446FFF7EC
:10DF7000E5FF019A28B92046FFF7C9FF204603B004
:10DF800030BD2946A260206800F0CAFB002122684B
:10DF9000A368D154F2E7002313B50446C0E9003367
:10DFA0008360037341B108460191FCF799FC019924
:10DFB00002462046FFF7D6FF204602B010BD38B516
:10DFC000054600680C4668B16A688B689A4207D3B8
:10DFD000096800F01AFCA368AB600023A36038BD99
:10DFE000FDF7D4FF23682B6063686B60A368AB60A8
:10DFF0000023C4E90033F1E7002310B50446C0E96B
:10E00000003383600373FFF7DAFF204610BD8842B8
:10E0100010B5044605D00B682BB18A681946FFF786
:10E02000A1FF204610BDFFF772FFFAE7002310B5ED
:10E030000446C0E9003383600373FFF7E8FF20461E
:10E0400010BD006808B100F05EBB704702220020DE
:10E05000044B1A60044B054AC3E900009A60FDF7BF
:10E0600029BE00BFB8AE0710ACAE07100000FFFF1E
:10E07000024B1A68024B1A60704700BF40A9071094
:10E08000BCAE071070474174704708B5007CFDF7BF
:10E0900031FD20EAE07008BD08B5007CFDF7E4FC26
:10E0A00020EAE07008BD08B5007CFDF7F9FC40EA05
:10E0B000E07008BD08B5007CFDF7E4FC40EAE070C4
:10E0C00008BD007CFDF7FABC37B5457C04462DB190
:10E0D000207C03B0BDE83040FDF7B8BC007C019166
:10E0E000FDF708FD00280199F2DC284603B030BD99
:10E0F00010B504461421FCF71CFC204610BD00009E
:10E1000010B54FF47A730446084611460022C4E95C
:10E110000123044B2074236001236374FDF706FD83
:10E12000204610BDD0FD3F020023007CFDF7F0BC6F
:10E130000022FFF7F9BF007CFDF77ABC007CFDF7F9
:10E14000CBBC417470477047704708B50021007C14
:10E15000FDF740FD40EAE07008BD08B50121007CF4
:10E16000FDF738FD40EAE07008BD08B5007CFDF71A
:10E1700023FD20EAE07008BD08B5007CFDF70EFD28
:10E1800020EAE07008BD13B50446007C0191FDF75C
:10E1900013FD0028019901DC607C20B1207CFDF793
:10E1A00027FD20EAE07002B010BD007CFDF72EBD17
:10E1B00010B504461421FCF7BCFB204610BD00003E
:10E1C00010B54FF47A73044608460021C4E90113E0
:10E1D000044B20742360012311466374FDF7B4FCE3
:10E1E000204610BD00FE3F020022007CFDF7BABCB5
:10E1F000007CFDF7C5BC007CFDF716BD10B50446DC
:10E200001422002100F0B3FA204610BD10B588B0EA
:10E2100003A8FFF7F3FF0C4CD4E88F1F11F00101A6
:10E220000FD120460191FCF793FB019948B103AA55
:10E230000648FFF7C5FF2046FCF78FFB044800F0B7
:10E240005CFA024808B010BDC0AE0710C4AE07109B
:10E25000E7F03F02002240681146FDF70BBE0022A6
:10E2600040681146FDF73EBE002240681146FDF7AA
:10E2700055BE00224068FDF743BE0022406881F091
:10E280000101FDF721BE002340681A461946FDF73B
:10E290000DBE002340681A461946FDF7F9BD00225D
:10E2A00040681146FDF7CABD002202214068FDF713
:10E2B000D3BD002340681A46FDF7B2BD0422024BCD
:10E2C0005A60024A1A607047D8AE071030FE3F020B
:10E2D000014B1860704700BF44A9071008B50F4BE9
:10E2E00043B1FFF793FF03681B699847002801DDDE
:10E2F00000E000BF0A4B43B100F068F903681B69F6
:10E300009847002801DD00E000BF064B0BB100F08C
:10E31000A3F9054B0BB100F0D5F908BD00000000D2
:10E3200000000000000000000000000008B5FFF73A
:10E33000D5FFFDF73BFA014B186008BDE8AE0710AA
:10E340000548064A08B5121A054900F0E9F9054BD7
:10E35000054A1A6008BD00BF00B4071004B40710D6
:10E36000D4F05F0800B407101E1C279A002307B5DD
:10E370001A466FF077010093FDF7F0FC03B05DF8EB
:10E3800004FB000007B543880A2B08D0502B0BD1A3
:10E39000094B1B684BB103B05DF804EB1847FFF75E
:10E3A000E5FF03B05DF804FB00231A466FF0770128
:10E3B0000093FDF7D3FCF4E7E4AE0710002110B59D
:10E3C0001148FDF745FE114B1A68114B9A420CBFDC
:10E3D000012200220F4B1A7001D0FFF7B1FFFDF7A9
:10E3E000C9F9044600F0CCF90B4B13B1204600E00C
:10E3F00000BF00210848FDF705FDBDE810400021E1
:10E400000648FDF79DBC00BF71F23F0200B4071043
:10E410001E1C279AE0AE07100000000025F33F0203
:10E420001B2837B5044602D9002003B030BDA0F147
:10E430000F03022B0BD9012821D800F073F800211B
:10E44000007CFDF785FA80F00100C0B2EDE7114DC8
:10E45000D5E88F1F11F001010BD128460191FCF77F
:10E4600077FA019928B10C48FFF740FD2846FCF7E0
:10E4700074FA094B1878FDF7CDFA0028D4D1083C7E
:10E48000012C05D800F0A2F8007CFDF725FBDAE7A7
:10E490000120CAE744AE071048AE07101B2838B564
:10E4A00004460D460AD8FF2908D0FFF7B9FF28B166
:10E4B00029462046BDE83840FDF7BEB938BD00000A
:10E4C00010B5084CD4E88F3FDB0708D42046FCF792
:10E4D0003FFA20B1FDF778F92046FCF73EFA0248F2
:10E4E00010BD00BFECAE0710F0AE07107047000083
:10E4F00038B50A4B044603600123094943612020D3
:10E5000000F0F6F82025606005492846A56000F077
:10E51000EFF8C4E90305204638BD00BF180001002C
:10E5200064FE3F0230B50E4D87B0D5E88F1F11F065
:10E53000010411D12846FCF70BFA68B16846FFF7D1
:10E54000D7FF6A4621460748FEF71EF92846FCF722
:10E5500004FA054800F0D1F8024807B030BD00BF0A
:10E56000F4AE0710F8AE07108DF43F0270470000BC
:10E5700038B5142504462A46002100F0F8F8258015
:10E580004025074928462581258200F0B1F8044935
:10E590006060284600F0ACF8E060204638BD00BF5F
:10E5A00064FE3F027047704710B50446FFF7E0FF76
:10E5B000204610BD10B50446FFF7DAFF204610BD17
:10E5C00010B50446FFF7D4FF204610BD30B50E4D00
:10E5D00087B0D5E88F1F11F0010411D12846FCF750
:10E5E000B7F968B101A8FFF7DFFF214601AA074884
:10E5F000FFF786FD2846FCF7B0F9054800F07DF8E6
:10E60000024807B030BD00BF0CAF071018AF0710AD
:10E610000DF53F0210B50D4C86B0D4E88F3FDB07F7
:10E6200011D42046FCF794F968B101A8FFF7C2FFA6
:10E63000012101AA0648FFF763FD2046FCF78DF98A
:10E64000044800F05AF8024806B010BD10AF071099
:10E650002CAF071047F53F0210B5FFF7DBFF074B64
:10E66000044653B1FFF76AFD38B1236820461B69A1
:10E670009847002801DD00E000BF10BD0000000049
:10E6800010B50D4C86B0D4E88F3FDB0711D420467F
:10E69000FCF75EF968B101A8FFF792FF022101AA19
:10E6A0000648FFF72DFD2046FCF757F9044800F017
:10E6B00024F8024806B010BD14AF071040AF071091
:10E6C00045F53F0210B5FFF7DBFF074B044653B19A
:10E6D000FFF734FD38B1236820461B6998470028AE
:10E6E00001DD00E000BF10BD00000000FCF71DB917
:10E6F000FCF71DB908B5FDF773FC002301461A4667
:10E70000184600F05DB90A22002100F04FB9000060
:10E71000024B1844407800F097007047D5FE3F0246
:10E720000A44431E914200D1704710B511F8014BC5
:10E73000914203F8014FF9D110BD884210B501EBA9
:10E74000020402D98442234607D8431EA14208D0BE
:10E7500011F8012B03F8012FF8E7024401468A4221
:10E7600000D110BD13F8014D02F8014DF7E7024446
:10E770000346934200D1704703F8011BF9E70000FC
:10E7800038B5104B04461D68AB6BB3B91820FDF7C4
:10E79000EFFB0246A86320B90B4B42210B48FDF763
:10E7A00049FC0B490B4BC0E900130B4B0021836064
:10E7B0000B2383810120C2E90401AB6B00221C61A1
:10E7C0005A6138BD44A9071065FE3F027CFE3F0236
:10E7D0000E33CDAB34126DE6ECDE0500C9B2034654
:10E7E00010F8012B1AB18A42F9D118467047002956
:10E7F00018BF0023F9E710B50446FFF7EFFF18B97B
:10E800002046FCF76DF8204410BD034611F8012B9B
:10E8100003F8012B002AF9D170470000024B014692
:10E82000186800F003B800BF44A9071037B50446C4
:10E8300008460D46FCF754F8421C2046114601924A
:10E84000FDF7DCFB044618B1019A2946FFF768FF83
:10E85000204603B030BD10B57AB1034601398418A3
:10E8600013F8010B11F8012F904201D1A34201D1FD
:10E87000801A10BD0028F3D1FAE71046F9E738B541
:10E8800003460C4669B9BDE83840FFF7A7BF431CF3
:10E89000054621461846FFF7A1FF0028F7D1284674
:10E8A00038BD0025F5E70000012B2DE9F04701D028
:10E8B000242B06D9FDF7B0FB162303600020BDE82A
:10E8C000F0870D46DFF8E0C02E4615F8014B14F82E
:10E8D0000C7017F00807F7D12D2C32D12C780127B6
:10E8E000B51C002B5BD0102B09D1302C07D12C7814
:10E8F00004F0DF04582C4DD16C781023023507F159
:10E9000000484FF0000C08F1FF386646B8FBF3F9F9
:10E9100003FB198AA4F1300EBEF1090F16D8744614
:10E92000A34224DDBCF1000F1EDBB1451CD301D195
:10E93000A24519DB06FB03464FF0010C15F8014B0D
:10E94000E8E72B2C04BF2C78B51CCAE7A4F1410ED4
:10E95000BEF1190F01D8373CE2E7A4F1610EBEF118
:10E96000190F04D8573CDBE74FF0FF3CE6E7BCF15A
:10E97000000F05DA22234646036042B930469EE77F
:10E9800007B17642002AF9D0BCF1000F00D0691E11
:10E990001160F3E73024002BB1D10823AFE7302C0E
:10E9A000A5D00A23ABE700BFD6FE3F0213460A46B6
:10E9B000014602480068FFF777BF00BF44A907106F
:10E9C0002DE9F843DFF8BC8006461F460D46D8F80F
:10E9D0000000914600F058F8264B1C6834B9264CCC
:10E9E0001C60264B13B11B68C4F8883063681F2B6A
:10E9F00007DDD8F8000000F049F84FF0FF30BDE81F
:10EA0000F8835EB3D4F8880088B91D4B23B9D8F8D1
:10EA1000000000F03AF8F0E74FF48470FDF7A8FA30
:10EA20000028F4D00023C0E94033C4F888006368AC
:10EA30000122022E40F8239002FA03F200EB830138
:10EA4000D0F8003143EA0203C0F80031C1F8807009
:10EA500002BFD0F804311343C0F804316368D8F81A
:10EA600000005A1C0233626044F8235000F00EF894
:10EA70000020C4E7E0AF071054AF0710000000000B
:10EA800011CF3F02A8A907107047704770470000D8
:10EA900091B83F02B9B83F02BDB83F020000000084
:10EAA00043616C6C206F6E207075726520766972A0
:10EAB0007475616C00526573657420616C6C2072B2
:10EAC000656769737465727300506F776572206F44
:10EAD0006E005365742064656661756C7420636FA5
:10EAE0006E6669670043616C69627261746520419A
:10EAF0004645007765696768740074656D70657276
:10EB00006174757265006461746163616B652F6423
:10EB1000617461005765696768743A20252E326612
:10EB20000054617272696E67207468652073636156
:10EB30006C650054617272696E6720636F6D706CF2
:10EB40006574650053746172742063616C696272EC
:10EB50006174696F6E0043616C6962726174696FA0
:10EB60006E20636F6D706C6574650043616C6962E3
:10EB7000726174696F6E206572726F72004E6F20E1
:10EB800074617272696E6720666F756E642E2050B4
:10EB90006572666F6D696E67206120746172652EA3
:10EBA000004E6F207765696768742072656620661D
:10EBB0006F756E642E004E6F2063616C69627261C6
:10EBC00074696F6E2076616C756520666F756E6412
:10EBD0002E20506572666F726D696E6720612063CA
:10EBE000616C6962726174696F6E2E007461726526
:10EBF0000063616C6962726174650061707000002D
:10EC00000000000000000000000000000000000004
:10EC1000D9B83F0201B93F02000000000000000027
:10EC200031B93F0265B93F0235E93F02DDEA3F02F3
:10EC30000000000000000000DDD03F02E3D03F02F2
:10EC400021D13F02F1D03F02DFD03F02000000009F
:10EC500000000000B3D63F02A9D63F029FD63F0274
:10EC600095D63F0289D63F027DD63F02C9EC3F02CE
:10EC7000D1EC3F0271D63F0269D63F025FD63F0218
:10EC800055D63F0201ED3F020000000000000000E9
:10EC9000D1D63F021BD73F02F3D63F02D3D63F0265
:10ECA000FBD63F0203D73F020BD73F0213D73F02E9
:10ECB0000000000000000000EBD73F02DBD73F025E
:10ECC000DDD73F02256400257500256700752530D6
:10ECD000347800000000000000000000FBD83F0274
:10ECE000FDD83F020BD93F0231D93F026261756402
:10ECF0000053657269616C0053657269616C310023
:10ED00004A534F4E53747265616D4C6F6748616E24
:10ED1000646C657200253031307520005D20002C58
:10ED2000200028293A2000205B00636F6465203DA5
:10ED3000200025690064657461696C73203D2000C2
:10ED40000D0A006D006C6E00666E00636F646500F6
:10ED500064657461696C0000000000000000000040
:10ED60002DDD3F0253DD3F0211DD3F0265D93F0239
:10ED70000000000000000000E1E13F02F9E13F0275
:10ED800035E93F02DDEA3F0200000000000000001C
:10ED90000DE23F0221E23F0215EB3F0219DD3F0287
:10EDA00000000000000000002BDD3F0261DD3F029B
:10EDB00099E83F021BDD3F02000000000000000058
:10EDC00029DD3F026FDD3F0249E13F0291DD3F0255
:10EDD000000000000000000089EC3F0293EC3F02BD
:10EDE0009DEC3F02A7EC3F02B1EC3F02BDEC3F02BD
:10EDF000C9EC3F02D1EC3F02D9EC3F02E5EC3F0207
:10EE0000EDEC3F02F7EC3F0201ED3F0225592D25C5
:10EE10006D2D25645425483A254D3A2553257A0011
:10EE200061736374696D65000000000000000000FC
:10EE300025F03F0291F03F0269F03F02EDED3F0205
:10EE400039F03F0255F03F0247F03F0263F03F02C6
:10EE500027F03F022BF03F020000000000000000FE
:10EE6000E9F03F0251F13F0227F13F02EDED3F0291
:10EE700019F13F02EBF03F02FBF03F024BF13F0282
:10EE80000BF13F02E3F03F02000000000000000031
:10EE900053F23F0249F23F023FF23F02F5F13F02D7
:10EEA00033F23F0227F23F02C9EC3F02D1EC3F02AE
:10EEB0001BF23F0213F23F0209F23F02FFF13F0251
:10EEC00001ED3F02005245454E54206D616C6C6F60
:10EED0006320737563636565646564002F746D708A
:10EEE0002F6A656E6B696E732D4743432D31302D4C
:10EEF000706970656C696E652D34385F3230323000
:10EF0000313132345F313630363138303633392FA3
:10EF10007372632F6E65776C69622F6E65776C69AB
:10EF2000622F6C6962632F7374646C69622F726103
:10EF30006E642E6300002020202020202020202826
:10EF400028282828202020202020202020202020A1
:10EF500020202020202088101010101010101010D9
:10EF60001010101010100404040404040404040419
:10EF70001010101010101041414141414101010198
:10EF80000101010101010101010101010101010171
:10EF9000011010101010104242424242420202027E
:10EFA0000202020202020202020202020202020241
:10EFB00002101010102000000000000000000000EF
:10EFC0000000000000000000000000000000000041
:10EFD0000000000000000000000000000000000031
:10EFE0000000000000000000000000000000000021
:10EFF0000000000000000000000000000000000011
:10F000000000000000000000000000000000000000
:10F0100000000000000000000000000000000000F0
:10F0200000000000000000000000000000000000E0
:10F03000000000000000000065BF3F02CDD03F028D
:10F04000BDD63F0225E93F02D9ED3F0281EE3F02E6
:0CF05000EDEF3F0211F03F025DF23F02C5
:10F05C000000000248FD3F0260FD3F02C0FD3F0280
:10F06C0048A907100000000000000000000000008C
:10F07C000000000000000000000000000000000084
:10F08C000000000000000000000000000000000074
:10F09C000000000000000000000000000000000064
:10F0AC000000000000000000000000000000000054
:10F0BC000000000000000000000000000000000044
:08F0CC0000000000E4AF071092
:04F0D4000000000038
:10FFBE000200100000A05F0888A05F0828B03F0272
:10FFCE0001000A00FFFFFFFFFFFF00000102030414
:10FFDE0005060708090A0B0C0D0E0F10111213144B
:0EFFEE0015161718191A1B1C1D1E1F203E0089
:04FFFC0078563412ED
:04000005085FA018D8
:00000001FF
