:02000002B0004C
:1040000000400B00447E0B00000006000C0005027F
:084010000401A60F00000000EE
:0440180034770B00EE
:1040200009480A49884208B505D0094A824202D0A7
:10403000121A03F0D5F90748074A0021121A03F0B3
:10404000F7F9014808BD00BFACE50320A87D0B00CF
:1040500020E6032020E60320EDE7032070B5074E9D
:10406000074C02F061FCA41BA4080025AC4200D15F
:1040700070BD56F8043B98470135F7E75C7D0B00AF
:10408000807D0B0000F058B908B500F061F8BDE87C
:10409000084002F001BC00F0F7BD00F0F5BD00F0F3
:1040A000FBBD000008B5034A03490C2000F038FDB1
:1040B000FEE700BFE1480B0048770B000078B0FA3C
:1040C00080F0400970470123037070477047006A11
:1040D0000368DB68184700000A4B10B5044603600C
:1040E00001F078FA214601F0B0FC02F04FFB02F03B
:1040F00041FB2046044B40F8043B01F041FB2046C5
:1041000010BD00BF7C790B0064790B0010B504462C
:10411000FFF7E2FF20462421FFF7C1FF204610BD34
:104120000EB400B58CB00DAA4FF0200C52F8041B51
:104130000392CDE900120023016804AA1E20CDE9F4
:1041400004C300F0F5FC0CB05DF804EB03B070475D
:1041500010B50F4C00F0CCFB2368C01A41F2873336
:10416000984214D900F0C4FB0A4A206002210A4890
:1041700000F006FB094B10EE100A83ED000A02F076
:1041800067FE02460B4606480649FFF7C9FF10BD09
:1041900058E6032028E6032020E6032080E60320DB
:1041A000A8E603205D770B0007B553495348FFF796
:1041B000B7FF01A800F0A6F90E238DF804301023F4
:1041C0008DF8053001A90F234D488DF8063000F019
:1041D0009EF94C494948FFF7A3FF4B494748FFF771
:1041E0009FFF48494548FFF79BFF642000F084FD8E
:1041F0000021434800F0FCF9642000F07DFD4048B8
:1042000000F0E3F9642000F077FD00213C4800F065
:10421000D7F9642000F070FD3C493848FFF780FF73
:1042200038493648FFF77CFF39493448FFF778FFB3
:1042300042F2107000F060FD32493048FFF770FF25
:1042400034492E48FFF76CFF334A2D48022100F015
:10425000DFF94FF4FA7000F04FFD2A492748FFF7C5
:104260005FFF2E492548FFF75BFF26492348FFF7EC
:1042700057FF2B492148FFF753FF42F2107000F01F
:104280003BFD20491D48FFF74BFF26491B48FFF720
:1042900047FF0221204B1A4841F2883200F0F2F920
:1042A00001281849154820D1FFF73AFF1E49134845
:1042B000FFF736FF1D491148FFF732FF14490F4839
:1042C000FFF72EFF42F2107000F016FD0D490B486B
:1042D000FFF726FF16490948FFF722FF094907485B
:1042E000FFF71EFF03B05DF804FBFFF719FF11494C
:1042F0000248FFF715FFFEE76E770B00A8E60320E4
:1043000020E6032089770B00A5770B00C1770B000F
:10431000F0770B0038780B0028E6032054780B0068
:104320006D780B00CC780B00E8780B0004790B005B
:1043300020790B003C790B00FFF736BF70B5D0E950
:1043400000531426044606FB0356AE4204D028460A
:1043500002F0A0F81435F8E7206800F09DFC204634
:1043600070BD2DE9F843B1F10008074638DD4FF084
:10437000140909FB08F000F087FC0546C0B3D7E933
:104380000046844209FB064615D2864214D9143EE3
:10439000A4F11409341B0444B14522D02CB1314698
:1043A000204602F0F3F8337C2374304602F072F8B2
:1043B000143E143CF0E714D0A946A64211D0B9F13E
:1043C000000F06D02146484602F0E0F8237C89F829
:1043D0001030204602F05EF8143409F11409ECE7BD
:1043E0000025386800F058FC3D60C7F808800120BF
:1043F000BDE8F8832DE9F0410023C0E90033836074
:104400000D4649689942044617DDFFF7AAFFA0B19F
:10441000D5E900634FF01408276808FB0368B0452E
:1044200009D02FB13146384602F0CAF8337C3B74CC
:1044300014361437F3E76B6863602046BDE8F081FB
:1044400030B5002193B0012000F09AFB28490DA857
:1044500002F06BF80023012101A8CDE901338DF8AA
:1044600044100393FFF77DFF50B1019C34B10DA9B7
:10447000204602F0A5F89DF84430237401230293EE
:1044800002F084F901A9054604A81A4CFFF7B2FF0F
:1044900004A907A8FFF7AEFF174B236007A90AA8D6
:1044A000FFF7A8FF0AAA2821201D01F0B1FB0AA8E6
:1044B000FFF744FF07A8FFF741FF104B2360256279
:1044C00004A8FFF73BFF0E4B236002F05FF94FF4A7
:1044D000165102F04BF901F07DF8214601F06EFA19
:1044E00001A8FFF72BFF0DA801F0D4FF13B030BDDA
:1044F00057790B005CE6032064790B009C7A0B0073
:104500007C790B00FF23037043708370704738B5CC
:104510000C460546097800F0A7F96178A81C00F060
:10452000A3F9A178281D00F091F9002038BD08B545
:10453000043000F096F9003818BF012008BD0229A8
:104540002DE9F84306460C46904637D83046FFF72B
:10455000EEFF05460028F9D1012000F0C1F94FF027
:104560001709B71C384600F08AF9012000F0B8F9A5
:104570003046FFF7DCFF00FA09F00543384600F04B
:1045800082F9012000F0ACF9B9F10109EAD2013455
:10459000E4B2384600F073F9012000F0A1F9384682
:1045A00000F071F9013C012000F09AF914F0FF04C9
:1045B000EFD1C8F800500120BDE8F8830020FBE7E8
:1045C00009B100F05CB900F05EB910B5841C20465A
:1045D00000F055F9322000F083F9322000F080F924
:1045E000204600F050F9BDE81040322000F078B9C4
:1045F00008B5023049B100F042F9322000F070F9FC
:10460000BDE80840322000F06BB900F03CF9F4E757
:104610002DE9F341074688461646052401AA41467E
:104620003846FFF78CFF013C012000F065FB14F0D9
:10463000FF04F3D1642501AA41463846FFF77FFF06
:10464000019B0120013D1C4400F056FB15F0FF05C5
:10465000F1D107EE904ADFED0A6A3573F8EE677A1A
:10466000012387EEA67A33713575357786F82450A5
:1046700086F82C5086ED007A02B0BDE8F08100BFCC
:104680000000C8422DE9F0432DED028B93ED008A26
:1046900083B00646894690461F461424002501AA89
:1046A00049463046FFF74BFF019B0120013C1D446A
:1046B00000F022FB14F0FF04F1D107EE905AB8EE9F
:1046C000677AF3EE046AC7EE267AB8F57A7F77EE5A
:1046D000C87A38D00ED8B8F1640F1DD0B8F5FA7F7B
:1046E00028D000223A733A753A7787F8242087F861
:1046F0002C2019E041F2883398452DD042F21073F6
:104700009845EED1DFED196A86EEA77A012487F885
:104710002C4087ED0A7A07E0DFED156A86EEA77A6E
:1047200001243C7387ED027A204603B0BDEC028B76
:10473000BDE8F083DFED0F6A86EEA77A01243C75B1
:1047400087ED047AF0E7DFED0C6A86EEA77A0124A4
:104750003C7787ED067AE7E7DFED086A86EEA77A11
:10476000012487F8244087ED087ADDE700401C46E5
:104770000000C8420000FA4300007A4400409C4513
:104780002DE9F0412DED028B92ED008A82B00746B3
:10479000884614461426002501AA41463846FFF7EC
:1047A000CEFE019B0120013E1D4400F0A5FA16F04B
:1047B000FF06F1D107EE905AF8EE677AB3EE047A6D
:1047C00087EE870A237B012B30EE480A0FD1D4ED08
:1047D000027A20EE270AB5EEC00AF1EE10FA48BFC1
:1047E0009FED190A02B0BDEC028BBDE8F081237D7C
:1047F000012B02D1D4ED047AEBE7237F012B02D108
:10480000D4ED067AE5E794F82430012B02D1D4EDFB
:10481000087ADEE794F82C30012B02D1D4ED0A7A25
:10482000D7E710EE100A02F013FB05A3D3E900232B
:1048300002F066FB02F076FD00EE100ACBE700BF47
:1048400015376A61A5A7B63F0000000010B50C46F9
:1048500021B9007802F0D8F8204610BD4FF0FF30A3
:10486000FBE7007802F0FAB8012908B504D1008806
:1048700002F0CAF8002008BD4FF0FF30FBE70088C7
:10488000012102F0D2B80088002102F0CEB8000069
:1048900008B5024B1B685B6C019308BD480203001E
:1048A00008B5024B1B689B6C019308BD48020300CE
:1048B00008B5024B1B68DB6C019308BD480203007E
:1048C00008B5024B1B685B6D019308BD48020300ED
:1048D00008B5024B1B685B68019308BD1802030012
:1048E00008B5024B1B68DB68019308BD1802030082
:1048F00008B5024B1B685B69019308BD18020300F1
:1049000008B5024B1B689B68019308BD2C0203008D
:1049100008B5024B1B68DB68019308BD2C0203003D
:1049200008B5024B1B681B69019308BD2C020300EC
:1049300008B5024B1B685B69019308BD2C0203009C
:1049400008B5024B1B681B6A019308BD28020300CF
:1049500008B5024B1B685B6A019308BD280203007F
:1049600008B5024B1B689B6A019308BD280203002F
:1049700008B5024B1B68DB6A019308BD28020300DF
:1049800008B5024B1B681B6B019308BD280203008E
:1049900008B5024B1B685B6B019308BD280203003E
:1049A00008B5024B1B681B6C019308BD280203006D
:1049B00008B5024B1B685B69019308BD64020300E4
:1049C00008B5024B1B689B68019308BD6802030091
:1049D00008B5024B1B68DB68019308BD6802030041
:1049E00008B5024B1B68DB69019308BD3002030068
:1049F00008B5024B1B681B6A019308BD3002030017
:104A000008B5024B1B689B68019308BD3C0203007C
:104A100008B5024B1B68DB68019308BD3C0203002C
:104A200008B5024B1B681B69019308BD3C020300DB
:104A300008B5024B1B685B69019308BD3C0203008B
:104A400008B5024B1B689B69019308BD3C0203003B
:104A500008B5024B1B68DB69019308BD3C020300EB
:104A600008B5024B1B681B6A019308BD3C0203009A
:104A700008B5024B1B689B6A019308BD3C0203000A
:104A800008B5024B1B68DB6A019308BD3C020300BA
:104A900008B5024B1B681B6C019308BD3C02030068
:104AA00008B5024B1B681B68019308BD4C0203004C
:104AB00008B5024B1B685B68019308BD4C020300FC
:104AC00008B5024B1B689B68019308BD4C020300AC
:104AD00008B5024B1B681B69019308BD4C0203001B
:104AE00008B5024B1B685B69019308BD4C020300CB
:104AF00008B5024B1B689B69019308BD4C0203007B
:104B000008B5024B1B68DB69019308BD4C0203002A
:104B100008B5024B1B681B6A019308BD4C020300D9
:104B200008B5024B1B685B6B019308BD6002030074
:104B300008B5024B1B685B6D019308BD6002030062
:104B400008B5024B1B68DB6E019308BD60020300D1
:104B500008B5024B1B681B6F019308BD6002030080
:104B600008B5024B1B685B68019308BD2002030077
:104B700008B5024B1B685B69019308BD2002030066
:104B800008B5024B1B68DB6A019308BD20020300D5
:104B900008B5034B1B68D3F88830019308BD0000AB
:104BA0002002030008B5034B1B68D3F8943001932F
:104BB00008BD00002002030008B5024B1B68DB6B38
:104BC000019308BD4402030008B5024B1B685B68F3
:104BD000019308BD4002030008B5024B1B689B68A7
:104BE000019308BD4002030008B5024B1B68DB6857
:104BF000019308BD4002030008B5024B1B681B6906
:104C0000019308BD4002030008B5024B1B685B69B5
:104C1000019308BD4002030008B5024B1B689B6965
:104C2000019308BD4002030008B5024B1B68DB6915
:104C3000019308BD4002030008B5024B1B681B6AC4
:104C4000019308BD4002030008B5024B1B681B6BB3
:104C5000019308BD4002030008B5024B1B685B6B63
:104C6000019308BD4002030008B5024B1B681B6C92
:104C7000019308BD4002030008B5024B1B685B6C42
:104C8000019308BD4002030008B5024B1B681B6876
:104C9000019308BD1C02030008B5024B1B685B684A
:104CA000019308BD1C02030008B5024B1B689B68FA
:104CB000019308BD1C02030008B5024B1B685B6A28
:104CC000019308BD1C02030008B5024B1B68DB6B97
:104CD000019308BD1C02030008B5024B1B681B6C46
:104CE000019308BD1C02030008B5024B1B685B6CF6
:104CF000019308BD1C0203000021FFF739BF10B566
:104D00004368013B0446436063B903689B68984766
:104D1000A368013BA3602BB923682046DB68BDE88C
:104D20001040184710BD70B5D0E90053044605EB9C
:104D30000316AE4204D0284601F0ACFB1035F8E76C
:104D40002068FFF7A9FF204670BD10B50446006833
:104D500008B1FFF7D4FF204610BD00000248002331
:104D60000360FFF795BD00BF90E603200022406876
:104D70001146FFF761BF002240681146FFF76CBF84
:104D800040680022FFF760BF4068002281F0010107
:104D9000FFF74ABF002340681A461946FFF73CBF99
:104DA000002340681A461946FFF72EBF00224068CC
:104DB0001146FFF721BF002240681146FFF70CBFE4
:104DC000406800220221FFF70FBF002340681A4607
:104DD000FFF7FABE024B03225A60024A1A6070477C
:104DE00094E6032094790B007047F8B50646154603
:104DF0000C468F18BC4206D0336814F8011B9B6820
:104E000030469847F6E72846F8BD007C0022FFF7B9
:104E100097BD007C0021FFF79BBD007C0021FFF7C0
:104E20009FBD007C0021FFF7A3BD007C0021FFF7A0
:104E3000A7BD10B514210446FFF731F9204610BD77
:104E400038B5044615464FF47A730022C4E90123AD
:104E5000094B2174084623602946FFF7A1FDBF30A6
:104E600008D16B69DB0705D56868FFF715FFE868AF
:104E7000FFF712FF204638BDD0790B00704710B500
:104E800018210446FFF70BF9204610BDF0B5037D4D
:104E9000062B8DB00E4600F104074FF0000412D02F
:104EA00000F1080515F8011D0A22304601F093FAB9
:104EB000AF42044419D0002CF4D02E21304601F02A
:104EC0007BFA0444EEE72F236A4639460A208DF820
:104ED0000040FFF76DFD684602F009FB33680246AB
:104EE000DB68694630469847044620460DB0F0BD61
:104EF00010B5054B0446112240F8043B002102F096
:104F000097FA204610BD00BFF8790B000346074A08
:104F100010B543F8042B01F1100251F8044B43F88B
:104F2000044B9142F9D10A781A7010BDF8790B0040
:104F300010B59DF8084044EA032343EA024242EADE
:104F4000016104234160037510BD000007B5064BE5
:104F50000360CB7800938B784A780978FFF7E8FFF5
:104F600003B05DF804FB00BFF8790B0000F11003FB
:104F7000012213F8101C0129184608D153F8041C0B
:104F800002EB4102013A03F11003F2D1704702290A
:104F900004BF53F8041C5218F4E70EB4F0B588B0FF
:104FA00000AF07F13405102155F8042B7A60044650
:104FB0002B467818FD60FFF77FFE0F287A681AD914
:104FC00000F1080323F007036E46ADEB030D411C0F
:104FD0002B466846FD60FFF76FFE021E04DD236866
:104FE00069469B6820469847B5462037BD46BDE8D0
:104FF000F04003B070470028F7D0236802469B6852
:1050000007F1100120469847EFE738B50B680360B9
:105010004D6843689D42044608D015B16B68013362
:105020006B60606808B1FFF76AFE656038BD07B560
:1050300003688DF807109B6801220DF1070198475E
:1050400003B05DF804FB0B461146002210B5C0E921
:105050000022044683600BB9204610BDFFF7D5FF40
:10506000FAE78368EBB11A78032A1AD8DFE802F06E
:105070000417021B0520704702685B685268D05C09
:105080002D2812D0A0F13003092B0ED974280ED090
:1050900066280CD0A0F16E03584258417047062094
:1050A000704700207047042070470320704702209B
:1050B000704710B50446FFF7D4FF02280ED0C31E78
:1050C000DBB2012B14D82268A36850685B68BDE886
:1050D00010400A220021184402F0BCBA2268A368DA
:1050E00052685B68D05CA0F174035842584110BD0F
:1050F0000020FCE738B50023C0E9003304460E4821
:10510000C4E90203A9B10B78032B06D08BB913684D
:1051100058684B68C35C6E2B07D013684D6858689D
:105120008B6828445B1BA060E36011462046FFF7B4
:105130006CFF204638BD00BFC0770B0038B5002596
:105140000B46C0E90055C0E90255C0E904550446C4
:1051500011464BB11A78012A06D103F11002DB681F
:1051600082604361FFF751FF204638BD10B54369A7
:10517000044663B18068E060013B1030A0602061AC
:10518000636113B1FFF7F2FEA060012000E0184652
:1051900010BD10B57D210446FFF749FF012323719F
:1051A000204610BD08B50379012B02D0022B04D094
:1051B00008BD2C21FFF73BFFFAE73A21FAE710B5CB
:1051C0000446FFF7EFFF20467B21FFF730FF002367
:1051D0002371204610BD000013B504460191FFF76E
:1051E000E1FF2368019ADB680349204698470123C1
:1051F0002046237102B010BD047A0B0013B504469B
:105200000191FFF7CFFF2368019ADB68034920462D
:10521000984701232046237102B010BD077A0B0086
:105220002DE9F0470D46222190460446FFF7FFFE88
:10523000DFF8A490A8442F464745BA463DD017F85A
:10524000016B222E06D05C2E04D0304602F0C0F84E
:105250000028F1D12368AAEB05029B682946204665
:1052600098475C212046FFF7E2FE0D2E0AD8072E54
:105270001CD9A6F10803052B18D8DFE803F00D0FA1
:1052800011171315222E01D05C2E0FD13146204666
:10529000FFF7CDFE3D46CFE76221F8E77421F6E740
:1052A0006E21F4E76621F2E77221F0E723683246C7
:1052B000DB68494620469847ECE7BD4205D02368A5
:1052C0007A1B9B6829462046984722212046FFF7F3
:1052D000AEFEBDE8F08700BF0A7A0B0013B50446A6
:1052E000CDE90021FFF75EFF2046DDE90021FFF751
:1052F00097FF02232046237102B010BD13B5044668
:10530000CDE90021FFF74EFF2046DDE90021FFF740
:1053100087FF01232046237102B010BD8068036817
:10532000DB6818477047084611B10B685B6818477F
:105330007047704770477047704738B504460D4650
:1053400000682E2102F0B7F82368C31A2B6023B13E
:10535000037803B1013023682060184638BD10B5CA
:105360000C210446FEF79BFE204610BD10B504211B
:105370000446FEF794FE204610BD10B504210446F5
:10538000FEF78DFE204610BDFFF792BA08B502F079
:105390009CF8B0FA80F0400908BD704710B50C4683
:1053A00001F0F4F9844210D001F0C6FB844205D12B
:1053B00001F0C2FBBDE8104001F083B92CB12368B5
:1053C00020465B68BDE81040184710BD0B680360BD
:1053D0004B68436013B15A6801325A60704713B585
:1053E00004460846019102F082F8019902462046DF
:1053F00002B0BDE81040FFF781BF13B50446084670
:10540000019102F074F823680199DB680246204696
:1054100002B0BDE81040184707B503688DF80710C3
:10542000DB6801220DF10701984703B05DF804FB2A
:105430000EB403B503AB002153F8042B006A0193AB
:1054400000F0E7FF02B05DF804EB03B070470A68B4
:1054500002604A6842600022C0E9022210B502617F
:105460008C688460CC68C4600C698A60CA6004611E
:105470000A6110BD2DE9F74FD0E900844FF0140AFE
:1054800000930AFB04F4184BA41017465C434546EE
:10549000002C21DD66100AFB06F005EB00093A46F8
:1054A000B9F804B0285801915F4528BF5A4602F068
:1054B00026F8002801994FF001030BD15F4503D175
:1054C000009A13703446E3E7FCD9A61B09F11405D2
:1054D000013EF7E7F9DBF5E7A5EB08050248AD105B
:1054E000684303B0BDE8F08FCDCCCCCC7FB5036969
:1054F000057E019103B3F9B1002600F10C04039677
:1055000003A901A8FFF719FF0146A8B10DF10B038C
:10551000039A8DF80B602046FFF7ACFF9DF80B3027
:1055200053B12368142404FB0034083434F9023CDA
:10553000002BA8BFDDB2E3E7284604B070BD000031
:1055400010B5094C2378BFF35B8FDB0709D42046E5
:10555000FEF7B4FD28B12046FEF7B5FD034801F083
:1055600031FF034810BD00BFA0E6032033530B00FA
:10557000ACE5032010B5094C2378BFF35B8FDB0744
:1055800009D42046FEF79AFD28B12046FEF79BFD80
:10559000034801F017FF034810BD00BFA4E6032035
:1055A0009B530B00B0E5032038B500250446C0E945
:1055B0000055C0E904558560856140F8245FFFF718
:1055C00067F9FFF7BDFFE061FFF7D4FF25732062A5
:1055D000204638BD10B50A4C2378BFF35B8FDB073C
:1055E0000CD42046FEF76AFD40B10648FFF7DCFF09
:1055F0002046FEF768FD044801F0E4FE014810BDB6
:105600009CE60320ACE60320295B0B00024A034919
:1056100003480023FFF79CBA0D590B0099580B0063
:1056200019580B0000231A4619461846FFF790BA7E
:1056300037B58D6804466846FFF7C8FE6A462946B6
:105640002046FFF77BFD01A8FFF77FFB204603B054
:1056500030BD37B5CD6804466846FFF7B7FE6A46E9
:1056600029462046FFF746FD01A8FFF76EFB2046BE
:1056700003B030BD37B50D6904466846FFF7A6FE96
:105680006A4629462046FFF7DEFC01A8FFF75DFBCE
:10569000204603B030BD000070B58AB00D4601460B
:1056A00004A8FFF7C5FF144E04A8FFF75FFDE8B19B
:1056B00004A96846FFF7CDFF02983146FFF766FE62
:1056C000044610B12C1E18BF012401A8FFF73DFBB2
:1056D000002CE9D004A96846FFF7CCFF6846FFF725
:1056E000E8FC286001A8FFF730FBDDE705A8FFF71D
:1056F0002CFB0AB070BD00BF107A0B0037B50C460A
:1057000020461349154601F0E0FE50B901F03EF87D
:105710004FF4165101F02AF803B0BDE8304001F013
:1057200035B80C49204601F0D0FE78B94FF4165335
:1057300001A928460193FFF7AFFF01F0FDF9019998
:1057400000F0BCFF01F0F8F903B030BD0020FBE72A
:10575000157A0B001C7A0B0070B5D0E900531426A3
:10576000044606FB0356AE4205D005F10800FFF7DC
:10577000F3FF1435F7E72068FFF78EFA204670BD77
:1057800010B504460C30FFF7E7FF2046FFF7CBFAD1
:10579000204610BD10B5044B044640F8043BFFF70B
:1057A000EFFF204610BD00BF64790B0010B5044622
:1057B000FFF7F0FF20462421FEF771FC204610BDC4
:1057C00010B5034B03600446FFF7E4FF204610BD0D
:1057D000B47A0B0010B50446FFF7F2FF20462421EF
:1057E000FEF75DFC204610BD0022C0E9002210B586
:1057F00082600C6804604C6844608C680A604A608F
:1058000084608A6010BD10B5036804461868FFF70D
:1058100057F8204610BD00002DE9F04F87B08046B4
:1058200003931C4B5B68C3F30803894616466BB9A8
:10583000FFF7D0FE044600F12403406A0593FFF70A
:10584000A3FD237B2BB105A8FFF7DDFF07B0BDE863
:10585000F08F01232373D4E900535FFA89F905EB34
:10586000830AAA4512D055F8047B3146381DFFF74C
:105870003DFE8145F5D33B68039A0092D3F808B00A
:105880004A46334641463846D847EAE70023237361
:10589000D9E700BF00ED00E02DE9F74F9B461A4B1A
:1058A0005B68C3F308038046894616466BB9FFF769
:1058B00091FE044600F12403406A0193FFF764FD62
:1058C000237B2BB101A8FFF79EFF03B0BDE8F08F4B
:1058D00001232373D4E90053F6B205EB830A55453F
:1058E0000ED055F8047B5946381DFFF7FFFD864260
:1058F000F5D33B684A46DB68414638469847EEE7B1
:1059000000232373DEE700BF00ED00E02DE9F34143
:10591000164B5B68C3F3080305460F461BBBFFF736
:1059200059FE00F124030446406A0193FFF72CFD61
:10593000D4E90063462406EB8308B04509D101A8E9
:10594000FFF761FFA542B4BF0020012002B0BDE80F
:10595000F08156F8040B39460430FFF7C7FD844246
:10596000A8BF0446E9E70020F0E700BF00ED00E033
:10597000F8B5D0E901539D4204460E460DDB6F1C7D
:10598000002F006804DDB900FFF78EF918B9F8BDE3
:10599000FFF782F900202060A7602768626807EBA4
:1059A00085019200A2EB8502081D01F027FD47F852
:1059B00025606368013363600120E8E737B500F1D3
:1059C00024030446406A01930D46FFF7DDFCD4E949
:1059D000003203EB8202934219460BD00968A942B8
:1059E00003F10403F7D101A8FFF70DFF00252846B6
:1059F00003B030BD29462046FFF7BAFF0546002810
:105A0000F1D06368012B01D1FFF700FE01A8FFF779
:105A1000FAFEECE770B50446D0E900020B4600EB55
:105A2000820282420FD001461D6851F8046BAE42DB
:105A300007D1521A01F0E2FC6368013B6360012068
:105A400070BD0846EDE70020FAE71FB500F124031A
:105A50000446406A01910393FFF796FC01A9204692
:105A6000FFF7D8FF18B163680BB9FFF7DBFD03A898
:105A7000FFF7C9FE04B010BD70B5D0E90456182375
:105A8000044603FB0656AE4215D005F11001204630
:105A9000FFF7C0FF63680BB9FFF7C4FDE069296930
:105AA0000368DB689847696919B1206A0368DB6895
:105AB00098471835E7E7D4E90453182606FB035640
:105AC000AE4204D0284600F0E5FC1835F8E7002384
:105AD000636170BD73B50446FFF7A4FD04F12403B0
:105AE000606A0193FFF750FC2046FFF7C5FF01A84D
:105AF000FFF789FE606A08B1FEF7D2FED4E90453CD
:105B0000182606FB0356AE4204D0284600F0C2FC1D
:105B10001835F8E72069FFF7BFF82068FFF7BCF8F1
:105B2000204602B070BD00000148FFF7D3BF00BFA0
:105B3000ACE603208842F8B504460D46164615D952
:105B4000904214D2A2F11406751AA1F114072C4444
:105B5000B7421AD01CB131462046FFF778FC06F157
:105B60000800FFF7F9FD143E143CF1E70DD0B542F3
:105B70000BD01CB129462046FFF769FC05F108004F
:105B8000FFF7EAFD14351434F1E7F8BD8842F8B5A3
:105B900004460D46164614D9904213D2A2F11006BF
:105BA000751AA1F110072C44B74218D01CB1314628
:105BB000204600F0EBFC304600F06CFC103E103C40
:105BC000F2E70CD0B5420AD01CB12946204600F0BD
:105BD000DDFC284600F05EFC10351034F2E7F8BD1D
:105BE00070B50E1E054611DD3001FFF74DF8044675
:105BF00058B1D5E9001201EB0212FFF7C7FF286880
:105C0000FFF74AF82C60AE60012070BD0024F6E773
:105C10002DE9F04F904695B000230391D8F8041079
:105C20000A9346229942C0E90033C0E90233C0E931
:105C30000433CDE908330446027623DCD8E9005763
:105C4000142303FB0757AF423BD029460BA800F0B3
:105C50009DFC0BA90FA8099E00F098FCDDE9091333
:105C600099421BDA089B099A03EB061603EB021212
:105C7000314606F11000FFF789FFEEB9099B0133A9
:105C8000099311E008A8FFF7ABFF0028D6D108A8B8
:105C9000FFF749F8204615B0BDE8F08F013108A89C
:105CA000FFF79EFF0028DDD10FA800F0F3FB0BA843
:105CB00000F0F0FB1435C6E70FA9304600F066FC93
:105CC000DCE70026CDE90B660D964FF01409DDE9FF
:105CD00008239E427CDA3301D35806930BB9013670
:105CE000F5E70023079309FB06F302930BAD07A921
:105CF00006A8FFF722FB82460028F0D04FF00003F1
:105D00008DF817300146079A0DF117032846FFF763
:105D1000B1FB9DF817700190002F4AD1BDF81C30DF
:105D2000ADF84030CDE911774FF6FF73CDF83CA0C8
:105D3000ADF842301397D5E90132934217DB03F1F6
:105D4000010ABAF1000F30DD09FB0AF0FEF79CFFF3
:105D5000834660B3D5E9001209FB0212FFF7EAFEA1
:105D60002868FEF799FFC5F800B0C5F808A02B68B1
:105D7000019A09FB023A6A68514609FB02320AF1AC
:105D80001400FFF7D7FEBAF1000F03D00FA9504659
:105D9000FFF75DFB6B6801336B6011A8FFF7DCFC5C
:105DA0003FB10BA8FFF7D8FC71E7BB46D8E7012746
:105DB000F3E7019B2D6809FB0355069B1B782BB964
:105DC000D8F80030029A13441B7CEB8008358EE72C
:105DD0002168226062686360A36809920A9A0A9344
:105DE000E368A2600B9A0B932369E2600C9A0C9310
:105DF000636922610D9A0D93039B0891626123767A
:105E0000CFE70000F0B5044687B00D462646194698
:105E100068461746FEF7EEFA0B4B46F8043B694618
:105E200003A8FEF7E7FA03AA39463046FFF7F0FE6B
:105E300003A8FEF783FA6846FEF780FA034B236057
:105E40002046256207B0F0BD64790B009C7A0B00F8
:105E5000F0B50F4685B01D490A9C384616461D46CA
:105E600001F033FBC0B9A4B1294601A8FFF7BCFC7F
:105E70001749242000F084FE054630B101AB3246BC
:105E80002146FFF7BFFF134B2B6001A8FEF756FA20
:105E90002C46204605B0F0BD0F49384601F015FBF1
:105EA00090B9002CF5D0294601A8FFF79DFC0849C0
:105EB000242000F065FE05460028E6D001AB3246FE
:105EC0002146FFF79FFFE0E70024E2E7247A0B007A
:105ED000E87B0B00B47A0B00287A0B00014B024AD6
:105EE0001A607047A8E6032057790B002DE9F047A8
:105EF000089DD0F8209004460E461746984600F0BC
:105F000045FC81454CD02B79190704D56A69544961
:105F10002046FFF78DFAB8F1000F0DD05B21204627
:105F2000FFF77AFA41462046FFF767FA23684D49A2
:105F3000DB680222204698472B79DA0723D5D5F86B
:105F400008802F21404601F0EEFA08B100F1010867
:105F500041462046FFF751FA2B799B0708D53A2195
:105F60002046FFF759FAEA683F492046FFF760FAF2
:105F70002A79236812F0040FDB6814BF3B493C49BF
:105F80000222204698472B7958071DD529690B46D0
:105F90001A4613F8010B60B1202808D11946F7E71B
:105FA000344800F066F90028ADD0BDE8F087282815
:105FB000EED12368521ADB682046984723682E49A1
:105FC000DB6804222046984700213846FEF7B8FDDA
:105FD00001462046FFF711FA23682549DB680222B3
:105FE000204698471EB131462046FFF706FA2B7926
:105FF00013F0300F2CD023682049DB6802222046A2
:1060000098472B79D9060AD523681D49DB680722F2
:1060100020469847AA691B492046FFF709FA2B79C1
:106020009A0611D5DB0605D523681049DB680222E4
:106030002046984723681449DB6820460A2298477F
:10604000E9692046FFF7D9F95D212046FFF7E4F919
:1060500023680E49DB6820460222BDE8F047184756
:10606000397A0B00407A0B00047A0B00437A0B005C
:10607000487A0B00D4E60320467A0B004B7A0B00DB
:106080004E7A0B00567A0B00597A0B00BE770B0044
:106090002DE9F04385B0D0F820900C9C05460F46C2
:1060A00090461E4600F072FB814505D1494800F03C
:1060B000E0F8002840F08A802B6A474A01924FF0AE
:1060C000000901A803938DF80890FFF778F8494676
:1060D0004046FEF735FD41498046012201A8FFF701
:1060E000FDF84146FFF77BF93FB13D49012201A888
:1060F000FFF7F4F83946FFF772F93EB1394901224A
:1061000001A8FFF7EBF83146FFF769F92379DF07BC
:106110000ED5A6682F21304601F005FA00B1461CC5
:106120003149012201A8FFF7D9F83146FFF757F9A5
:1061300023799E0707D52D49022201A8FFF7CEF843
:10614000E168FFF749F82379580714D526693346E3
:106150001F4613F8012B2AB1202A01D11E46F7E76A
:10616000282AF5D12249022201A8FFF7B7F8BA1B65
:106170003146FFF7C3F82379190707D51D490122D6
:1061800001A8FFF7ABF86169FFF738F82379DA0661
:1061900008D5042218490DEB0200FFF79FF8A1690A
:1061A000FFF71AF823799B0607D51449062201A8A0
:1061B000FFF794F8E169FFF712F901A8FEF7E9FF8C
:1061C000286A0F4903680222DB68984705B0BDE8DA
:1061D000F08300BFD4E60320847A0B001A7A0B0008
:1061E000647A0B00577C0B006C770B00667A0B000F
:1061F000697A0B006C7A0B006E7A0B00737A0B00D5
:10620000BE770B00002340681A46FEF7DDBC4068ED
:1062100000220221FEF7E8BC002240681146FEF78A
:10622000DBBC002240681146FEF7E6BC0023406854
:106230001A461946FEF7E8BC002340681A4619467C
:10624000FEF7EABC40680021FEF70EBD4068002161
:10625000FEF712BD4068002281F00101FEF7E4BCA8
:1062600040680022FEF7F0BC002240681146FEF7AD
:10627000F3BC002240681146FEF7DEBC2DE9F04376
:1062800095B014460D460746FEF732FE00211C224B
:106290000DA8009101F0CCF840230C9320466B46EA
:1062A0000CAA0021FEF794FB044600284BD10246BD
:1062B00001216868FEF7A0FC02218046224668683A
:1062C000FEF79AFC009E81462146002E3BD0002915
:1062D00039D17368022B03D00A2B11D0F669F4E789
:1062E000B8F1000FFAD0716906A8043107ADFEF7C6
:1062F0002DFE0FCD3C1D0FC42B6823704146EDE7EA
:10630000B9F1000FEAD07469102201A801F090F8E9
:1063100006238DF8143001AD04F108031834186811
:1063200059682A4603C20833A3421546F7D101A98A
:1063300006A807ADFEF7EAFD0FCD3C1D0FC42B6884
:1063400023704946CAE70098FEF73AFB384615B075
:10635000BDE8F083024B034A1A6000225A6070477E
:10636000D4E60320FC7A0B00F8B506460D468F18DC
:106370000024BD420CD0336815F8011B9B683046E1
:106380009847031E01DB1C44F3E7002C08BF1C46A2
:106390002046F8BD13B50446084659B1019101F0F5
:1063A000A6F823680199DB680246204602B0BDE8E2
:1063B0001040184702B010BD03689B68184738B5F5
:1063C0000D210546FFF7F8FF0A2104462846FFF78E
:1063D000F3FF204438BD30B58BB00023012A8DF87F
:1063E000243098BF0A2209AC0D46B1FBF2F101FB43
:1063F000125303F0FF03092B94BF30333733DBB262
:10640000AA4204F8013DEFD92146FFF7C3FF0BB0C4
:1064100030BD2DE9F04186B000AF05460E46381D6F
:10642000142114463B60FEF747FC13280ED8391D93
:106430002846FFF7AFFF04461EB12846FFF7BFFF0F
:10644000044420461837BD46BDE8F08100F108033A
:1064500023F00703E846ADEB030D2246411C3B68E1
:106460006846FEF729FC69462846FFF793FF044675
:10647000C546E1E7014B00229A607047DCE6032045
:1064800010B5044608462170FEF7AAFA002363609F
:10649000204610BD10B504460068FEF7FDFB2046FF
:1064A00010BD10B50446006808B1FEF7F5FB0023E7
:1064B000C4E90133236010BD38B504460D460068B9
:1064C0000131FEF7F1FB10B1C4E90005012038BD30
:1064D00010B50368044623B143688B4201D3012001
:1064E00010BD2046FFF7E8FF0028F9D0A368002B75
:1064F000F5D122681370F2E737B50D4611460192C7
:106500000446FFF7E5FF019A28B92046FFF7C9FFC7
:10651000204603B030BDA2602946206800F060FF2D
:106520002268A3680021D154F2E7002313B5C0E923
:10653000003304468360037341B10846019100F0C3
:10654000D6FF019902462046FFF7D6FF204602B04B
:1065500010BD38B5054600680C4668B16A688B689E
:106560009A4207D3096800F0BAFFA368AB60002322
:10657000A36038BDFEF790FB23682B6063686B60F7
:10658000A368AB600023C4E90033F1E710B5002332
:10659000C0E90033044683600373FFF7DAFF204647
:1065A00010BD884210B5044605D00B682BB18A682F
:1065B0001946FFF7A1FF204610BDFFF772FFFAE76B
:1065C00010B500230446C0E9003383600373FFF76E
:1065D000E8FF204610BD0000054B02221A60054B63
:1065E000054A9A600020C3E90000FEF7B9BA00BF6F
:1065F000F8E60320ECE603200000FFFF024B1A68D8
:10660000024B1A60704700BFB4E50320FCE603208C
:1066100070474174704708B5007CFEF729FA20EAFC
:10662000E07008BD08B5007CFEF7FAF920EAE070DA
:1066300008BD08B5007CFEF703FA40EAE07008BD2B
:1066400008B5007CFEF7F4F940EAE07008BD007C74
:10665000FEF7FEB937B5457C04462DB1207C03B06A
:10666000BDE83040FEF7D4B9007C0191FEF700FA96
:1066700000280199F2DC284603B030BD10B5142182
:106680000446FDF70CFD204610BD000010B54FF488
:106690007A730446084611460022C4E90123044BDC
:1066A0002360012320746374FEF7F2F9204610BDC5
:1066B000547B0B00007C0023FEF7E2B90022FFF7B9
:1066C000F9BF007CFEF79CB9417470477047704772
:1066D00008B50021007CFEF70BFA40EAE07008BD27
:1066E00008B50121007CFEF703FA40EAE07008BD1E
:1066F00008B5007CFEF7F4F920EAE07008BD08B5A3
:10670000007CFEF7E5F920EAE07008BD13B5044609
:10671000007C0191FEF7E4F90028019901DC607C1E
:1067200020B1207CFEF7ECF920EAE07002B010BD49
:10673000007CFEF7EDB910B514210446FDF7AFFC5F
:10674000204610BD10B54FF47A7304460846002168
:10675000C4E90113044B23600123207463741146C0
:10676000FEF79EF9204610BD847B0B00007C0022C2
:10677000FEF79EB9007CFEF7A3B910B514220446BB
:10678000002100F055FE204610BD000010B50F4C52
:1067900088B003A8FFF7F1FF2178BFF35B8F11F0FA
:1067A00001010FD120460191FDF788FC019948B104
:1067B00003AA0748FFF7C6FF2046FDF784FC0548FB
:1067C00000F000FE024808B010BD00BF00E7032043
:1067D00004E70320CD660B00002240681146FEF757
:1067E0000BBA002240681146FEF726BA0022406824
:1067F0001146FEF731BA40680022FEF725BA40681C
:10680000002281F00101FEF70FBA002340681A460A
:106810001946FEF701BA002340681A461946FEF7EA
:10682000F3B9002240681146FEF7D6B9406800224D
:106830000221FEF7D9B9002340681A46FEF7C4B911
:10684000024B04225A60024A1A60704718E703207C
:10685000B47B0B00014B1860704700BFB8E5032004
:1068600008B50B4B43B1FFF791FF03681B699847CD
:10687000002801DDAFF30080064B43B100F05CF966
:1068800003681B699847002801DDAFF3008008BD4D
:10689000000000000000000008B5FFF7E1FFFEF770
:1068A00027F8014B186008BD28E703200548064A71
:1068B000064908B5121A00F093FD054B054A1A6007
:1068C00008BD00BF00F4032004F40320A47D0B00E6
:1068D00000F403201E1C279A07B5002300931A46D4
:1068E0006FF07701FEF75EF903B05DF804FB00007E
:1068F00007B543880A2B08D0502B0BD1094B1B68D6
:106900004BB103B05DF804EB1847FFF7E5FF03B0A8
:106910005DF804FB002300931A466FF07701FEF741
:1069200041F9F4E724E7032010B512480021FEF7EF
:10693000DBF9114B1A68114B9A42114B0CBF012223
:1069400000221A7001D0FFF7B1FFFDF7C1FF044626
:1069500000F076FD0B4B13B12046AFF30080002111
:106960000848FEF729F9BDE8104007480021FEF766
:106970000FB900BF55680B0000F403201E1C279AB6
:1069800020E7032000000000F1680B00232813B566
:1069900002D9002002B010BDA0F10B03022B1AD8BF
:1069A000174C2178BFF35B8F11F001010BD120460A
:1069B0000191FDF783FB019928B11248FFF760FDB3
:1069C0002046FDF780FB0F4B1878FEF711F80028E2
:1069D000DFD10120DEE7012809D800F06DF80021A1
:1069E000007CFDF7D5FF80F00100C0B2D2E7093886
:1069F0000128EED800F0A0F8007CFEF731F8F2E7AD
:106A000084E6032088E60320232838B504460D4693
:106A10000AD8FF2908D0FFF7B9FF28B12946204638
:106A2000BDE83840FDF76CBF38BD38B504460D46AB
:106A3000FDF76EFFFF2810D0062804D84D2323FA57
:106A400000F0C30709D42046FFF7A0FF28B129466C
:106A50002046BDE83840FDF763BF38BD10B5044699
:106A6000FDF756FF031FDBB2012B08D92046FFF7C5
:106A70008DFF20B12046BDE81040FDF759BF002032
:106A800010BD704738B50A4B0360012304464361CB
:106A90000849202000F076F8202560600549A560AF
:106AA000284600F06FF8C4E90305204638BD00BF52
:106AB00018000100E87B0B0030B50E4D2978BFF3BC
:106AC0005B8F11F0010487B011D12846FDF7F6FA6B
:106AD00068B16846FFF7D6FF6A4621460648FEF7CA
:106AE000AFF92846FDF7EFFA044800F06BFC0248C6
:106AF00007B030BD2CE7032030E70320836A0B008A
:106B00007047000038B5044614252A46002100F0DD
:106B10008FFC25804025074925812846258200F0E5
:106B200031F804496060284600F02CF8E060204607
:106B300038BD00BFE87B0B0030B50E4D2978BFF3A0
:106B40005B8F11F0010487B011D12846FDF7B6FA2A
:106B500068B101A8FFF7D6FF01AA21460648FFF752
:106B600095FD2846FDF7AFFA044800F02BFC0248DB
:106B700007B030BD44E7032048E70320016B0B005A
:106B8000FDF789BAFDF789BA81F0004102E000BF44
:106B900083F0004330B54FEA41044FEA430594EADD
:106BA000050F08BF90EA020F1FBF54EA000C55EA18
:106BB000020C7FEA645C7FEA655C00F0E2804FEAE9
:106BC0005454D4EB5555B8BF6D420CDD2C4480EACB
:106BD000020281EA030382EA000083EA010180EAFB
:106BE000020281EA0303362D88BF30BD11F0004F49
:106BF0004FEA01314FF4801C4CEA113102D040427F
:106C000061EB410113F0004F4FEA03334CEA1333B9
:106C100002D0524263EB430394EA050F00F0A780D1
:106C2000A4F10104D5F1200E0DDB02FA0EFC22FACC
:106C300005F2801841F1000103FA0EF2801843FAC0
:106C400005F359410EE0A5F120050EF1200E012AB1
:106C500003FA0EFC28BF4CF0020C43FA05F3C018EF
:106C600051EBE37101F0004507D54FF0000EDCF168
:106C7000000C7EEB00006EEB0101B1F5801F1BD311
:106C8000B1F5001F0CD349085FEA30004FEA3C0C15
:106C900004F101044FEA445212F5800F80F09A800B
:106CA000BCF1004F08BF5FEA500C50F1000041EB0F
:106CB000045141EA050130BD5FEA4C0C404141EB13
:106CC0000101013C28BFB1F5801FE9D291F0000F0E
:106CD00004BF01460020B1FA81F308BF2033A3F1BD
:106CE0000B03B3F120020CDA0C3208DD02F1140CB4
:106CF000C2F10C0201FA0CF021FA02F10CE002F1EF
:106D00001402D8BFC2F1200C01FA02F120FA0CFCE7
:106D1000DCBF41EA0C019040E41AA2BF01EB045130
:106D2000294330BD6FEA04041F3C1CDA0C340EDC2E
:106D300004F11404C4F1200220FA04F001FA02F371
:106D400040EA030021FA04F345EA030130BDC4F12F
:106D50000C04C4F1200220FA02F001FA04F340EA24
:106D60000300294630BD21FA04F0294630BD94F0D5
:106D7000000F83F4801306BF81F480110134013DBC
:106D80004EE77FEA645C18BF7FEA655C29D094EA2D
:106D9000050F08BF90EA020F05D054EA000C04BFAB
:106DA0001946104630BD91EA030F1EBF0021002096
:106DB00030BD5FEA545C05D14000494128BF41F035
:106DC000004130BD14F580043CBF01F5801130BD99
:106DD00001F0004545F0FE4141F470014FF0000024
:106DE00030BD7FEA645C1ABF194610467FEA655CD5
:106DF0001CBF0B46024650EA013406BF52EA033577
:106E000091EA030F41F4002130BD00BF90F0000F64
:106E100004BF0021704730B54FF4806404F13204A0
:106E20004FF000054FF0000150E700BF90F0000F59
:106E300004BF0021704730B54FF4806404F1320480
:106E400010F0004548BF40424FF000013EE700BF50
:106E500042004FEAE2014FEA31014FEA02701FBFE0
:106E600012F07F4393F07F4F81F06051704732F012
:106E70007F4208BF704793F07F4F04BF41F4002169
:106E8000704730B54FF4607401F0004521F00041C7
:106E90001CE700BF50EA010208BF704730B54FF051
:106EA00000050AE050EA010208BF704730B511F052
:106EB000004502D5404261EB41014FF4806404F18A
:106EC00032045FEA915C3FF4D8AE4FF003025FEA10
:106ED000DC0C18BF03325FEADC0C18BF033202EB94
:106EE000DC02C2F1200300FA03FC20FA02F001FAEE
:106EF00003FE40EA0E0021FA02F11444BDE600BF91
:106F000070B54FF0FF0C4CF4E06C1CEA11541DBF3F
:106F10001CEA135594EA0C0F95EA0C0F00F0DEF80A
:106F20002C4481EA030621EA4C5123EA4C5350EAEF
:106F3000013518BF52EA033541F4801143F4801340
:106F400038D0A0FB02CE4FF00005E1FB02E506F0D1
:106F50000042E0FB03E54FF00006E1FB03569CF026
:106F6000000F18BF4EF0010EA4F1FF04B6F5007F2C
:106F700064F5407404D25FEA4E0E6D4146EB06069E
:106F800042EAC62141EA55514FEAC52040EA5E5027
:106F90004FEACE2EB4F1FD0C88BFBCF5E06F1ED8D1
:106FA000BEF1004F08BF5FEA500E50F1000041EB08
:106FB000045170BD06F0004646EA010140EA0200B5
:106FC00081EA0301B4EB5C04C2BFD4EB0C0541EAD7
:106FD000045170BD41F480114FF0000E013C00F3EC
:106FE000AB8014F1360FDEBF002001F0004170BD10
:106FF000C4F10004203C35DA0C341BDC04F1140429
:10700000C4F1200500FA05F320FA04F001FA05F2B4
:1070100040EA020001F0004221F0004110EBD37081
:1070200021FA04F642EB06015EEA430E08BF20EAAD
:10703000D37070BDC4F10C04C4F1200500FA04F350
:1070400020FA05F001FA04F240EA020001F00041E2
:1070500010EBD37041F100015EEA430E08BF20EA55
:10706000D37070BDC4F1200500FA05F24EEA020E9D
:1070700020FA04F301FA05F243EA020321FA04F0CC
:1070800001F0004121FA04F220EA020000EBD37083
:107090005EEA430E08BF20EAD37070BD94F0000F83
:1070A0000FD101F00046400041EB010111F4801FB7
:1070B00008BF013CF7D041EA060195F0000F18BF68
:1070C000704703F00046520043EB030313F4801FA4
:1070D00008BF013DF7D043EA0603704794EA0C0F5E
:1070E0000CEA135518BF95EA0C0F0CD050EA410674
:1070F00018BF52EA4306D1D181EA030101F00041F1
:107100004FF0000070BD50EA410606BF1046194618
:1071100052EA430619D094EA0C0F02D150EA013624
:1071200013D195EA0C0F05D152EA03361CBF104665
:1071300019460AD181EA030101F0004141F0FE4104
:1071400041F470014FF0000070BD41F0FE4141F488
:10715000780170BD70B54FF0FF0C4CF4E06C1CEA88
:1071600011541DBF1CEA135594EA0C0F95EA0C0F3D
:1071700000F0A7F8A4EB050481EA030E52EA0335F8
:107180004FEA013100F088804FEA03334FF0805519
:1071900045EA131343EA12634FEA022245EA111546
:1071A00045EA10654FEA00260EF000419D4208BFF7
:1071B000964244F1FD0404F5407402D25B084FEAA4
:1071C0003202B61A65EB03055B084FEA32024FF450
:1071D00080104FF4002CB6EB020E75EB030E22BFAD
:1071E000B61A754640EA0C005B084FEA3202B6EB6D
:1071F000020E75EB030E22BFB61A754640EA5C001C
:107200005B084FEA3202B6EB020E75EB030E22BFAB
:10721000B61A754640EA9C005B084FEA3202B6EBAC
:10722000020E75EB030E22BFB61A754640EADC006B
:1072300055EA060E18D04FEA051545EA16754FEACD
:1072400006164FEAC30343EA52734FEAC2025FEAEB
:107250001C1CC0D111F4801F0BD141EA00014FF07A
:1072600000004FF0004CB6E711F4801F04BF01434B
:107270000020B4F1FD0C88BFBCF5E06F3FF6AFAE67
:10728000B5EB030C04BFB6EB020C5FEA500C50F1F7
:10729000000041EB045170BD0EF0004E4EEA11317A
:1072A00014EB5C04C2BFD4EB0C0541EA045170BD81
:1072B00041F480114FF0000E013C90E645EA060EC5
:1072C0008DE60CEA135594EA0C0F08BF95EA0C0FF3
:1072D0003FF43BAF94EA0C0F0AD150EA01347FF43B
:1072E00034AF95EA0C0F7FF425AF104619462CE712
:1072F00095EA0C0F06D152EA03353FF4FDAE104675
:10730000194622E750EA410618BF52EA43067FF4C5
:10731000C5AE50EA41047FF40DAF52EA43057FF455
:10732000EBAE12E74FEA4102B2F1E04324BFB3F5FE
:10733000001CDCF1FE5C0DD901F0004C4FEAC002EC
:107340004CEA5070B2F1004F40EB830008BF20F0D0
:107350000100704711F0804F21D113F13872BCBF8A
:1073600001F00040704741F480114FEA5252C2F1DF
:107370001802C2F1200C10FA0CF320FA02F018BF28
:1073800040F001004FEAC1234FEAD32303FA0CFC7B
:1073900040EA0C0023FA02F34FEA4303CCE77FEA0A
:1073A000625307D150EA01331EBF4FF0FE4040F454
:1073B0004000704701F0004040F0FE4040F4000003
:1073C000704700BF002301461A46184600F04CB92A
:1073D000024B1844407800F097007047597C0B002E
:1073E0000A44914200F1FF3300D1704710B511F803
:1073F000014B03F8014F9142F9D110BD884210B5FD
:1074000001EB020402D98442234607D8431EA1425D
:1074100008D011F8012B03F8012FF8E702440146C8
:107420008A4200D110BD13F8014D02F8014DF7E773
:1074300002440346934200D1704703F8011BF9E769
:1074400038B5104B1D68AB6B0446B3B91820FDF777
:107450001BFC0246A86320B90B4B0C484221FDF7E8
:107460003BFC0B490B4BC0E900130B4B83600B2318
:10747000838100210120C2E90401AB6B00221C6161
:107480005A6138BDB8E50320E97B0B00007C0B0096
:107490000E33CDAB34126DE6ECDE0500C9B2034607
:1074A00010F8012B1AB18A42F9D118467047002909
:1074B00018BF0023F9E710B50446FFF7EFFF18B92E
:1074C000204600F014F8204410BD10F8012B11F8EC
:1074D000013B012A28BF9A42F7D0D01A70470346D1
:1074E00011F8012B03F8012B002AF9D1704703464C
:1074F00013F8012B002AFBD1181A0138704710B578
:107500007AB103460139841813F8010B11F8012FE1
:10751000904201D1A34201D1801A10BD0028F3D1BD
:10752000FAE71046F9E738B503460C4669B9BDE8F5
:107530003840FFF7B3BF431C054621461846FFF706
:10754000ADFF0028F7D1284638BD0025F5E700003B
:10755000012B2DE9F04701D0242B06D9FDF7B4FB10
:10756000162303600020BDE8F087DFF8E4C00D4675
:107570002E4615F8014B14F80C7017F00807F7D1D8
:107580002D2C32D12C780127B51C002B5BD0102B71
:1075900009D1302C07D12C7804F0DF04582C4DD1C0
:1075A0006C781023023507F1004808F1FF384FF0DE
:1075B000000CB8FBF3F9664603FB198AA4F1300E00
:1075C000BEF1090F16D87446A34224DDBCF1000FAA
:1075D0001EDBB1451CD301D1A24519DB06FB0346D6
:1075E0004FF0010C15F8014BE8E72B2C04BF2C7869
:1075F000B51CCAE7A4F1410EBEF1190F01D8373C02
:10760000E2E7A4F1610EBEF1190F04D8573CDBE7A5
:107610004FF0FF3CE6E7BCF1000F05DA22230360E0
:10762000464642B930469EE707B17642002AF9D075
:10763000BCF1000F00D0691E1160F3E73024002B6D
:10764000B1D10823AFE7302CA5D00A23ABE700BFA8
:107650005A7C0B0013460A46014602480068FFF7B1
:1076600077BF00BFB8E503202DE9F843DFF8B88005
:107670000646D8F800001F460D46914600F056F821
:10768000254B1C6834B9254C1C60254B13B11B6875
:10769000C4F8883063681F2B07DDD8F8000000F0BD
:1076A00047F84FF0FF30BDE8F8834EB3D4F88800B8
:1076B00088B91C4B23B9D8F8000000F038F8F0E77F
:1076C0004FF48470FDF7E0FA0028F4D00023C0E9FD
:1076D0004033C4F88800636840F8239001229A4040
:1076E00000EB8301D0F800311343C0F80031022EC3
:1076F000C1F8807002BFD0F804311343C0F80431E0
:107700006368D8F800005A1C0233626044F82350C2
:1077100000F00EF80020C6E7E8E703205CE703204E
:1077200000000000894C0B001CE6032070477047E6
:107730007047000021400B005D400B0085400B00AE
:1077400089400B000000000043616C6C206F6E20CC
:1077500070757265207669727475616C00202020E6
:1077600020205065736F3A20252E326C66002D2D37
:107770002D2D204170706C69636174696F6E2049B2
:107780006E6974202D2D2D2D002D2D2D2D2D2D2D9F
:107790002D2D2D2D2D2D2D2D2D2D2D2D2D2D2D2D19
:1077A0002D2D0D0A0020202020204C6F61642063C5
:1077B000656C6C20636C69636B20202020200D0AAF
:1077C0000020202020546172652074686520736356
:1077D000616C65203A2020204368616E6E656C20E4
:1077E000412C20204761746520363420200D0A008A
:1077F00020496E2074686520666F6C6C6F77696EC7
:1078000067203130207365636F6E647320706C6520
:107810006173652052454D4F564520616C6C206F59
:10782000626A6563742066726F6D20746865207388
:1078300063616C652E0D0A00202020205374617254
:10784000742074617265207363616C6573202020FD
:10785000200D0A002020202054617272696E67207A
:10786000636F6D706C65746564200D0A0020496E4D
:107870002074686520666F6C6C6F77696E67203165
:1078800030207365636F6E647320706C6163652074
:1078900035303030672077656967687420657461BA
:1078A0006C6F6E206F6E20746865207363616C6509
:1078B00020666F722063616C6962726174696F6EB9
:1078C00020707572706F73652E0D0A0020202020C5
:1078D00053746172742063616C6962726174696F60
:1078E0006E202020200D0A002020202043616C699A
:1078F00062726174696F6E2020446F6E6520202073
:10790000200D0A002D202D202D202D202D202D2072
:107910002D202D202D202D202D202D202D0D0A0055
:107920002020205374617274206D656173757265D7
:107930006D656E7473203A20200D0A0020202043CC
:10794000616C6962726174696F6E20204572726F3A
:10795000722020200D0A00617070000000000000FD
:10796000000000000000000000000000A5400B0027
:10797000CD400B000000000000000000D9400B00CB
:107980000D410B00ED5E0B00CF400B00000000002E
:1079900000000000CB4D0B00C14D0B00B74D0B009C
:1079A000AD4D0B00A14D0B00954D0B0045620B003A
:1079B0004D620B00894D0B00814D0B00774D0B0084
:1079C0006D4D0B007D620B00000000000000000008
:1079D000E94D0B00334E0B000B4E0B00EB4D0B0033
:1079E000134E0B001B4E0B00234E0B002B4E0B00B7
:1079F00000000000000000008D4E0B007D4E0B00CB
:107A00007F4E0B0025640025750075253034780005
:107A1000626175640053657269616C0053657269D7
:107A2000616C31004A534F4E53747265616D4C6FF7
:107A30006748616E646C65720025303130752000D6
:107A40005D20002C200028293A2000205B00636F75
:107A50006465203D200025690064657461696C736C
:107A6000203D20006D006C6E00666E007400636F38
:107A700064650064657461696C00000000000000CA
:107A80000000000039530B005F530B001D530B0027
:107A90009B4F0B00000000000000000095570B00FA
:107AA000AD570B00ED5E0B00CF400B000000000057
:107AB00000000000C1570B00D5570B0091600B0070
:107AC00025530B00000000000000000037530B009E
:107AD0006D530B00515E0B0027530B00000000009C
:107AE0000000000035530B007B530B00FD560B00CC
:107AF0009D530B00000000000000000005620B0019
:107B00000F620B0019620B0023620B002D620B0049
:107B100039620B0045620B004D620B0055620B0091
:107B200061620B0069620B0073620B007D620B00E7
:107B300025592D256D2D25645425483A254D3A2586
:107B400053257A0061736374696D6500000000005D
:107B50000000000011660B007D660B0055660B00EF
:107B600069630B0025660B0041660B0033660B0052
:107B70004F660B0013660B0017660B000000000039
:107B800000000000CF660B0037670B000D670B008D
:107B900069630B00FF660B00D1660B00E1660B000A
:107BA00031670B00F1660B00C9660B000000000096
:107BB0000000000037680B002D680B0023680B00E5
:107BC000D9670B0017680B000B680B0045620B00B0
:107BD0004D620B00FF670B00F7670B00ED670B00B2
:107BE000E3670B007D620B00005245454E54206D4B
:107BF000616C6C6F632073756363656564656400B5
:107C00002F746D702F6A656E6B696E732D474343D9
:107C10002D31302D706970656C696E652D34385F5B
:107C200032303230313132345F3136303631383003
:107C30003633392F7372632F6E65776C69622F6EDE
:107C400065776C69622F6C6962632F7374646C6909
:107C5000622F72616E642E6300002020202020209D
:107C600020202028282828282020202020202020EC
:107C700020202020202020202020881010101010EC
:107C8000101010101010101010100404040404043C
:107C9000040404041010101010101041414141411F
:107CA0004101010101010101010101010101010184
:107CB0000101010101101010101010424242424215
:107CC0004202020202020202020202020202020254
:107CD000020202020210101010200000000000003A
:107CE0000000000000000000000000000000000094
:107CF0000000000000000000000000000000000084
:107D00000000000000000000000000000000000073
:107D10000000000000000000000000000000000063
:107D20000000000000000000000000000000000053
:107D30000000000000000000000000000000000043
:107D40000000000000000000000000000000000033
:107D500000000000000000000000000041440B0093
:107D60005D4D0B00D54D0B00DD5E0B0055630B0028
:107D700075640B00D9650B00FD650B0041680B00B5
:107D8000040000001400000003000000474E5500EE
:107D9000868E11614DFEFF8854CB517D33BDC36E7D
:047DA00075642536AB
:047DA40000000000DB
:107DA800CC7A0B00E47A0B00447B0B00BCE5032083
:107DB80000000000000000000000000000000000BB
:107DC80000000000000000000000000000000000AB
:107DD800000000000000000000000000000000009B
:107DE800000000000000000000000000000000008B
:107DF800000000000000000000000000000000007B
:107E0800000000000000000000000000000000006A
:047E1800ECE7032070
:107E1C00FFFFFFFF00000102030405060708090A23
:107E2C000B0C0D0E0F101112131415161718191A1E
:087E3C001B1C1D1E1F20280065
:047E44007856341226
:04000003B0004020E9
:00000001FF
