:02000004085F93
:10A0000000A05F08FCFF5F080000060020000501BB
:08A01000040118150000000016
:10A018000E480F4908B5884205D00E4A824202D040
:10A028000D4B121A98470D480D4A00210D4B121A74
:10A0380098470D480D49884205D00D4A824202D002
:10A04800054B121A9847014808BD00BF18A9071008
:10A05800E0F95F0894A907102D0D111098A90710B1
:10A06800ECAF0710A10E111098A63F0288A05F0858
:0CA07800F0FF3F0219A05F08000000008C
:08A088007CA05F0814FA3F02FE
:10A0900081F0004102E000BF83F0004330B54FEA99
:10A0A00041044FEA430594EA050F08BF90EA020F06
:10A0B0001FBF54EA000C55EA020C7FEA645C7FEA99
:10A0C000655C00F0E2804FEA5454D4EB5555B8BFBC
:10A0D0006D420CDD2C4480EA020281EA030382EA2D
:10A0E000000083EA010180EA020281EA0303362DBF
:10A0F00088BF30BD11F0004F4FEA01314FF4801C92
:10A100004CEA113102D0404261EB410113F0004FA3
:10A110004FEA03334CEA133302D0524263EB43035A
:10A1200094EA050F00F0A780A4F10104D5F1200EF8
:10A130000DDB02FA0EFC22FA05F2801841F1000153
:10A1400003FA0EF2801843FA05F359410EE0A5F127
:10A1500020050EF1200E012A03FA0EFC28BF4CF058
:10A16000020C43FA05F3C01851EBE37101F000450E
:10A1700007D54FF0000EDCF1000C7EEB00006EEB1B
:10A180000101B1F5801F1BD3B1F5001F0CD34908A5
:10A190005FEA30004FEA3C0C04F101044FEA4452FC
:10A1A00012F5800F80F09A80BCF1004F08BF5FEA83
:10A1B000500C50F1000041EB045141EA050130BD63
:10A1C0005FEA4C0C404141EB0101013C28BFB1F575
:10A1D000801FE9D291F0000F04BF01460020B1FAC0
:10A1E00081F308BF2033A3F10B03B3F120020CDA93
:10A1F0000C3208DD02F1140CC2F10C0201FA0CF071
:10A2000021FA02F10CE002F11402D8BFC2F1200CD5
:10A2100001FA02F120FA0CFCDCBF41EA0C0190408B
:10A22000E41AA2BF01EB0451294330BD6FEA0404D4
:10A230001F3C1CDA0C340EDC04F11404C4F12002BF
:10A2400020FA04F001FA02F340EA030021FA04F3D1
:10A2500045EA030130BDC4F10C04C4F1200220FA28
:10A2600002F001FA04F340EA0300294630BD21FA66
:10A2700004F0294630BD94F0000F83F4801306BF2C
:10A2800081F480110134013D4EE77FEA645C18BF20
:10A290007FEA655C29D094EA050F08BF90EA020FB7
:10A2A00005D054EA000C04BF1946104630BD91EAAF
:10A2B000030F1EBF0021002030BD5FEA545C05D1B2
:10A2C0004000494128BF41F0004130BD14F58004F1
:10A2D0003CBF01F5801130BD01F0004545F0FE4165
:10A2E00041F470014FF0000030BD7FEA645C1ABF9A
:10A2F000194610467FEA655C1CBF0B46024650EAD1
:10A30000013406BF52EA033591EA030F41F40021FC
:10A3100030BD00BF90F0000F04BF0021704730B582
:10A320004FF4806404F132044FF000054FF0000157
:10A3300050E700BF90F0000F04BF0021704730B518
:10A340004FF4806404F1320410F0004548BF4042ED
:10A350004FF000013EE700BF42004FEAE2014FEA42
:10A3600031014FEA02701FBF12F07F4393F07F4F1D
:10A3700081F06051704732F07F4208BF704793F020
:10A380007F4F04BF41F40021704730B54FF4607433
:10A3900001F0004521F000411CE700BF50EA010236
:10A3A00008BF704730B54FF000050AE050EA0102DF
:10A3B00008BF704730B511F0004502D5404261EB4F
:10A3C00041014FF4806404F132045FEA915C3FF490
:10A3D000D8AE4FF003025FEADC0C18BF03325FEA2D
:10A3E000DC0C18BF033202EBDC02C2F1200300FADE
:10A3F00003FC20FA02F001FA03FE40EA0E0021FA03
:10A4000002F11444BDE600BF70B54FF0FF0C4CF4F0
:10A41000E06C1CEA11541DBF1CEA135594EA0C0FA2
:10A4200095EA0C0F00F0DEF82C4481EA030621EADD
:10A430004C5123EA4C5350EA013518BF52EA033518
:10A4400041F4801143F4801338D0A0FB02CE4FF0CA
:10A450000005E1FB02E506F00042E0FB03E54FF0FA
:10A460000006E1FB03569CF0000F18BF4EF0010EF2
:10A47000A4F1FF04B6F5007F64F5407404D25FEAEE
:10A480004E0E6D4146EB060642EAC62141EA5551A1
:10A490004FEAC52040EA5E504FEACE2EB4F1FD0CE3
:10A4A00088BFBCF5E06F1ED8BEF1004F08BF5FEA61
:10A4B000500E50F1000041EB045170BD06F0004613
:10A4C00046EA010140EA020081EA0301B4EB5C04C0
:10A4D000C2BFD4EB0C0541EA045170BD41F48011B8
:10A4E0004FF0000E013C00F3AB8014F1360FDEBFDD
:10A4F000002001F0004170BDC4F10004203C35DAB9
:10A500000C341BDC04F11404C4F1200500FA05F33B
:10A5100020FA04F001FA05F240EA020001F00042DC
:10A5200021F0004110EBD37021FA04F642EB060152
:10A530005EEA430E08BF20EAD37070BDC4F10C047C
:10A54000C4F1200500FA04F320FA05F001FA04F240
:10A5500040EA020001F0004110EBD37041F100012C
:10A560005EEA430E08BF20EAD37070BDC4F1200537
:10A5700000FA05F24EEA020E20FA04F301FA05F29F
:10A5800043EA020321FA04F001F0004121FA04F247
:10A5900020EA020000EBD3705EEA430E08BF20EA17
:10A5A000D37070BD94F0000F0FD101F00046400051
:10A5B00041EB010111F4801F08BF013CF7D041EAD3
:10A5C000060195F0000F18BF704703F000465200D7
:10A5D00043EB030313F4801F08BF013DF7D043EAA8
:10A5E0000603704794EA0C0F0CEA135518BF95EA5E
:10A5F0000C0F0CD050EA410618BF52EA4306D1D1E5
:10A6000081EA030101F000414FF0000070BD50EA03
:10A61000410606BF1046194652EA430619D094EA8D
:10A620000C0F02D150EA013613D195EA0C0F05D177
:10A6300052EA03361CBF104619460AD181EA0301CB
:10A6400001F0004141F0FE4141F470014FF0000083
:10A6500070BD41F0FE4141F4780170BD70B54FF01E
:10A66000FF0C4CF4E06C1CEA11541DBF1CEA13559E
:10A6700094EA0C0F95EA0C0F00F0A7F8A4EB050480
:10A6800081EA030E52EA03354FEA013100F0888077
:10A690004FEA03334FF0805545EA131343EA126340
:10A6A0004FEA022245EA111545EA10654FEA0026F5
:10A6B0000EF000419D4208BF964244F1FD0404F5AE
:10A6C000407402D25B084FEA3202B61A65EB03050A
:10A6D0005B084FEA32024FF480104FF4002CB6EBC7
:10A6E000020E75EB030E22BFB61A754640EA0C0047
:10A6F0005B084FEA3202B6EB020E75EB030E22BF87
:10A70000B61A754640EA5C005B084FEA3202B6EBC7
:10A71000020E75EB030E22BFB61A754640EA9C0086
:10A720005B084FEA3202B6EB020E75EB030E22BF56
:10A73000B61A754640EADC0055EA060E18D04FEA14
:10A74000051545EA16754FEA06164FEAC30343EAB4
:10A7500052734FEAC2025FEA1C1CC0D111F4801F81
:10A760000BD141EA00014FF000004FF0004CB6E77A
:10A7700011F4801F04BF01430020B4F1FD0C88BF19
:10A78000BCF5E06F3FF6AFAEB5EB030C04BFB6EB24
:10A79000020C5FEA500C50F1000041EB045170BD17
:10A7A0000EF0004E4EEA113114EB5C04C2BFD4EB44
:10A7B0000C0541EA045170BD41F480114FF0000EC8
:10A7C000013C90E645EA060E8DE60CEA135594EA44
:10A7D0000C0F08BF95EA0C0F3FF43BAF94EA0C0F47
:10A7E0000AD150EA01347FF434AF95EA0C0F7FF4BC
:10A7F00025AF104619462CE795EA0C0F06D152EA10
:10A8000003353FF4FDAE1046194622E750EA4106F3
:10A8100018BF52EA43067FF4C5AE50EA41047FF404
:10A820000DAF52EA43057FF4EBAE12E74FF0FF3C69
:10A8300006E000BF4FF0010C02E000BF4FF0010C3A
:10A840004DF804CD4FEA410C7FEA6C5C4FEA430CB3
:10A8500018BF7FEA6C5C1BD001B050EA410C0CBF02
:10A8600052EA430C91EA030F02BF90EA020F002064
:10A87000704710F1000F91EA030F58BF994208BFCB
:10A8800090422CBFD8176FEAE37040F00100704788
:10A890004FEA410C7FEA6C5C02D150EA013C07D1DF
:10A8A0004FEA430C7FEA6C5CD6D152EA033CD3D02A
:10A8B0005DF8040B704700BF8446104662468C4624
:10A8C0001946634600E000BF01B5FFF7B7FF002857
:10A8D00048BF10F1000F01BD4DF808EDFFF7F4FF80
:10A8E0000CBF012000205DF808FB00BF4DF808ED0B
:10A8F000FFF7EAFF34BF012000205DF808FB00BF2E
:10A900004DF808EDFFF7E0FF94BF012000205DF84F
:10A9100008FB00BF4DF808EDFFF7CEFF94BF012004
:10A9200000205DF808FB00BF4DF808EDFFF7C4FFFD
:10A9300034BF012000205DF808FB00BF4FEA410C46
:10A940007FEA6C5C02D150EA013C0AD14FEA430C29
:10A950007FEA6C5C02D152EA033C02D14FF0000066
:10A9600070474FF0010070474FEA4102B2F1E043F7
:10A9700024BFB3F5001CDCF1FE5C0DD901F0004CE6
:10A980004FEAC0024CEA5070B2F1004F40EB830036
:10A9900008BF20F00100704711F0804F21D113F162
:10A9A0003872BCBF01F00040704741F480114FEA9B
:10A9B0005252C2F11802C2F1200C10FA0CF320FA24
:10A9C00002F018BF40F001004FEAC1234FEAD32341
:10A9D00003FA0CFC40EA0C0023FA02F34FEA4303AB
:10A9E000CCE77FEA625307D150EA01331EBF4FF034
:10A9F000FE4040F44000704701F0004040F0FE404F
:10AA000040F40000704700BF10F8012B11F8013B23
:10AA1000012A28BF9A42F7D0D01A7047034613F88C
:10AA2000012B002AFBD1181A0138704770B503F0CA
:10AA3000DBFE0025054E064CA41BA408AC4200D149
:10AA400070BD56F8043B98470135F7E7CCFF3F024D
:10AA5000F0FF3F0200F0B4BA08B500F02BF9BDE8F2
:10AA6000084003F079BE01F097BC01F095BC01F0FD
:10AA7000A1BC00000C2008B5024A034901F0E8FA25
:10AA8000FEE700BF75C13F0224FA3F020078B0FA2A
:10AA900080F0400970470123037070477047000041
:10AAA0000122024B00201A70704700BF20AE071031
:10AAB00008B503F0DBFC0122024B1880024B00209A
:10AAC0001A7008BD40AE0710C0AD071010B504469F
:10AAD000094B036002F0E8FC214602F01FFF03F07F
:10AAE000ABFD03F09BFD2046044B40F8043B02F015
:10AAF000B1FD204610BD00BFB0FB3F0298FB3F02F6
:10AB000010B50446FFF7E2FF20462421FFF7AFFF10
:10AB1000204610BD0EB44FF0200C002300B58CB0C1
:10AB20000DAA52F8041BCDE904C3CDE9001203922B
:10AB3000016804AA1E2001F099FA0CB05DF804EB3C
:10AB400003B0704730B585B001A800F0AAFB01231F
:10AB5000ADF8043013231B4C1B4D01A920468DF882
:10AB6000063000F0A7FB642001F094FC174928464A
:10AB7000FFF7D0FF204600F0E9FB642001F08AFCDB
:10AB800013492846FFF7C6FF204600F005FC642065
:10AB900001F080FC0F492846FFF7BCFF204600F07B
:10ABA000D2FC642001F076FC0B492846FFF7B2FF87
:10ABB000204600F0DCFC4FF47A7001F06BFC05B02D
:10ABC00030BD00BFA8A907106CAE071039FA3F02CC
:10ABD0004DFA3F0256FA3F0269FA3F0230B52D4B5B
:10ABE0008BB000214FF48062184604F07AFA0024FA
:10ABF00040F2FF33284A079005A8CDE908348DF8C4
:10AC00001840059202F005FA0622244905A802F030
:10AC1000A3FA234B05461868FFF79EFB41EC100B87
:10AC2000284602F027FA0B221E4905A802F094FAE2
:10AC30001D4B05461868FFF78FFB41EC100B2846AB
:10AC400002F018FA05A802F0CEF9DDE908239342D4
:10AC500028BF1346079A1549D454154B079A1B78F9
:10AC600003A88DF800303C2301F0CEFD049C7CB19C
:10AC70006368013B63605BB9236820469B68984723
:10AC8000A368013BA3601BB923682046DB68984793
:10AC90000BB030BDC0A907106CFC3F0277FA3F0231
:10ACA000BCA907107EFA3F0230AE07108AFA3F02B5
:10ACB000A4A9071038B500F063FF5A4C2368C01AE6
:10ACC00041F28733984231D900F05AFF564920604B
:10ACD000564800F01DFD564C10EE100A84ED000A97
:10ACE000FFF73AFB02460B4652485349FFF712FF63
:10ACF000524B534D186800F0DBFE51EC100BFFF780
:10AD000033FE2860FFF728FB02460B4649484D49B1
:10AD1000FFF700FF2868FFF71FFB4B4BC3E900015B
:10AD20002068FFF719FB494BC3E9000100F028FF39
:10AD3000474C2368C01A474B984207D900F020FFC0
:10AD4000206001F057FA08B1FFF748FF424B1A782C
:10AD5000C2B10024414937481C70FFF7DBFE32497D
:10AD6000324800F02FFC4FF4FA7001F093FB3C499D
:10AD70003048FFF7CFFE03F0F5FD042220462A49B4
:10AD800000F028FF374B1A78002A4AD00022364CB0
:10AD9000364928481A70FFF7BDFE234A2188234808
:10ADA00000F03EFC012838D131492248FFF7B2FEBD
:10ADB00003F0D8FD022221460A2000F00BFF238871
:10ADC000642B08D103F0CEFD04222A491420BDE8EB
:10ADD000384000F0FFBEB3F5FA7F04D103F0C2FDA6
:10ADE00004222549F2E7B3F57A7F04D103F0BAFDD6
:10ADF00004222249EAE741F28832934204D103F067
:10AE0000B1FD04221E49E1E742F21072934208D1DB
:10AE100003F0A8FD04221B49D8E71B490548FFF7AA
:10AE200079FE38BDF8AD0710C4AD0710A8A907100A
:10AE3000BCA907106CAE071098FA3F0234AE071099
:10AE400030AE0710A5FA3F0228AE071038AE071043
:10AE5000F4AD07103F7E050020AE0710B2FA3F02A6
:10AE6000C4FA3F02C0AD071040AE0710D5FA3F024A
:10AE7000E7FA3F02CCAD0710D4AD0710DCAD0710E8
:10AE8000E4AD0710ECAD0710FCFA3F0200B52DED64
:10AE9000028B85B003F066FD0422002002A900F0B9
:10AEA0008BFE9FED3E8ADDED027AF4EE487AF1EEFC
:10AEB00010FA36D13A493B48FFF72CFE01223A4BB3
:10AEC0001A7003F04FFD02220A200DF1060100F076
:10AED00073FE4FF6FF73BDF806209A4207D133493F
:10AEE0003048FFF717FE4FF47A72314B1A8003F0A7
:10AEF00039FD0422142003A900F05EFEDDED037A83
:10AF0000F4EE487AF1EE10FA11D12A492548FFF7FC
:10AF100001FE0122284B1A7005B0BDEC028B5DF8D2
:10AF200004FB0122254BC3ED007A1A71C9E7BDF875
:10AF30000620224BB2F57A7F24D00BD8642A17D092
:10AF4000B2F5FA7F19D000221A731A751A7783F8AE
:10AF500024200AE041F288318A4218D042F210716E
:10AF60008A42F0D1C3ED0A7A012283F82C20D3E77C
:10AF70000122C3ED027A1A73CEE70122C3ED047AEF
:10AF80001A75C9E70122C3ED067A1A77C4E70122D0
:10AF9000C3ED087A83F82420BEE700BF0000804F8D
:10AFA0000EFB3F026CAE071020AE071032FB3F02D3
:10AFB00040AE071047FB3F02C0AD0710C4AD0710FD
:10AFC00030B5002085B000F013FE42F21075044643
:10AFD000002000F00DFE001B61F10001A84271F19C
:10AFE000000307D203F028FB03F01BFB10B901F0AC
:10AFF000E5F8EDE703F020FB03F013FB4FF47A7064
:10B0000001F048FA4820FFF72EFD044670B10523F1
:10B0100014224FF47961CDE902321923CDE90031D0
:10B0200042F210730C211A4600F06AFC104B1C60AF
:10B03000FFF788FDFFF72AFF002309220D490E487C
:10B0400001F0A0F8002309220C490D4801F09AF8FC
:10B050000C4A0D490D4801F0E4FA0D4A0D490B4820
:10B0600001F0DFFA05B0BDE8304001F0B5B800BF2F
:10B0700034AE071038AE071077FA3F0228AE07103B
:10B080007EFA3F027DFB3F02B1B03F0207CC3F0298
:10B0900082FB3F02C1B03F0270B51426D0E90053D5
:10B0A000044606FB0356AE4204D0284603F03CF9A2
:10B0B0001435F8E7206801F07DF9204670BD2DE9D0
:10B0C000F843B1F10008074638DD4FF0140909FBD9
:10B0D00008F001F061F90546C0B3D7E900468442A3
:10B0E00009FB064615D2864214D9143EA4F1140970
:10B0F000341B0444B14522D02CB13146204603F024
:10B1000090F9337C2374304603F00EF9143E143C5E
:10B11000F0E714D0A946A64211D0B9F1000F06D02D
:10B120002146484603F07DF9237C89F810302046FB
:10B1300003F0FAF8143409F11409ECE70025386833
:10B1400001F038F901203D60C7F80880BDE8F883B8
:10B1500000232DE9F041C0E9003383600D464968C2
:10B160000446994217DDFFF7AAFFA0B1D5E90063B5
:10B170004FF0140808FB03682768B04509D02FB1C9
:10B180003146384603F067F9337C3B741436143784
:10B19000F3E76B6863602046BDE8F08130B50024BA
:10B1A000364B93B01C7003F051FB2346224602211C
:10B1B00003F068FB03F04AFB23462246202103F0FC
:10B1C00053FB2146012000F097FF2D4B2D4A022012
:10B1D000C3E900449A6000F073FF2B490DA803F007
:10B1E000EEF8012101A8CDE901448DF84410039443
:10B1F000FFF765FF50B1019C34B120460DA903F063
:10B200002AF99DF8443023740123029303F014FAC1
:10B21000054601A904A8FFF79BFF04A907A8FFF7AB
:10B2200097FF1A4C1A4B07A923600AA8FFF790FF53
:10B230000AAA2821201D02F053FC0AA8FFF72CFFC0
:10B2400007A8FFF729FF134B2562236004A8FFF727
:10B2500023FF114B236003F0EFF94FF4165103F075
:10B26000D9F902F021F9214602F012FB01A8FFF7FB
:10B2700013FF0DA803F058F813B030BDA4A90710B0
:10B2800098A907100000FFFF8CFB3F02FCAD0710E0
:10B2900098FB3F0208FD3F02B0FB3F02012001F096
:10B2A000F9B84FF6FF7303808370002343602A23AD
:10B2B000037270477FB50C46054601A800F092FA6C
:10B2C00063682E1D0293237830468DF8063063782C
:10B2D00001A98DF80530237A2B7400F095FA01301E
:10B2E0000ED0297C304600F0ADFA6168304600F09F
:10B2F0009BFA2846A17800F069FA002004B070BDDE
:10B30000FF20FBE710B5C0B08DF800100121994275
:10B3100007D8541814F8014C0DF801400131C9B296
:10B32000F5E769465A1C043000F092FA40B010BDAF
:10B330001FB504308DF80F1000930DF10F01134667
:10B34000012200F0A3FA05B05DF804FB13B5044632
:10B350000DF1070201230021FFF7EAFF9DF80730F6
:10B36000204643F001030DF1070200218DF807305C
:10B370000123FFF7C7FFFFF791FF9DF8073000217A
:10B3800023F001038DF80730204601230DF1070259
:10B39000FFF7B8FF02B010BD13B504460DF1070268
:10B3A00001230021FFF7C4FF9DF80730204643F03A
:10B3B00006030DF1070200218DF807300123FFF786
:10B3C000A1FFFFF76BFF2046012300210DF10702CB
:10B3D000FFF7AEFF9DF80700C0F3C00002B010BD3C
:10B3E000012313B519460DF107020446FFF7A0FF2C
:10B3F0009DF80730204623F0380343F020038DF8F2
:10B40000073001230DF107021946FFF77BFF2046A5
:10B410000DF1070201230021FFF78AFF9DF8073095
:10B42000002163F07F038DF80730204601230DF1E2
:10B430000702FFF767FF02B010BD012337B50D46C5
:10B440000DF1070219460446FFF772FF9DF8073019
:10B45000102D03F0F80323D010D8042D1AD0082D96
:10B460001BD0022D13D08DF807300123204619463A
:10B470000DF10702FFF746FF03B030BD402D12D09B
:10B48000802D13D0202DEED143F00503EBE743F0E0
:10B490000103E8E743F00203E5E743F00303E2E7D3
:10B4A00043F00403DFE743F00603DCE743F0070360
:10B4B000D9E737B50C46012302210DF107020546F5
:10B4C000FFF736FF9DF80730282C03F08F0310D0CC
:10B4D000502C11D0142C08BF43F010038DF8073006
:10B4E0000221012328460DF10702FFF70BFF03B0ED
:10B4F00030BD43F02003F1E743F03003EEE73023A3
:10B5000007B515218DF807300DF107020123FFF76C
:10B51000F9FE03B05DF804FB13B504460DF1070214
:10B5200001231C21FFF704FF9DF807301C2163F065
:10B530007F038DF80730204601230DF10702FFF746
:10B54000E1FE02B010BD10B50446FFF749FF2046EA
:10B550008021FFF772FF20465021FFF7AAFF204607
:10B56000FFF7CDFF2046BDE81040FFF7D5BF13B56C
:10B5700004460DF1070201230221FFF7D9FE9DF8D1
:10B580000730022123F0040343F004038DF8073051
:10B59000204601230DF10702FFF7B4FE02B010BDF3
:10B5A00007B50323122101AAFFF7C2FEBDF804303C
:10B5B0009DF806005BBA9BB240EA032003B05DF839
:10B5C00004FB0000F8B507460E4605243846013C4A
:10B5D000FFF7E6FFFFF762FE14F0FF04F6D16425E3
:10B5E0003846FFF7DDFF013D0444FFF757FE15F035
:10B5F000FF05F5D107EE904ADFED086AF8EE677AAD
:10B60000012387EEA67A337186ED007A357335759E
:10B61000357786F8245086F82C50F8BD0000C842D3
:10B620002DE9F04180462DED028B0E46154692ED38
:10B63000008A142400274046FFF7B2FF013C07446C
:10B64000FFF72CFE14F0FF04F5D107EE907AF3EE2D
:10B65000046AB8EE677AC7EE267AB6F57A7F77EE97
:10B66000C87A36D00DD8642E1DD0B6F5FA7F27D013
:10B6700000232B732B752B7785F8243085F82C301D
:10B6800019E041F288339E422CD042F210739E4260
:10B69000EED1DFED196A012486EEA77A85F82C40F9
:10B6A00085ED0A7A07E0DFED156A86EEA77A0124B8
:10B6B00085ED027A2C732046BDEC028BBDE8F0814B
:10B6C000DFED0F6A012486EEA77A2C7585ED047AEA
:10B6D000F1E7DFED0C6A012486EEA77A2C7785ED81
:10B6E000067AE8E7DFED086A012486EEA77A85F896
:10B6F000244085ED087ADEE700401C460000C84281
:10B700000000FA4300007A4400409C45000000001D
:10B71000F8B52DED028B07460C4691ED008A1426F4
:10B7200000253846FFF73CFF013E0544FFF7B6FD14
:10B7300016F0FF06F5D107EE905AB3EE047AF8EE54
:10B74000677A87EE870A237B30EE480A012B0DD1FA
:10B75000D4ED027A20EE270ABDEC028BB5EEC00ACA
:10B76000F1EE10FA48BF9FED180AF8BD237D012BBA
:10B7700002D1D4ED047AEDE7237F012B02D1D4ED81
:10B78000067AE7E794F82430012B02D1D4ED087A49
:10B79000E0E794F82C30012B02D1D4ED0A7AD9E7F6
:10B7A00010EE100AFEF7D8FD05A3D3E90023FEF73B
:10B7B0002BFEFFF7D9F800EE100ACDE7AFF30080BB
:10B7C00015376A61A5A7B63F0000000010B50C460A
:10B7D00021B9007803F0A2F8204610BD4FF0FF30E9
:10B7E000FBE7000010B50024054B1C70054B1C60E6
:10B7F00003F0EAF82146BDE8104001F0F7B900BFB8
:10B8000042AE071044AE071008B503F0DDF8054B53
:10B81000196801F0EBF903F0D7F801F0EBF900201B
:10B8200008BD00BF44AE071010B50C46044B1960AC
:10B8300003F0CAF8214601F0D9F9002010BD00BF7D
:10B8400044AE0710014B00201970704742AE07103C
:10B8500013B50C46019203F0B7F80B4B197801F0C1
:10B86000F8F903F0B1F803682146DB68019A9847BC
:10B8700003F0AAF8012101F0F0F9013818BF4FF0E8
:10B88000FF3002B010BD00BF42AE07102DE9F341FA
:10B89000194E0C461D460192DDF8208003F094F805
:10B8A000317801F0D6F903F08FF80368019ADB686C
:10B8B0002146984703F088F8002101F0CEF903F003
:10B8C00083F831780123424601F0B1F90026C4B271
:10B8D000F7B2B84506F1010606D903F075F803681A
:10B8E0005B699847E855F3E7B4FA84F040094042B1
:10B8F00002B0BDE8F08100BF42AE071000000000BA
:10B900002DE970430FF26009D9E900890446C0E9C6
:10B910000289C0E90489016010461E460D46FEF703
:10B9200009FD13A3D3E90023C4E90601C4E90823F0
:10B930003046FEF7FFFCC4E90A010698FEF7FAFC60
:10B94000C4E90C010798FEF7F5FC089BC4E90E0159
:10B950002364099BA8B20021636402F0DFFF204644
:10B96000BDE87083AFF300806666666666660A406F
:10B970000000000000FEAF40F8B5002504462E464A
:10B98000236C2088013BAB4207DD02F0D8FF064460
:10B99000606C00F07FFD0135F2E702F0D0FF30442B
:10B9A000FEF7B8FC0646206C0F46FEF7C3FC0246C5
:10B9B0000B4630463946FEF751FE41EC100BF8BD00
:10B9C0002DE9F04733A3D3E900232DED048B824604
:10B9D000D0E90489D0E90C0155EC104BFEF75EFB71
:10B9E00002460B4600202A49FEF738FEDAE90E230C
:10B9F00041EC180B00202649FEF730FEDAE9062359
:10BA000041EC190B40464946FEF7FEFC22462B4608
:10BA1000FEF7FAFC22462B46064601F10047404657
:10BA20004946FEF7F1FCDAE9082304460D46DAE957
:10BA30000201FEF7E9FC02460B4620462946FEF7C6
:10BA40002BFB02460B4630463946FEF707FEDAE985
:10BA50000A23FEF703FE41EC100B03F0A1F851ECB2
:10BA6000190B53EC102BFEF7CFFC53EC182BFEF701
:10BA700015FB02460B4600200549FEF7EFFDBDEC25
:10BA8000048B41EC100BBDE8F08700BFAFF30080E2
:10BA90000000F03F666666666612714010B50446A7
:10BAA000FFF76AFF2046BDE81040FFF789BF00009E
:10BAB00008B5FFF7F3FF06A3D3E9002351EC100B01
:10BAC000FEF7EAFA41EC100B08BD00BFAFF30080AF
:10BAD000666666666612714009B504480068044BE4
:10BAE00003441B685B6C029309BD000018A9071092
:10BAF0003000000009B504480068044B03441B688B
:10BB00009B6C029309BD000018A9071030000000CB
:10BB100009B504480068044B03441B68DB6C0293BE
:10BB200009BD000018A907103000000009B504483D
:10BB30000068044B03441B685B6D029309BD000061
:10BB400018A907103000000009B504480068044B2C
:10BB500003441B685B68029309BD000018A9071025
:10BB60000000000009B504480068044B03441B684A
:10BB7000DB68029309BD000018A90710000000004F
:10BB800009B504480068044B03441B685B690293D1
:10BB900009BD000018A907100000000009B50448FD
:10BBA0000068044B03441B689B6A029309BD0000B4
:10BBB00018A907100000000009B504480068044BEC
:10BBC00003441B685B6C029309BD000018A90710B1
:10BBD0000000000009B504480068044B03441B68DA
:10BBE0009B6C029309BD000018A90710000000001B
:10BBF00009B504480068044B03441B68DB6D0293DD
:10BC000009BD000018A907100000000009B504488C
:10BC10000068044B03441B685B68029309BD000085
:10BC200018A907101400000009B504480068044B67
:10BC300003441B689B68029309BD000018A9071004
:10BC40001400000009B504480068044B03441B6855
:10BC50001B6B029309BD000018A907101400000017
:10BC600009B504480068044B03441B681B68029331
:10BC700009BD000018A907101000000009B504480C
:10BC80000068044B03441B68DB68029309BD000095
:10BC900018A907101000000009B504480068044BFB
:10BCA00003441B689B69029309BD000018A9071093
:10BCB0001000000009B504480068044B03441B68E9
:10BCC000DB69029309BD000018A9071010000000ED
:10BCD00009B504480068044B03441B681B6A0293BF
:10BCE00009BD000018A907101000000009B504489C
:10BCF0000068044B03441B685B6A029309BD0000A3
:10BD000018A907101000000009B504480068044B8A
:10BD100003441B689B6A029309BD000018A9071021
:10BD20001000000009B504480068044B03441B6878
:10BD3000DB6A029309BD000018A90710100000007B
:10BD400009B504480068044B03441B681B6B02934D
:10BD500009BD000018A907101000000009B504482B
:10BD60000068044B03441B685B6B029309BD000031
:10BD700018A907101000000009B504480068044B1A
:10BD800003441B681B6C029309BD000018A907102F
:10BD90001000000009B504480068044B03441B6808
:10BDA0001B6D029309BD000018A9071010000000C8
:10BDB00009B504480068044B03441B685B6902939F
:10BDC00009BD000018A907104C00000009B504487F
:10BDD0000068044B03441B689B68029309BD000084
:10BDE00018A907105000000009B504480068044B6A
:10BDF00003441B68DB68029309BD000018A9071003
:10BE00005000000009B504480068044B03441B6857
:10BE1000DB69029309BD000018A907101800000093
:10BE200009B504480068044B03441B681B6A02936D
:10BE300009BD000018A907101800000009B5044842
:10BE40000068044B03441B689B68029309BD000013
:10BE500018A907102400000009B504480068044B25
:10BE600003441B68DB68029309BD000018A9071092
:10BE70002400000009B504480068044B03441B6813
:10BE80001B69029309BD000018A9071024000000D7
:10BE900009B504480068044B03441B685B690293BE
:10BEA00009BD000018A907102400000009B50448C6
:10BEB0000068044B03441B689B69029309BD0000A2
:10BEC00018A907102400000009B504480068044BB5
:10BED00003441B68DB69029309BD000018A9071021
:10BEE0002400000009B504480068044B03441B68A3
:10BEF0001B6A029309BD000018A907102400000066
:10BF000009B504480068044B03441B689B6A02930C
:10BF100009BD000018A907102400000009B5044855
:10BF20000068044B03441B68DB6A029309BD0000F0
:10BF300018A907102400000009B504480068044B44
:10BF400003441B681B6C029309BD000018A907106D
:10BF50002400000009B504480068044B03441B6832
:10BF60001B68029309BD000018A9071034000000E7
:10BF700009B504480068044B03441B685B680293DE
:10BF800009BD000018A907103400000009B50448D5
:10BF90000068044B03441B689B68029309BD0000C2
:10BFA00018A907103400000009B504480068044BC4
:10BFB00003441B681B69029309BD000018A9071000
:10BFC0003400000009B504480068044B03441B68B2
:10BFD0005B69029309BD000018A907103400000036
:10BFE00009B504480068044B03441B689B6902932D
:10BFF00009BD000018A907103400000009B5044865
:10C000000068044B03441B68DB69029309BD000010
:10C0100018A907103400000009B504480068044B53
:10C0200003441B681B6A029309BD000018A907108E
:10C030003400000009B504480068044B03441B6841
:10C040009B6A029309BD000018A907103400000084
:10C0500009B504480068044B03441B685B6B0293FA
:10C0600009BD000018A907104800000009B50448E0
:10C070000068044B03441B685B6D029309BD00001C
:10C0800018A907104800000009B504480068044BCF
:10C0900003441B68DB6E029309BD000018A907105A
:10C0A0004800000009B504480068044B03441B68BD
:10C0B0001B6F029309BD000018A90710480000007B
:10C0C00009B504480068044B03441B685B6802938D
:10C0D00009BD000018A907100800000009B50448B0
:10C0E0000068044B03441B685B69029309BD0000B0
:10C0F00018A907100800000009B504480068044B9F
:10C1000003441B68DB6A029309BD000018A90710ED
:10C110000800000009B504480068044B03441B688C
:10C12000DB6C029309BD000018A90710080000008D
:10C1300009B504480068044B03441B685B6D029317
:10C1400009BD000018A907100800000009B504483F
:10C150000068044B03441B68D3F88830029309BD80
:10C1600018A907100800000009B504480068044B2E
:10C1700003441B68D3F89430029309BD18A9071033
:10C180000800000009B504480068044B03441B681C
:10C190001B68029309BD000018A907102C000000BD
:10C1A00009B504480068044B03441B685B680293AC
:10C1B00009BD000018A907102C00000009B50448AB
:10C1C0000068044B03441B689B68029309BD000090
:10C1D00018A907102C00000009B504480068044B9A
:10C1E00003441B68DB68029309BD000018A907100F
:10C1F0002C00000009B504480068044B03441B6888
:10C200005B69029309BD000018A907102C0000000B
:10C2100009B504480068044B03441B681B6A029379
:10C2200009BD000018A907102C00000009B504483A
:10C230000068044B03441B68DB6B029309BD0000DC
:10C2400018A907102C00000009B504480068044B29
:10C2500003441B685B68029309BD000018A907101E
:10C260002800000009B504480068044B03441B681B
:10C270009B68029309BD000018A907102800000060
:10C2800009B504480068044B03441B68DB6802934B
:10C2900009BD000018A907102800000009B50448CE
:10C2A0000068044B03441B681B69029309BD00002E
:10C2B00018A907102800000009B504480068044BBD
:10C2C00003441B685B69029309BD000018A90710AD
:10C2D0002800000009B504480068044B03441B68AB
:10C2E0009B69029309BD000018A9071028000000EF
:10C2F00009B504480068044B03441B68DB690293DA
:10C3000009BD000018A907102800000009B504485D
:10C310000068044B03441B681B6A029309BD0000BC
:10C3200018A907102800000009B504480068044B4C
:10C3300003441B681B6B029309BD000018A907107A
:10C340002800000009B504480068044B03441B683A
:10C350005B6B029309BD000018A9071028000000BC
:10C3600009B504480068044B03441B681B6C029326
:10C3700009BD000018A907102800000009B50448ED
:10C380000068044B03441B685B6C029309BD00000A
:10C3900018A907102800000009B504480068044BDC
:10C3A00003441B681B68029309BD000018A907100D
:10C3B0000400000009B504480068044B03441B68EE
:10C3C0005B68029309BD000018A907100400000073
:10C3D00009B504480068044B03441B689B6802933A
:10C3E00009BD000018A907100400000009B50448A1
:10C3F0000068044B03441B685B6A029309BD00009C
:10C4000018A907100400000009B504480068044B8F
:10C4100003441B68DB6A029309BD000018A90710DA
:10C420000400000009B504480068044B03441B687D
:10C430001B6B029309BD000018A90710040000003F
:10C4400009B504480068044B03441B68DB6B029386
:10C4500009BD000018A907100400000009B5044830
:10C460000068044B03441B681B6C029309BD000069
:10C4700018A907100400000009B504480068044B1F
:10C4800003441B685B6C029309BD000018A90710E8
:10C49000040000000021FFF721BE10B583680446A8
:10C4A0000BB902F079FBC3689847A3681BB103225C
:10C4B0002146204698472046BDE810401021FEF74F
:10C4C000D6BA10B58368044613B1032201469847D3
:10C4D000204610BD10B543680446013B436063B974
:10C4E00003689B689847A368013BA3602BB9236846
:10C4F0002046BDE81040DB68184710BD70B5044603
:10C50000D0E9005305EB0316AE4204D0284601F0F3
:10C510000BFF1035F8E72068FFF74CFF204670BD91
:10C5200010B50446006808B1FFF7D4FF204610BDDF
:10C5300013B56C460B460246D0E9000184E80300BF
:10C5400093E8030082E8030094E8030083E8030013
:10C5500002B010BD002302480360FFF7BDBA00BF60
:10C5600054AE071070470020704710B504461021E4
:10C57000FEF77DFA204610BD08B5FFF7F6FF08BDAF
:10C58000002230B54FF69C74026084808D888C80C8
:10C590000C68858004600A6030BD10B504460068F0
:10C5A000FFF708FF204610BD38B5C46814B32378E0
:10C5B000DBB2022B03D104F10C00FFF7EEFF231DC9
:10C5C0001D6835B12846FFF77CFF10212846FEF78D
:10C5D0004EFA04F108031D6835B12846FFF771FFD4
:10C5E00010212846FEF743FA2046BDE838401421C2
:10C5F000FEF73DBA38BD10B588B00446684601F074
:10C60000DEFE694604A801F026FF04A8A047044600
:10C6100004A801F089FE684601F086FE204608B0B5
:10C6200010BD1FB500231024CDE902010192694617
:10C630001A461846ADF80230ADF80040FFF7B0FDDD
:10C6400004B010BD0B6803604B68436013B15A68B7
:10C6500001325A60704737B5044668460D46FFF709
:10C66000F1FF009B019A23600023626001A80193FF
:10C670000093FFF755FF35B1281DFFF751FF082143
:10C680002846FEF7F4F9204603B030BD826810B5A5
:10C690000AB902F081FAC368BDE81040184708B52E
:10C6A000006800F11001FFF7F1FF08BD826810B5C6
:10C6B0000AB902F071FAC368BDE81040184708B51E
:10C6C000006800F11001FFF7F1FF08BD38B5002345
:10C6D0000446036010200D46FEF7C5F928B101237A
:10C6E000C0E90133024BC56003602060204638BDBD
:10C6F000C8FB3F0238B5002383608B6804460D46B3
:10C700002BB102229847EB68E360AB68A360204638
:10C7100038BD0000F0B589B004686846FFF730FF07
:10C720004FF00203D4E84F2F002A03D1C4E8413F61
:10C730000029F7D121D104F10C0569462846FFF7FD
:10C740001FFF0122631CC3E88F2F002004F10803A0
:10C75000D3E8EF6FC3E8E20F002AF9D16EB1FFF71B
:10C76000D9FC78B129463046FFF790FF3046FFF7F5
:10C77000A8FE10213046FEF77AF96846FFF70DFF54
:10C7800009B0F0BD314602A8FFF7B4FFE068B4F984
:10C79000105008B102F0FCFC06901020ADF81C50BF
:10C7A000FEF761F90546E8B1002787601820FEF71B
:10C7B0005AF9044688B10146876002A8FFF7B8FE1F
:10C7C000049BA268A360059B0492E26806A9E3604B
:10C7D00004F110000592FFF7D3FE084B2C60EB60CC
:10C7E000074BAB6006A8FFF7D8FE02A8FFF769FE6B
:10C7F000002229460348FFF79BFCB7E7AFCC3F0276
:10C8000029CF3F02ABCA3F022DE9F04F8BB005465E
:10C810000F46904699469DF850A0FFF7EBFC07AEF7
:10C82000834638BB4FF62E73059005A93046ADF808
:10C830001830FFF7A5FE1420FEF715F9044648B19D
:10C84000022303700123C0E901BB437031460C3061
:10C85000FFF796FE2846214640F8044BFFF736FFC7
:10C860003046FFF79AFE05A8FFF797FE28460BB063
:10C87000BDE8F08F0C2300241420CDE90844079371
:10C88000FEF7F1F8014618B1C0E9014404704470A4
:10C8900004A80391FFF71AFF1E4B08200893FEF728
:10C8A000E2F8044610B103A9FFF7CCFE4A46414620
:10C8B000384600965FFA8AF30994FFF7A9FCB8B9E5
:10C8C000039B01331B78DBB293B905934FF69C733E
:10C8D00005A903A8ADF81830FFF71CFF05A8FFF75E
:10C8E0005CFE05A80999FFF7B6FE06A8FFF718FE3B
:10C8F00003A905A8FFF7A6FE059B069A2B60002357
:10C900006A6006A806930593FFF70AFE04A8FFF7DE
:10C9100007FEABE7A5CF3F02012AF8B5054603D1D4
:10C920000B6803600020F8BD022A10D0032AF9D159
:10C930000468002CF6D004F11000FFF72EFE20460C
:10C94000FFF7BFFD18212046FEF791F8EAE718200F
:10C950000E68FEF788F8044650B13146FFF7CAFE6C
:10C960003069B6F9147008B102F012FC2061A78298
:10C970002C60D7E738B5002383608B6804460D46EA
:10C980002BB102229847EB68E360AB68A3602046B6
:10C9900038BD0000F0B5044689B00D4601A8114627
:10C9A000FFF759FEA4B124B21DB1284602F0F0FBF6
:10C9B000054601A803A90395ADF81040FFF7AAFEAC
:10C9C00003A8FFF7EAFD02A8FFF7AAFD09B0F0BD32
:10C9D0000123019DD5E84F2F002A03D1C5E8413F2F
:10C9E0000029F7D1EFD12B730122EB18C3E88F2F69
:10C9F0002B1DD3E8EF6FC3E8E24F002AF9D1002ED8
:10CA0000E1D02046FFF786FB074660B1304605F1CE
:10CA10000C01FFF74BFE3046FFF753FD1021304667
:10CA2000FEF725F8CFE7314603A8FFF7A3FF2B7BDE
:10CA300010208DF81C30FEF716F80546D0B187603F
:10CA40001420FEF710F8044678B10146876003A869
:10CA5000FFF76EFD059BA268A360069B0592E26846
:10CA6000E3609DF81C3006922374074B2C60EB604A
:10CA7000064BAB6003A8FFF724FD002229460448BB
:10CA8000FFF756FBC7E700BFCFCC3F02A5D03F0260
:10CA9000ABCA3F02012A70B5044603D10B6803609C
:10CAA000002070BD022A0CD0032AF9D10468002CA2
:10CAB000F6D02046FFF705FD14212046FDF7D7FFED
:10CAC000EEE714200E68FDF7CEFF054620B1314693
:10CAD000FFF750FF337C2B742560E1E700224068AC
:10CAE0001146FFF713BC002240681146FFF72ABC2D
:10CAF00000224068FFF718BC0022406881F0010165
:10CB0000FFF7F6BB002340681A461946FFF7E2BB61
:10CB1000002340681A461946FFF7CEBB0022406842
:10CB20001146FFF7BBBB002240681146FFF79ABBD6
:10CB3000002202214068FFF7A3BB002340681A4689
:10CB4000FFF782BB0322024B5A60024A1A60704709
:10CB500058AE0710E4FB3F027047F8B5064615468D
:10CB60000C468F18BC4206D0336830469B6814F8D8
:10CB7000011B9847F6E72846F8BD0022007CFFF726
:10CB8000A7B80021007CFFF7B1B80021007CFFF7B7
:10CB9000BBB80021007CFFF7C5B80021007CFFF77F
:10CBA000CFB810B504461421FDF761FF204610BD33
:10CBB00038B5044615464FF47A730022C4E90123C0
:10CBC000094B0846217423602946FFF7D5F8BF308A
:10CBD00008D16B69DB0705D56868FFF7EBFBE868F0
:10CBE000FFF7E8FB204638BD20FC3F020022007C16
:10CBF000FFF736B80023007C1A461946FFF73EB807
:10CC00007FB500221423CDE90122ADF804300B7862
:10CC1000007C8DF808304B680393CB6804930B7A43
:10CC200001A90593FFF7B6F807B05DF804FB1FB53F
:10CC3000003B8DF800104FF0640118BF01230391F1
:10CC4000694601928DF80830FFF7DAFF05B05DF80C
:10CC500004FB0022007CFFF71FB80022007CFFF7D6
:10CC600029B8704710B504461821FDF700FF20468B
:10CC700010BDF0B5037D0E46062B4FF000048DB0BD
:10CC800000F1040712D000F1080515F8011D0A2271
:10CC9000304601F01AFBAF42044419D0002CF4D006
:10CCA0002E21304601F00EFB0444EEE72F236A46A6
:10CCB00039460A208DF80040FFF77AF86846FDF7FC
:10CCC000ADFE3368024669463046DB689847044645
:10CCD00020460DB0F0BD000010B50446044B1122F3
:10CCE000002140F8043B02F0FCF9204610BD00BFD3
:10CCF00048FC3F020346074A10B543F8042B01F1F4
:10CD0000100251F8044B914243F8044BF9D10A78D0
:10CD10001A7010BD48FC3F0210B59DF8084044EA67
:10CD2000032343EA0242042342EA0161416003759E
:10CD300010BD000007B5064B0360CB7800938B78DD
:10CD40004A780978FFF7E8FF03B05DF804FB00BFFD
:10CD500048FC3F02012200F1100313F8101C184692
:10CD6000012908D153F8041C02EB4102013A03F1F6
:10CD70001003F2D17047022904BF53F8041C521863
:10CD8000F4E7704710B504461421FDF770FE204605
:10CD900010BD38B51546D0E903239342044607D2A7
:10CDA000D21A8068AA4228BF2A46184402F072F9B3
:10CDB00022692A44226138BD0EB417B5044605AB7A
:10CDC00053F8042BE1680193036980688B4234BFF8
:10CDD000C91A00211844019BFFF708FB2369184476
:10CDE000206103B0BDE8104003B070470EB4F0B549
:10CDF00088B0102100AF07F1340555F8042B044624
:10CE00002B4678187A60FD60FFF7F0FA0F287A68F1
:10CE10001AD900F1080323F007036E46ADEB030DAA
:10CE2000411C2B466846FD60FFF7E0FA021E04DD58
:10CE30002368694620469B689847B5462037BD461B
:10CE4000BDE8F04003B070470028F7D023680246E1
:10CE50009B68204607F110019847EFE738B50B684B
:10CE6000044603604D6843689D4208D015B16B6865
:10CE700001336B60606808B1FFF72CFB656038BD5B
:10CE800007B503688DF8071001229B680DF10701B3
:10CE9000984703B05DF804FB0B461146002210B51D
:10CEA0000446C0E9002283600BB9204610BDFFF79D
:10CEB000D5FFFAE78368EBB11A78032A1AD8DFE8BE
:10CEC00002F00417021B0520704702685B68526875
:10CED000D05C2D2812D0A0F13003092B0ED9742874
:10CEE0000ED066280CD0A0F16E035842584170470E
:10CEF00006207047002070470420704703207047C9
:10CF00000220704710B50446FFF7D4FF02280ED068
:10CF1000C31EDBB2012B14D82268A36850685B687B
:10CF20000A22BDE810400021184402F0F9B9226835
:10CF3000A36852685B68D05CA0F174035842584102
:10CF400010BD0020FCE7000038B500230446C0E90E
:10CF500000330E48C4E90203A9B10B78032B06D0B5
:10CF60008BB9136858684B68C35C6E2B07D0136885
:10CF70004D6858688B6828445B1BA060E3601146CD
:10CF80002046FFF76BFF204638BD00BFD2FC3F02B2
:10CF900038B500250B4604461146C0E90055C0E9E6
:10CFA0000255C0E904554BB11A78012A06D103F1A4
:10CFB0001002DB6882604361FFF750FF204638BDF6
:10CFC00010B54369044663B18068013BE0601030EE
:10CFD000A0602061636113B1FFF7BCFEA060012077
:10CFE00000E0184610BD10B57D210446FFF748FF4C
:10CFF00001232046237110BD08B50379012B02D00F
:10D00000022B04D008BD2C21FFF73AFFFAE73A21A2
:10D01000FAE710B50446FFF7EFFF20467B21FFF744
:10D020002FFF00232046237110BD000013B50446D6
:10D030000191FFF7E1FF23682046DB68019A03496D
:10D04000984701232046237102B010BD54FC3F02D3
:10D0500013B504460191FFF7CFFF23682046DB6834
:10D06000019A0349984701232046237102B010BD5D
:10D0700057FC3F02F8B5044657EC106BFFF7BCFFB6
:10D0800023682046DD6832463B460349A847012312
:10D0900020462371F8BD00BF5AFC3F022DE9F0473E
:10D0A0000D469046222104462F46FFF7E9FEDFF8A1
:10D0B000A490A8444745BA463DD017F8016B222EEC
:10D0C00006D05C2E04D0304601F0DCFF0028F1D100
:10D0D0002368294620469B68AAEB050298475C21F5
:10D0E0002046FFF7CDFE0D2E0AD8072E1CD9A6F13B
:10D0F0000803052B18D8DFE803F00D0F11171315DF
:10D10000222E01D05C2E0FD131462046FFF7B8FE0B
:10D110003D46CFE76221F8E77421F6E76E21F4E798
:10D120006621F2E77221F0E723683246494620463D
:10D13000DB689847ECE7BD4205D0236829462046C6
:10D140009B687A1B984722212046FFF799FEBDE88D
:10D15000F08700BF5DFC3F0213B50446CDE9002116
:10D16000FFF74AFFDDE900212046FFF797FF022382
:10D170002046237102B010BD13B50446CDE900214D
:10D18000FFF73AFFDDE900212046FFF787FF012383
:10D190002046237102B010BD80680368DB68184721
:10D1A0007047084611B10B685B68184770477047B5
:10D1B00070477047704738B504460D4600682E2109
:10D1C00001F0D3FF2368C31A2B6023B1037803B1A6
:10D1D000013023682060184638BD10B504460C2184
:10D1E000FDF745FC204610BD10B504460421FDF7AF
:10D1F0003EFC204610BD10B504460421FDF737FC67
:10D20000204610BDFEF784BC08B5FDF7FDFBB0FA63
:10D2100080F0400908BD704710B50C4601F00CFACB
:10D22000844205D101F008FABDE8104001F0F6B9DA
:10D2300001F01EFC844205D101F01AFCBDE810404B
:10D2400001F08FB92CB123682046BDE810405B681F
:10D25000184710BD0B6803604B68436013B15A68F0
:10D2600001325A60704713B5044608460191FDF734
:10D27000D5FB02462046019902B0BDE81040FFF7F9
:10D280007BBF13B5044608460191FDF7C7FB024674
:10D29000204623680199DB6802B0BDE810401847BA
:10D2A00007B503688DF807100122DB680DF107014F
:10D2B000984703B05DF804FB0A6810B502604A683D
:10D2C00042600022C0E9022202618C688A608460A8
:10D2D000CC68CA60C4600C690A61046110BD0000BA
:10D2E0002DE9F74F4FF0140AD0E900841746454660
:10D2F0000AFB04F40093174BA4105C43002C21DDBF
:10D3000066100AFB06F005EB0009B9F804B03A46CE
:10D310005F4528BF5A462858019101F056FF002862
:10D320004FF0010301990BD15F4503D1009A1370AF
:10D330003446E3E7FCD9A61B09F11405013EF7E7E3
:10D34000F9DBF5E7A5EB08050248AD10684303B02B
:10D35000BDE8F08FCDCCCCCC7FB50369057E0191C3
:10D3600003B3F9B1002600F10C04039603A901A848
:10D37000FFF721FF0146A8B10DF10B032046039AE8
:10D380008DF80B60FFF7ACFF9DF80B3053B12368AD
:10D39000142404FB0034B4F906300834002BA8BF71
:10D3A000DDB2E3E7284604B070BD0EB4F0B58CB032
:10D3B00000AF07F1440555F8042B04462B46202105
:10D3C00007F110007A60FD60FFF710F81F287A68F7
:10D3D0001AD900F1080323F007036E46ADEB030DE5
:10D3E000411C2B466846FD60FFF700F8021E04DD75
:10D3F000236869462046DB689847B5463037BD4606
:10D40000BDE8F04003B070470028F7D0236802461B
:10D41000DB68204607F110019847EFE710B5084C8C
:10D42000D4E88F3FDB0709D42046FDF72FFB28B156
:10D430002046FDF730FB034801F01AFE024810BDFC
:10D4400064AE0710BFD73F021CA9071010B5084CE7
:10D45000D4E88F3FDB0709D42046FDF717FB28B13E
:10D460002046FDF718FB034801F002FE024810BDFC
:10D4700068AE071027D83F0220A9071038B500254D
:10D480000446C0E90055C0E904558560856140F84F
:10D49000245FFEF721FBFFF7C1FFE061FFF7D6FF36
:10D4A00025732062204638BD10B50A4CD4E88F3F62
:10D4B000DB070CD42046FDF7E9FA40B10648FFF738
:10D4C000DDFF2046FDF7E7FA044801F0D1FD0248F0
:10D4D00010BD00BF60AE071070AE071009E03F023C
:10D4E0000023024A02490348FEF7DCBDF1DD3F029A
:10D4F0007DDD3F02FDDC3F0200231A461946184637
:10D50000FEF7D0BD37B504468D686846FFF7A2FE2A
:10D510006A4629462046FFF73BFD01A8FFF700F8C1
:10D52000204603B030BD37B50446CD686846FFF7E6
:10D5300091FE6A4629462046FFF706FD01A8FEF740
:10D54000EFFF204603B030BD37B504460D6968468D
:10D55000FFF780FE6A4629462046FFF79DFC01A89A
:10D56000FEF7DEFF204603B030BD000070B58AB084
:10D570000D46014604A8FFF7C5FF144E04A8FFF7A7
:10D580001FFDE8B1684604A9FFF7CDFF31460298B8
:10D59000FFF73AFE044610B12C1E18BF012401A863
:10D5A000FEF7BEFF002CE9D0684604A9FFF7CCFFC8
:10D5B0006846FFF7A7FC286001A8FEF7B1FFDDE78A
:10D5C00005A8FEF7ADFF0AB070BD00BF7CFC3F02AE
:10D5D00037B50C46134920461546FDF715FA50B9E4
:10D5E00001F02AF84FF4165101F014F803B0BDE829
:10D5F000304001F021B820460B49FDF705FA78B913
:10D600004FF4165301A928460193FFF7AFFF01F02D
:10D610002FFA019900F0A2FF01F02AFA03B030BD01
:10D620000020FBE781FC3F0288FC3F0270B5142616
:10D63000D0E90053044606FB0356AE4205D005F17F
:10D640000800FFF7F3FF1435F7E72068FEF7B2FE96
:10D65000204670BD10B504460C30FFF7E7FF2046AA
:10D66000FEF74CFF204610BD10B50446034B40F8B2
:10D67000043BFFF7EFFF204610BD00BF98FB3F02C1
:10D6800010B50446FFF7F0FF20462421FDF7EFF91F
:10D69000204610BD10B50446024B0360FFF7E4FFBF
:10D6A000204610BD20FD3F0210B50446FFF7F2FFF3
:10D6B00020462421FDF7DBF9204610BD0022C0E9F9
:10D6C0000022826010B50C680A6004604C684A60F1
:10D6D00044608C688A60846010BD10B5044603689D
:10D6E0001868FEF723FA204610BD00002DE9F04F20
:10D6F00087B003931C4B80465B688946C3F30803DD
:10D7000016466BB9FFF7D0FE044600F12403406AC9
:10D710000593FFF777FD237B2BB105A8FFF7DDFF0E
:10D7200007B0BDE8F08F01235FFA89F92373D4E9CC
:10D73000005305EB830AAA4512D055F8047B314605
:10D74000381DFFF709FE8145F5D3039A3B68009227
:10D75000D3F808B04A46334641463846D847EAE748
:10D7600000232373D9E700BF00ED00E02DE9F74F58
:10D770009B461A4B80465B688946C3F308031646EE
:10D780006BB9FFF791FE044600F12403406A019350
:10D79000FFF738FD237B2BB101A8FFF79EFF03B0F5
:10D7A000BDE8F08F0123F6B22373D4E9005305EBF3
:10D7B000830A55450ED055F8047B5946381DFFF7AE
:10D7C000CBFD8642F5D33B684A4641463846DB6886
:10D7D0009847EEE700232373DEE700BF00ED00E08B
:10D7E0002DE9F341164B05465B680F46C3F308036A
:10D7F0001BBBFFF759FE044600F12403406A019366
:10D80000FFF700FDD4E90063462406EB8308B0452A
:10D8100009D101A8FFF761FFA542B4BF0020012094
:10D8200002B0BDE8F08156F8040B39460430FFF72A
:10D8300093FD8442A8BF0446E9E70020F0E700BF5B
:10D8400000ED00E0F8B5D0E901539D4204460E46D4
:10D850000DDB6F1C002F006804DDB900FEF7B8FD7A
:10D8600018B9F8BDFEF7A6FD00202060A760276864
:10D87000626807EB85019200A2EB8502081D01F0AA
:10D8800016FC47F825606368012001336360E8E710
:10D8900037B5044600F12403406A01930D46FFF7B3
:10D8A000B1FCD4E9003203EB8202934219460AD05C
:10D8B00009680433A942F8D101A8FFF70EFF00253B
:10D8C000284603B030BD29462046FFF7BBFF05467A
:10D8D0000028F1D06368012B01D1FFF701FE01A8F8
:10D8E000FFF7FBFEECE70B4670B50446D0E90002FB
:10D8F00000EB820282420FD001461D6851F8046B92
:10D90000AE4207D1521A01F0D2FB01206368013BFD
:10D91000636070BD0846EDE70020FAE71FB50446D6
:10D9200000F12403406A01910393FFF76BFC20464A
:10D9300001A9FFF7D8FF18B163680BB9FFF7DCFD49
:10D9400003A8FFF7CAFE04B010BD182370B5044643
:10D95000D0E9045603FB0656AE4215D0204605F129
:10D960001001FFF7C0FF63680BB9FFF7C5FDE06961
:10D9700029690368DB689847696919B1206A0368F7
:10D98000DB6898471835E7E71826D4E9045306FB07
:10D990000356AE4204D0284600F0C6FC1835F8E71E
:10D9A0000023636170BD73B50446FFF7A5FD04F164
:10D9B0002403606A0193FFF725FC2046FFF7C5FFAB
:10D9C00001A8FFF78AFE606A08B1FEF793F8D4E970
:10D9D0000453182606FB0356AE4204D0284600F036
:10D9E000A3FC1835F8E72069FEF7E4FC2068FEF791
:10D9F000E1FC204602B070BD0148FFF7D4BF00BF74
:10DA000070AE07108842F8B504460D46164615D983
:10DA1000904214D2A2F11406751AA1F114072C44F5
:10DA2000B7421AD01CB131462046FFF745FC06F13B
:10DA30000800FFF7FBFD143E143CF1E70DD0B542A2
:10DA40000BD01CB129462046FFF736FC05F1080033
:10DA5000FFF7ECFD14351434F1E7F8BD8842F8B552
:10DA600004460D46164614D9904213D2A2F1100670
:10DA7000751AA1F110072C44B74218D01CB13146D9
:10DA8000204600F0CEFC304600F04EFC103E103C2C
:10DA9000F2E70CD0B5420AD01CB12946204600F06E
:10DAA000C0FC284600F040FC10351034F2E7F8BD09
:10DAB00070B50E1E054611DD3001FEF76DFC044603
:10DAC00058B1D5E9001201EB0212FFF7C7FF286831
:10DAD000FEF770FC01202C60AE6070BD0024F6E7FC
:10DAE0002DE9F04F90460023462295B00391D8F8D7
:10DAF000041004469942C0E90033C0E90233C0E98A
:10DB00000433CDE9083302760A9323DCD8E90057C1
:10DB1000142303FB0757AF423BD029460BA800F064
:10DB200080FC0BA90FA8099E00F07BFCDDE909131E
:10DB300099421BDA089B099A03EB0616314603EB60
:10DB4000021206F11000FFF789FFEEB9099B0133BD
:10DB5000099311E008A8FFF7ABFF0028D6D108A869
:10DB6000FEF7CCFC204615B0BDE8F08F013108A8C7
:10DB7000FFF79EFF0028DDD10FA800F0D5FB0BA812
:10DB800000F0D2FB1435C6E730460FA900F049FC7F
:10DB9000DCE700264FF01409CDE90B660D96DDE9B0
:10DBA00008239E427CDA3301D35806930BB9013621
:10DBB000F5E70023079309FB06F30BAD029307A9D2
:10DBC00006A8FFF7F8FA82460028F0D04FF00003CD
:10DBD00001468DF817302846079A0DF11703FFF715
:10DBE0007FFB9DF817700190002F4AD1BDF81C30C3
:10DBF000CDE91177ADF840304FF6FF73CDF83CA07A
:10DC0000ADF842301397D5E90132934217DB03F1A7
:10DC1000010ABAF1000F30DD09FB0AF0FEF7BCFB88
:10DC2000834660B3D5E9001209FB0212FFF7EAFE52
:10DC30002868FEF7BFFBC5F800B0C5F808A02B6840
:10DC4000019A09FB023A6A68514609FB02320AF15D
:10DC50001400FFF7D7FEBAF1000F03D050460FA90A
:10DC6000FFF72AFB6B6801336B6011A8FFF7DEFC3E
:10DC70003FB10BA8FFF7DAFC71E7BB46D8E70127F5
:10DC8000F3E7019B2D6809FB0355069B1B782BB915
:10DC9000D8F80030029A13441B7CEB8008358EE7DD
:10DCA0002168226062686360A36809920A9A0A93F5
:10DCB000E368A2600B9A0B932369E2600C9A0C93C1
:10DCC000636922610D9A0D93039B0891626123762B
:10DCD000CFE70000F0B504462646174687B00D464C
:10DCE00068461946FDF734FA0B4B694646F8043B83
:10DCF00003A8FDF72DFA394603AA3046FFF7F0FED8
:10DD000003A8FDF7C9F96846FDF7C6F92046034B9D
:10DD10002562236007B0F0BD98FB3F0208FD3F027B
:10DD2000F0B50F4685B038461C4916461D460A9C7C
:10DD3000FCF76AFEC0B9A4B1294601A8FFF7BEFCF2
:10DD40002420174900F024FF054630B101AB3246CC
:10DD50002146FFF7BFFF134B2B6001A8FDF79CF98D
:10DD60002C46204605B0F0BD38460F49FCF74CFE66
:10DD700090B9002CF5D0294601A8FFF79FFC24207C
:10DD8000074900F005FF05460028E6D03246214647
:10DD900001ABFFF79FFFE0E70024E2E790FC3F02C2
:10DDA00054FE3F0220FD3F0294FC3F02014B024A19
:10DDB0001A6070476CAE07108CFB3F022DE9F047EC
:10DDC000089DD0F8209004460E461746984600F06D
:10DDD00033FC81454DD02B79190704D520466A695B
:10DDE0005449FFF7E2FAB8F1000F0DD05B2120464D
:10DDF000FFF756FA41462046FFF743FA236802220E
:10DE00002046DB684C4998472B79DA0724D5D5F8AA
:10DE100008802F21404601F0ECF908B100F101081B
:10DE200041462046FFF72DFA2B799B0708D53A216A
:10DE30002046FFF735FA2046EA684049FFF7B5FA71
:10DE40002A79236812F0040F20464FF00202DB68A3
:10DE500014BF3B493B4998472B7958071DD5296981
:10DE60000B461A4613F8010B60B1202808D1194659
:10DE7000F7E7354800F083F90028ACD0BDE8F0871B
:10DE80002828EED12368521A2046DB689847236879
:10DE900004222046DB682D49984700213846FEF7CA
:10DEA000F3F801462046FFF7ECF9236802222046EA
:10DEB000DB68244998471EB131462046FFF7E1F957
:10DEC0002B7913F0300F2CD023682149DB68022214
:10DED000204698472B79D9060AD523680722204681
:10DEE0001C49DB6898472046AA691B49FFF75DFA81
:10DEF0002B799A0611D5DB0605D523680222204628
:10DF0000DB680F4998472368204614490A22DB68DA
:10DF100098472046E969FFF7B4F95D212046FFF7ED
:10DF2000BFF923682046BDE8F0470222DB680C49B0
:10DF3000184700BFA5FC3F02ACFC3F0254FC3F0267
:10DF4000AFFC3F02B4FC3F0298AE0710B2FC3F02A8
:10DF5000B7FC3F02BAFC3F02C2FC3F02C5FC3F02D5
:10DF6000D0FC3F022DE9F0410446076A0D461646F3
:10DF700000F062FB874207D0206A324603682946D8
:10DF8000BDE8F041DB681847034800F0F8F80028C6
:10DF9000F2D0BDE8F08100BF98AE07102DE9F04344
:10DFA00085B0D0F8209005460F4690461E460C9C42
:10DFB00000F042FB814505D1494800F0E0F8002817
:10DFC00040F08A804FF000092B6A464A01A801926E
:10DFD00003938DF80890FFF71CF849464046FEF77A
:10DFE00053F880464049012201A8FFF7B5F84146A1
:10DFF000FFF739F93FB13D49012201A8FFF7ACF81D
:10E000003946FFF730F93EB13949012201A8FFF73F
:10E01000A3F83146FFF727F92379DF070ED5A66865
:10E020002F21304601F0E5F800B1461C31490122AC
:10E0300001A8FFF791F83146FFF715F923799E07FC
:10E0400007D52D49022201A8FFF786F8E168FEF7FF
:10E05000EDFF2379580714D5266933461F4613F878
:10E06000012B2AB1202A01D11E46F7E7282AF5D133
:10E070000222224901A8FFF76FF83146BA1BFFF7C9
:10E080007BF82379190707D51D49012201A8FFF75D
:10E0900063F86169FEF7DCFF2379DA0608D504220C
:10E0A00018490DEB0200FFF757F8A169FEF7BEFF14
:10E0B00023799B0607D51449062201A8FFF74CF8DF
:10E0C000E169FFF7D0F801A8FEF78DFF286A022268
:10E0D00003680E49DB68984705B0BDE8F08300BFD0
:10E0E00098AE0710F0FC3F0286FC3F02D3FC3F02D3
:10E0F000C7FE3F02A3FA3F02D5FC3F02D8FC3F0215
:10E100007CFA3F02DBFC3F02E0FC3F02D0FC3F0216
:10E11000002340681A46FEF797B8002202214068A3
:10E12000FEF7AEB8002240681146FEF79BB8002209
:10E1300040681146FEF7B2B8002340681A461946F7
:10E14000FEF7BAB8002340681A461946FEF7C2B86F
:10E1500000214068FEF704B900214068FEF70EB9BF
:10E160000022406881F00101FEF7C2B80022406839
:10E17000FEF7DAB8002240681146FEF7E3B8002245
:10E1800040681146FEF7C2B82DE9F04395B0144639
:10E190000D460746FEF7A0FD00211C220DA80091A8
:10E1A00000F09FFF402320460C9300216B460CAAF1
:10E1B000FDF71AFE044600284BD10246012168688B
:10E1C000FEF76CF80221804622466868FEF766F882
:10E1D00021468146009E002E3BD0002939D173682C
:10E1E000022B03D00A2B11D0F669F4E7B8F1000F27
:10E1F000FAD0716906A804313C1D07ADFEF79AFDFF
:10E200000FCD0FC42B6841462370EDE7B9F1000F25
:10E21000EAD0102201A8746900F063FF062301AD63
:10E220008DF8143004F1080318342A461868596828
:10E23000083303C2A3421546F7D101A906A83C1D25
:10E2400007ADFEF757FD0FCD0FC42B68494623706D
:10E25000CAE70098FDF7BAFD384615B0BDE8F0836F
:10E26000024B034A1A6000225A60704798AE0710AA
:10E2700068FD3F02F8B506460D4600248F18BD42E2
:10E280000CD0336830469B6815F8011B9847031E75
:10E2900001DB1C44F3E7002C08BF1C462046F8BDF8
:10E2A00013B50446084659B10191FCF7B7FB024685
:10E2B000204623680199DB6802B0BDE8104018478A
:10E2C00002B010BD03689B6818470023012A98BF5D
:10E2D0000A2230B58BB08DF8243009AC0D46B1FB65
:10E2E000F2F101FB125303F0FF03092B94BF30330B
:10E2F0003733DBB2AA4204F8013DEFD92146FFF7DC
:10E30000CFFF0BB030BD00000022014B9A60704778
:10E31000A0AE071010B5044608462170FDF772FD47
:10E3200000232046636010BD10B504460068FEF768
:10E3300041F8204610BD10B50446006808B1FEF74C
:10E3400039F80023C4E90133236010BD38B5044611
:10E350000D4600680131FEF73BF810B1C4E9000535
:10E36000012038BD10B50368044623B143688B42D1
:10E3700001D3012010BD2046FFF7E8FF0028F9D0A7
:10E38000A368002BF5D122681370F2E737B50D466C
:10E39000114601920446FFF7E5FF019A28B920468D
:10E3A000FFF7C9FF204603B030BD2946A2602068B0
:10E3B00000F070FE00212268A368D154F2E7002328
:10E3C00013B50446C0E900338360037341B10846C6
:10E3D0000191FCF723FB019902462046FFF7D6FF87
:10E3E000204602B010BD38B5054600680C4670B135
:10E3F0006A688B689A4208D3096831B100F0BFFEA1
:10E40000A368AB600023A36038BDFDF7D3FF23688A
:10E410002B6063686B60A368AB600023C4E90033C2
:10E42000F1E7002310B50446C0E9003383600373AD
:10E43000FFF7D9FF204610BD884210B5044605D02D
:10E440000B682BB18A681946FFF7A0FF204610BD64
:10E45000FFF771FFFAE7002310B50446C0E9003367
:10E4600083600373FFF7E8FF204610BD006808B122
:10E4700000F004BE7047000002220020044B1A6026
:10E48000044B054AC3E900009A60FDF719BE00BFBE
:10E49000BCAE0710B0AE07100000FFFF024B1A68B9
:10E4A000024B1A60704700BF24A90710C0AE0710C6
:10E4B00070474174704708B5007CFDF721FD20EAE4
:10E4C000E07008BD08B5007CFDF7D4FC20EAE070E0
:10E4D00008BD08B5007CFDF7E9FC40EAE07008BD26
:10E4E00008B5007CFDF7D4FC40EAE07008BD007C74
:10E4F000FDF7EABC37B5457C04462DB1207C03B05E
:10E50000BDE83040FDF7A8BC007C0191FDF7F8FCA8
:10E5100000280199F2DC284603B030BD10B504464E
:10E520001421FCF7A4FA204610BD000010B54FF4EA
:10E530007A730446084611460022C4E90123044BBD
:10E540002074236001236374FDF7F6FC204610BDA0
:10E55000C0FD3F020023007CFDF7E0BC0022FFF776
:10E56000F9BF007CFDF76ABC007CFDF7BBBC4174C1
:10E5700070477047704708B50021007CFDF730FDFB
:10E5800040EAE07008BD08B50121007CFDF728FDD8
:10E5900040EAE07008BD08B5007CFDF713FD20EAF5
:10E5A000E07008BD08B5007CFDF7FEFC20EAE070D5
:10E5B00008BD13B50446007C0191FDF703FD00285A
:10E5C000019901DC607C20B1207CFDF717FD20EA79
:10E5D000E07002B010BD007CFDF71EBD10B5044612
:10E5E0001421FCF744FA204610BD000010B54FF48A
:10E5F0007A73044608460021C4E90113044B2074D1
:10E600002360012311466374FDF7A4FC204610BD6E
:10E61000F0FD3F020022007CFDF7AABC007CFDF764
:10E62000B5BC007CFDF706BD10B5044614220021E0
:10E6300000F057FD204610BD10B588B003A8FFF7C5
:10E64000F3FF0C4CD4E88F1F11F001010FD12046CD
:10E650000191FCF71BFA019948B103AA0648FFF79C
:10E66000C5FF2046FCF717FA044800F001FD0248F8
:10E6700008B010BDC4AE0710C8AE071083EB3F0250
:10E68000002240681146FDF709BE0022406811468D
:10E69000FDF73CBE002240681146FDF753BE002244
:10E6A0004068FDF741BE0022406881F00101FDF79E
:10E6B0001FBE002340681A461946FDF70BBE002313
:10E6C00040681A461946FDF7F7BD0022406811461A
:10E6D000FDF7C8BD002202214068FDF7D1BD00232F
:10E6E00040681A46FDF7B0BD0422024B5A60024A48
:10E6F0001A607047DCAE071020FE3F02014B186025
:10E70000704700BF2CA9071008B50F4B43B1FFF7A6
:10E7100093FF03681B699847002801DD00E000BFF4
:10E720000A4B43B100F0A4F903681B69984700281D
:10E7300001DD00E000BF064B0BB100F0DFF9054B37
:10E740000BB100F011FA08BD00000000000000004D
:10E75000000000000000000008B5FFF7D5FFFDF73E
:10E760000FFA014B186008BDECAE07100548064AC9
:10E7700008B5121A054900F08DFC054B054A1A60D0
:10E7800008BD00BF00B4071004B407105CFA5F08AE
:10E7900000B407101E1C279A002307B51A466FF015
:10E7A00077010093FDF7E0FC03B05DF804FB000087
:10E7B00007B543880A2B08D0502B0BD1094B1B6897
:10E7C0004BB103B05DF804EB1847FFF7E5FF03B06A
:10E7D0005DF804FB00231A466FF077010093FDF704
:10E7E000C3FCF4E7E8AE0710002110B51148FDF7AF
:10E7F00043FE114B1A68114B9A420CBF01220022B2
:10E800000F4B1A7001D0FFF7B1FFFDF79DF90446D9
:10E8100000F070FC0B4B13B1204600E000BF00215C
:10E820000848FDF703FDBDE8104000210648FDF74C
:10E830008DBC00BF0DED3F0200B407101E1C279ACF
:10E84000E4AE071000000000C1ED3F0209B5044826
:10E850000068044B03441B681B68029309BD000059
:10E8600018A907104400000009B504480068044BCB
:10E8700003441B685B68029309BD000018A90710D8
:10E880004400000009B504480068044B03441B68B9
:10E890009B68029309BD000018A9071044000000FE
:10E8A0001B2837B5044602D9002003B030BDA0F1C3
:10E8B0000F03022B0BD9012821D800F085F8002185
:10E8C000007CFDF74BFA80F00100C0B2EDE7114D7E
:10E8D000D5E88F1F11F001010BD128460191FCF7FB
:10E8E000D5F8019928B10C48FFF714FD2846FCF72C
:10E8F000D2F8094B1878FDF793FA0028D4D1083CD8
:10E90000012C05D800F0B4F8007CFDF7EBFADAE74B
:10E910000120CAE748AE07104CAE07101B2838B5D7
:10E9200004460D460AD8FF2908D0FFF7B9FF28B1E1
:10E9300029462046BDE83840FDF776B938BD10B508
:10E940000446FFF7ADFF50B103212046FDF75EF905
:10E95000032804D12046BDE81040FDF773B900201C
:10E9600010BD000010B5084CD4E88F3FDB0708D479
:10E970002046FCF78BF820B1FDF710F92046FCF794
:10E980008AF8024810BD00BFF0AE0710F4AE0710C1
:10E990007047000038B50A4B04460360012309495B
:10E9A0004361202000F0F6F82025606005492846E4
:10E9B000A56000F0EFF8C4E90305204638BD00BFAC
:10E9C0001800010054FE3F0230B50E4D87B0D5E867
:10E9D0008F1F11F0010411D12846FCF757F868B1D8
:10E9E0006846FFF7D7FF6A4621460748FEF7E0F87A
:10E9F0002846FCF750F8054800F03AFB024807B0FB
:10EA000030BD00BFF8AE0710FCAE0710A1EF3F020B
:10EA10007047000038B5142504462A46002100F04E
:10EA200060FB25804025074928462581258200F086
:10EA3000B1F804496060284600F0ACF8E060204678
:10EA400038BD00BF54FE3F027047704710B5044602
:10EA5000FFF7E0FF204610BD10B50446FFF7DAFFD0
:10EA6000204610BD10B50446FFF7D4FF204610BD68
:10EA700030B50E4D87B0D5E88F1F11F0010411D1CC
:10EA80002846FCF703F868B101A8FFF7DFFF21462D
:10EA900001AA0748FFF74AFD2846FBF7FCFF054897
:10EAA00000F0E6FA024807B030BD00BF10AF071013
:10EAB0001CAF071021F03F0210B50D4C86B0D4E812
:10EAC0008F3FDB0711D42046FBF7E0FF68B101A8B8
:10EAD000FFF7C2FF012101AA0648FFF727FD2046E4
:10EAE000FBF7D9FF044800F0C3FA024806B010BD96
:10EAF00014AF071030AF07105BF03F0210B5FFF7FF
:10EB0000DBFF074B044653B1FFF72EFD38B12368F6
:10EB100020461B699847002801DD00E000BF10BDBA
:10EB20000000000010B50D4C86B0D4E88F3FDB0725
:10EB300011D42046FBF7AAFF68B101A8FFF792FFA6
:10EB4000022101AA0648FFF7F1FC2046FBF7A3FFCC
:10EB5000044800F08DFA024806B010BD18AF071047
:10EB600044AF071059F03F0210B5FFF7DBFF074B2A
:10EB7000044653B1FFF7F8FC38B1236820461B69FF
:10EB80009847002801DD00E000BF10BD0000000034
:10EB9000FBF769BFFBF769BF08B5FDF735FC00005F
:10EBA00038B52DED028B55EC104B00F041F81E4BA3
:10EBB000B0EE408AF0EE608A93F9003001331AD04B
:10EBC00022462B4620462946FBF7B8FE98B900227C
:10EBD000002320462946FBF7A7FE60B90022002348
:10EBE00020462946FBF778FE60B1FDF729FC222379
:10EBF0009FED0B8B0360B0EE480AF0EE680ABDECA7
:10EC0000028B38BDFDF71CFC212203460748BDECF2
:10EC1000028B1A60BDE8384000F022BAAFF30080E2
:10EC2000000000000000F0FF28A9071058FE3F0276
:10EC300051EC100BB1F5801F2DE9F04F0F462DED73
:10EC4000028B85B054DA21F0004310EE102A034302
:10EC500000F0F4800029C0F234810022DC4BFBF785
:10EC6000D3FBDC4A0F466FF03504974244DC3B157A
:10EC7000C7F31307D84AA3F2FF36D84B3B442644C8
:10EC800003F480135A4006EB1356D34B42EA0701B4
:10EC90000022FBF701FABB1C82468B46C3F3130329
:10ECA000022B34DC00220023FBF716FE002800F0C4
:10ECB000D280002E00F05C813046FBF73BFB06461D
:10ECC0000F46ADA3D3E90023FBF79EFB04460D4698
:10ECD00030463946AAA3D3E90023FBF795FB024649
:10ECE0000B4620462946FBF7D9F941EC100B09E009
:10ECF000B84A00249742BADD02460B46FBF7CEF92C
:10ED000041EC100B05B0BDEC028BBDE8F08FB44BAD
:10ED10000022FB1801934FF08043FBF7BFF9024636
:10ED20000B4650465946FBF799FC41EC180B304610
:10ED3000FBF700FB53EC182BCDE9020151EC180B4B
:10ED4000FBF762FB02460B4680468946FBF75CFBFD
:10ED500004460D468CA3D3E90023FBF755FB8CA397
:10ED6000D3E90023FBF79AF922462B46FBF74CFB2D
:10ED700089A3D3E90023FBF791F922462B46FBF741
:10ED800043FB87A3D3E90023FBF788F942464B46B0
:10ED9000FBF73AFB804689462046294682A3D3E901
:10EDA0000023FBF731FB82A3D3E90023FBF776F9BD
:10EDB00022462B46FBF728FB7FA3D3E90023FBF772
:10EDC0006DF922462B46FBF71FFB0B4602464946D0
:10EDD0004046FBF763F9834B89460199DB1B80466C
:10EDE0000B43002B5FDD00227F4B50465946FBF75B
:10EDF0000BFB52465B46FBF707FB04460D46002E15
:10EE000069D122462B4640464946FBF747F953EC69
:10EE1000182BFBF7F9FA02460B4620462946FBF76A
:10EE20003BF902460B4650465946FBF735F941EC93
:10EE3000100B05B0BDEC028BBDE8F08F0022002363
:10EE400000206A49FBF70AFC41EC100B05B0BDEC51
:10EE5000028BBDE8F08F5AA3D3E9002350465946F0
:10EE6000FBF7D2FA02460B4600205F49FBF714F984
:10EE700004460D4652465B4650465946FBF7C4FAD7
:10EE800002460B4620462946FBF7BEFA04460D46CD
:10EE9000002E59D102460B4650465946FBF7FCF866
:10EEA00041EC100B2EE7002E40F0A28042464B466C
:10EEB00050465946FBF7F0F853EC182BFBF7A4FA31
:10EEC000AFE70B46FBF7E8F800220023FBF7C6FB91
:10EED00041EC100B16E728A3D3E90023DDE902017A
:10EEE000FBF792FA22462B4606460F464046494615
:10EEF000FBF7D4F853EC182BFBF786FA80468946CB
:10EF00001FA3D3E90023DDE90201FBF77DFA0246E6
:10EF10000B4640464946FBF7C1F802460B462046E1
:10EF20002946FBF7B9F852465B46FBF7B5F80246AF
:10EF30000B4630463946FBF7AFF841EC100B05B0F5
:10EF4000BDEC028BBDE8F08F3046FBF7F3F980464D
:10EF5000894609A3D3E90023FBF756FA06460F4674
:10EF60004046494606A3D3E90023FBF74DFAD4E710
:10EF70009FED150BC6E600BF0000E0FE422EE63F07
:10EF8000763C7935EF39EA3D44523EDF12F1C23F1B
:10EF9000DE03CB966446C73F599322942449D23F5F
:10EFA000935555555555E53F9FC678D0099AC33FAF
:10EFB000AF788E1DC571CC3F04FA97999999D93FC6
:10EFC000555555555555D53F00000000000000002F
:10EFD00000005043FFFFEF7F0000F03F645F090037
:10EFE00086EBF9FF51B806000000E03F000050C377
:10EFF00017A3D3E90023DDE90201FBF705FA424636
:10F000004B4604460D4650465946FBF745F853EC2F
:10F01000182BFBF7F9F906460F460FA3D3E9002397
:10F02000DDE90201FBF7F0F902460B4630463946AE
:10F03000FBF732F852465B46FBF72EF802460B46CA
:10F0400020462946FBF728F841EC100B5AE600BF92
:10F050000000E0FE422EE63F763C7935EF39EA3D8E
:10F060009FED010B704700BF000000000000F87F1B
:10F07000002301461A46184600F05CB90A22002116
:10F0800000F04EB9024B1844407800F097007047EA
:10F09000C9FE3F020A44431E914200D1704710B599
:10F0A00011F8014B914203F8014FF9D110BD88428C
:10F0B00010B501EB020402D98442234607D8431E4F
:10F0C000A14208D011F8012B03F8012FF8E7024400
:10F0D00001468A4200D110BD13F8014D02F8014DDE
:10F0E000F7E702440346934200D1704703F8011B3F
:10F0F000F9E7000038B5104B04461D68AB6BB3B997
:10F100001820FDF749F90246A86320B90B4B4221AC
:10F110000B48FDF7A3F90B490B4BC0E900130B4B50
:10F12000002183600B2383810120C2E90401AB6BC2
:10F1300000221C615A6138BD2CA9071059FE3F02FC
:10F1400070FE3F020E33CDAB34126DE6ECDE0500EF
:10F15000C9B2034610F8012B1AB18A42F9D11846F8
:10F160007047002918BF0023F9E710B50446FFF7E0
:10F17000EFFF18B92046FBF751FC204410BD0346B1
:10F1800011F8012B03F8012B002AF9D17047000078
:10F19000024B0146186800F003B800BF2CA9071005
:10F1A00037B5044608460D46FBF738FC421C20469E
:10F1B00011460192FDF736F9044618B1019A294625
:10F1C000FFF768FF204603B030BD10B57AB10346A3
:10F1D0000139841813F8010B11F8012F904201D165
:10F1E000A34201D1801A10BD0028F3D1FAE71046DE
:10F1F000F9E738B503460C4669B9BDE83840FFF772
:10F20000A7BF431C054621461846FFF7A1FF00286B
:10F21000F7D1284638BD0025F5E70000012B2DE980
:10F22000F04701D0242B06D9FDF70AF91623036015
:10F230000020BDE8F0870D46DFF8E0C02E4615F847
:10F24000014B14F80C7017F00807F7D12D2C32D1B0
:10F250002C780127B51C002B5BD0102B09D1302C4A
:10F2600007D12C7804F0DF04582C4DD16C78102392
:10F27000023507F100484FF0000C08F1FF386646F0
:10F28000B8FBF3F903FB198AA4F1300EBEF1090FA4
:10F2900016D87446A34224DDBCF1000F1EDBB14535
:10F2A0001CD301D1A24519DB06FB03464FF0010C2C
:10F2B00015F8014BE8E72B2C04BF2C78B51CCAE7E6
:10F2C000A4F1410EBEF1190F01D8373CE2E7A4F1D9
:10F2D000610EBEF1190F04D8573CDBE74FF0FF3C3D
:10F2E000E6E7BCF1000F05DA22234646036042B987
:10F2F00030469EE707B17642002AF9D0BCF1000FF4
:10F3000000D0691E1160F3E73024002BB1D108232F
:10F31000AFE7302CA5D00A23ABE700BFCAFE3F02FF
:10F3200013460A46014602480068FFF777BF00BF50
:10F330002CA907102DE9F843DFF8BC8006461F46CC
:10F340000D46D8F80000914600F058F8264B1C688E
:10F3500034B9264C1C60264B13B11B68C4F88830A6
:10F3600063681F2B07DDD8F8000000F049F84FF064
:10F37000FF30BDE8F8835EB3D4F8880088B91D4B30
:10F3800023B9D8F8000000F03AF8F0E74FF48470A1
:10F39000FDF702F80028F4D00023C0E94033C4F898
:10F3A000880063680122022E40F8239002FA03F2DB
:10F3B00000EB8301D0F8003143EA0203C0F80031CA
:10F3C000C1F8807002BFD0F804311343C0F8043193
:10F3D0006368D8F800005A1C0233626044F8235076
:10F3E00000F00EF80020C4E7E4AF071058AF071094
:10F3F00000000000A9C93F0290A90710704770479C
:10F40000704700003DB03F0265B03F0269B03F0267
:10F410000000000043616C6C206F6E207075726597
:10F42000207669727475616C005265736574206131
:10F430006C6C2072656769737465727300506F77C6
:10F440006572206F6E005365742064656661756C2B
:10F450007420636F6E6669670043616C69627261F4
:10F460007465204146450077656967687400746576
:10F470006D70657261747572650064617461636159
:10F480006B652F64617461005765696768743A2021
:10F49000252E32660054656D703A20252E32662086
:10F4A000430054617272696E6720746865207363EB
:10F4B000616C650054617272696E6720636F6D7074
:10F4C0006C6574650053746172742063616C696269
:10F4D000726174696F6E0043616C69627261746914
:10F4E0006F6E20636F6D706C6574650043616C694D
:10F4F00062726174696F6E206572726F72004E6F16
:10F500002074617272696E6720666F756E642E205A
:10F51000506572666F6D696E6720612074617265F7
:10F520002E004E6F207765696768742072656620CB
:10F53000666F756E642E004E6F2063616C69627237
:10F540006174696F6E2076616C756520666F756E8B
:10F55000642E20506572666F726D696E672061203F
:10F5600063616C6962726174696F6E2E007461729E
:10F57000650063616C69627261746500617070003E
:10F58000000000000000000000000000000000007B
:10F5900085B03F02ADB03F02000000000000000057
:10F5A000DDB03F0211B13F02CDE33F0275E53F02FE
:10F5B000000000000000000075CB3F027BCB3F0243
:10F5C000B9CB3F0289CB3F0277CB3F02000000005E
:10F5D000000000004BD13F0241D13F0237D13F0232
:10F5E0002DD13F0221D13F0215D13F0261E73F02F9
:10F5F00069E73F0209D13F0201D13F02F7D03F0244
:10F60000EDD03F0299E73F0200000000000000003B
:10F6100069D13F02B3D13F028BD13F026BD13F0290
:10F6200093D13F029BD13F02A3D13F02ABD13F0216
:10F63000000000000000000083D23F0273D23F02AE
:10F6400075D23F02256400257500256700752530B9
:10F6500034780000000000000000000093D33F0257
:10F6600095D33F02A3D33F02C9D33F0262617564C1
:10F670000053657269616C0053657269616C310099
:10F680004A534F4E53747265616D4C6F6748616E9B
:10F69000646C657200253031307520005D20002CCF
:10F6A000200028293A2000205B00636F6465203D1C
:10F6B000200025690064657461696C73203D200039
:10F6C0000D0A006D006C6E00666E00636F6465006D
:10F6D00064657461696C00000000000000000000B7
:10F6E000C5D73F02EBD73F02A9D73F02FDD33F0268
:10F6F000000000000000000079DC3F0291DC3F02C6
:10F70000CDE33F0275E53F0200000000000000006D
:10F71000A5DC3F02B9DC3F02ADE53F02B1D73F02B5
:10F720000000000000000000C3D73F02F9D73F02ED
:10F7300031E33F02B3D73F020000000000000000A9
:10F74000C1D73F0207D83F02E1DB3F0229D83F0281
:10F75000000000000000000021E73F022BE73F020D
:10F7600035E73F023FE73F0249E73F0255E73F02E7
:10F7700061E73F0269E73F0271E73F027DE73F0231
:10F7800085E73F028FE73F0299E73F0225592D2584
:10F790006D2D25645425483A254D3A2553257A0088
:10F7A00061736374696D6500000000000000000073
:10F7B000C1EA3F022DEB3F0205EB3F0285E83F0225
:10F7C000D5EA3F02F1EA3F02E3EA3F02FFEA3F02E5
:10F7D000C3EA3F02C7EA3F02000000000000000049
:10F7E00085EB3F02EDEB3F02C3EB3F0285E83F02B2
:10F7F000B5EB3F0287EB3F0297EB3F02E7EB3F029F
:10F80000A7EB3F027FEB3F0200000000000000007A
:10F81000EFEC3F02E5EC3F02DBEC3F0291EC3F02F4
:10F82000CFEC3F02C3EC3F0261E73F0269E73F02D2
:10F83000B7EC3F02AFEC3F02A5EC3F029BEC3F026E
:10F8400099E73F0200000000005245454E54206DEC
:10F85000616C6C6F632073756363656564656400D8
:10F860002F746D702F6A656E6B696E732D474343FD
:10F870002D31302D706970656C696E652D34385F7F
:10F8800032303230313132345F3136303631383027
:10F890003633392F7372632F6E65776C69622F6E02
:10F8A00065776C69622F6C6962632F7374646C692D
:10F8B000622F72616E642E630000202020202020C1
:10F8C0002020202828282828202020202020202010
:10F8D0002020202020202020202088101010101010
:10F8E0001010101010101010101004040404040460
:10F8F0000404040410101010101010414141414143
:10F9000041010101010101010101010101010101A7
:10F910000101010101101010101010424242424238
:10F920004202020202020202020202020202020277
:10F93000020202020210101010200000000000005D
:10F9400000000000000000000000000000000000B7
:10F9500000000000000000000000000000000000A7
:10F960000000000000000000000000000000000097
:10F970000000000000000000000000000000000087
:10F980000000000000000000000000000000000077
:10F990000000000000000000000000000000000067
:10F9A0000000000000000000000000000000000057
:10F9B000000000000000000000000000ADB73F02A2
:10F9C00065CB3F0255D13F02BDE33F0271E83F02E4
:10F9D00019E93F0289EA3F02ADEA3F02F9EC3F0232
:10F9E0000000000238FD3F0250FD3F02B0FD3F0223
:10F9F000FF00000030A90710000000000000000018
:10FA000000000000000000000000000000000000F6
:10FA100000000000000000000000000000000000E6
:10FA200000000000000000000000000000000000D6
:10FA300000000000000000000000000000000000C6
:10FA400000000000000000000000000000000000B6
:0CFA50000000000000000000E8AF0710FC
:04FA5C0000000000A6
:10FFBE000200100000A05F0888A05F0898A63F020C
:10FFCE0001000A00FFFF20000200000001020304EE
:10FFDE0005060708090A0B0C0D0E0F10111213144B
:0EFFEE0015161718191A1B1C1D1E1F203E0089
:04FFFC0078563412ED
:04000005085FA018D8
:00000001FF
